:0400000007EF00F016
:100008007782F7ED08F0EAEF13F0A2EF04F0250E7F
:100018000001A119D8B43CD0000120EE02F08C51A7
:10002800D9268D51DA22DE50DE10D8B41AD000015C
:1000380020EE02F08C51D9268D51DA22DECF92F0D3
:10004800DDCF93F002D8A2EF04F00500FA6E0001AC
:100058009251FD6E9351FE6EFF6AFA500001A15154
:1000680012008CC0D9FF8DC0DAFFDECF92F0DDCF51
:1000780093F092C0D9FF93C0DAFFA1C0DFFF8CC014
:10008800D9FF8DC0DAFFDE2A000EDD22A2EF04F0D0
:10009800000E0001A06F000E9F6F000E00019E6F02
:1000A80005D000019E8500018E4B8F2B8EC0F6FF78
:1000B8008FC0F7FF000EF86E0F0EF76403D008002C
:1000C800F55005D0F6CFE9FFF7CFEAFFEF50300A39
:1000D800D8B4E7D78EC0F6FF8FC0F7FF000EF86ED2
:1000E8000F0EF76403D00800F55005D0F6CFE9FFEE
:1000F800F7CFEAFFEF5047EC17F0D8A08AD1000EEF
:100108000001A06F000E9F6F9FC080F0A0C081F01B
:10011800000E0001836F0A0E826FB4EC16F080C0E7
:100128009FF081C0A0F0D00E0001926FFF0E000179
:10013800936F8EC0F6FF8FC0F7FF000EF86E0F0E9C
:10014800F76403D00800F55005D0F6CFE9FFF7CFE4
:10015800EAFFEF500001946F956B00019251000186
:100168009427000193510001952300019451000147
:100178009F27000195510001A02300018E4B8F2B72
:100188008EC0F6FF8FC0F7FF000EF86E0F0EF764F3
:1001980003D00800F55005D0F6CFE9FFF7CFEAFF06
:1001A800EF5047EC17F0D8A034D1AED700019E8F9E
:1001B80063D190C0D9FF91C0DAFFDFCF92F0020E71
:1001C800DE26DFCF93F0000EDD2292C0D9FF93C068
:1001D800DAFFDECF9AF0DDCF9BF000019A510001E3
:1001E8009B11D8A406D0EC0E00019A6FFF0E0001F7
:1001F8009B6F000E0001996F000E986F03D00001ED
:10020800984B992B0001985100019A250001926F93
:100218000001995100019B210001936F92C0F6FFE4
:1002280093C0F7FF000EF86E0F0EF76403D00800B6
:10023800F55005D0F6CFE9FFF7CFEAFFEF500009F8
:10024800D8A4DDD700019F510001985D0001A0519D
:1002580000019959D8B009D00001985100019F5F59
:10026800000199510001A05B3ED0000E0001A06F73
:10027800000E9F6F38D0000120EE02F08C51D92675
:100288008D51DA22DE50DE10D8B418D0000120EEED
:1002980002F08C51D9268D51DA22DECF92F0DDCFD3
:1002A80093F001D820D00500FA6E00019251FD6E3E
:1002B8009351FE6EFF6AFA50200E12008CC0D9FFCF
:1002C8008DC0DAFFDECF92F0DDCF93F092C0D9FF78
:1002D80093C0DAFF200EDF6E8CC0D9FF8DC0DAFF25
:1002E800DE2A000EDD2200019F07D8A0A00700012A
:1002F8009F29C1E10001A029D8B460D0BCD7000172
:1003080020EE02F08C51D9268D51DA22DE50DE1013
:10031800D8B42CD0000120EE02F08C51D9268D5192
:10032800DA22DECF92F0DDCF93F001D81BD00500A2
:10033800FA6E00019251FD6E9351FE6EFF6AFA50FB
:100348009AC0F6FF9BC0F7FF000EF86E0F0EF76419
:1003580003D00800F55005D0F6CFE9FFF7CFEAFF44
:10036800EF50120000019A4B9B2B28D09AC0F6FF41
:100378009BC0F7FF000EF86E8CC0D9FF8DC0DAFF66
:10038800DECF92F0DDCF93F092C0D9FF93C0DAFFB1
:100398000F0EF76403D00800F55005D0F6CFE9FF3B
:1003A800F7CFEAFFEF50DF6E00019A4B9B2B8CC012
:1003B800D9FF8DC0DAFFDE2A000EDD220001980782
:1003C800D8A09907000198299AE100019929D8B481
:1003D800B5D295D790C0D9FF91C0DAFFDFCF92F0A0
:1003E800020EDE26DFCF93F0000EDD2292C0D9FF89
:1003F80093C0DAFFDF500001A16FA10E00019A6FD0
:10040800000E00019B6F000E0001996F010E986F9E
:1004180019D700018E510001926F00018F51000120
:10042800936F00018E4B8F2B92C0F6FF93C0F7FF9E
:10043800000EF86E0F0EF76403D00800F55005D0D3
:10044800F6CFE9FFF7CFEAFFEF500001A16F0001F7
:10045800A151000AD8B495D2630AD8B4BBD7070A09
:10046800D8B40AD00D0AD8B407D01A0AD8B4A1D67D
:100478000B0AD8B49BD6C1D700019EBF20D090C02C
:10048800D9FF91C0DAFFDFCF92F0020EDE26DFCF70
:1004980093F0000EDD2292C0D9FF93C0DAFFDECFC1
:1004A8009CF0DDCF9DF000019DAF60D0030E0001F0
:1004B8009E1300019C6D9D1FD8B09D2B57D090C0F6
:1004C800D9FF91C0DAFFDFCF92F0020EDE26DFCF30
:1004D80093F0000EDD2292C0D9FF93C0DAFFDECF81
:1004E8009CF0DDCF9DF042D0010E0001A16F050EFA
:1004F8000001A119D8B443D00001A151020DE60EA4
:10050800F324F66EFE0EF420F76EF86A000EF82259
:100518000900F55000019C5D0900F55000019D5946
:10052800D8A02DD00001A12BE2D7010E0001A16FA8
:10053800040E0001A119D8B422D00001A151020D66
:10054800F00EF324F66EFE0EF420F76EF86A000E35
:10055800F8220900F55000019C5D0900F5500001E2
:100568009D59D8A00CD00001A12BE2D700019E51C3
:10057800800B000AD8B4B8D7800AD8B4D6D70001FF
:100588009F510001A011D8B40BD09EC092F0030E69
:1005980000019217D8B404D000019F07D8A0A00783
:1005A800800E0001A1BF7F0E0001926F00019F51D4
:1005B8000001A15D0001A051800A00019259D8B044
:1005C8000BD00001A15100019F5F000E0001A1BFE7
:1005D800FF0E0001A05B05D0000E0001A06F000E09
:1005E8009F6F00019EA582D09EC092F0030E00016D
:1005F8009217D8B438D0000120EE02F08C51D926D9
:100608008D51DA22DE50DE10D8B418D0000120EE69
:1006180002F08C51D9268D51DA22DECF92F0DDCF4F
:1006280093F001D820D00500FA6E00019251FD6EBA
:100638009351FE6EFF6AFA502D0E12008CC0D9FF3E
:100648008DC0DAFFDECF92F0DDCF93F092C0D9FFF4
:1006580093C0DAFF2D0EDF6E8CC0D9FF8DC0DAFF94
:10066800DE2A000EDD2200019F510001A011D8B43E
:10067800C4D0000120EE02F08C51D9268D51DA2227
:10068800DE50DE10D8B418D0000120EE02F08C51F4
:10069800D9268D51DA22DECF92F0DDCF93F001D842
:1006A80020D00500FA6E00019251FD6E9351FE6E46
:1006B800FF6AFA50300E12008CC0D9FF8DC0DAFFE5
:1006C800DECF92F0DDCF93F092C0D9FF93C0DAFF6E
:1006D800300EDF6E8CC0D9FF8DC0DAFFDE2A000E27
:1006E800DD2200019F07D8A0A007BDD700019F51B8
:1006F8000001A011D8B442D0000120EE02F08C51C4
:10070800D9268D51DA22DE50DE10D8B418D0000177
:1007180020EE02F08C51D9268D51DA22DECF92F0EC
:10072800DDCF93F001D820D00500FA6E0001925178
:10073800FD6E9351FE6EFF6AFA50200E12008CC0B7
:10074800D9FF8DC0DAFFDECF92F0DDCF93F092C0F3
:10075800D9FF93C0DAFF200EDF6E8CC0D9FF8DC0A1
:10076800DAFFDE2A000EDD2200019F07D8A0A007CD
:1007780000019F510001A011D8A4BED79EC092F0DD
:10078800030E00019217D8B438D0000120EE02F011
:100798008C51D9268D51DA22DE50DE10D8B418D00B
:1007A800000120EE02F08C51D9268D51DA22DECFDD
:1007B80092F0DDCF93F001D820D00500FA6E000149
:1007C8009251FD6E9351FE6EFF6AFA502D0E120083
:1007D8008CC0D9FF8DC0DAFFDECF92F0DDCF93F069
:1007E80092C0D9FF93C0DAFF2D0EDF6E8CC0D9FFFF
:1007F8008DC0DAFFDE2A000EDD22A1C097F098D066
:1008080000019751020DE60EF324F66EFE0EF42059
:10081800F76EF86A000EF8220900F5CF82F00A0098
:10082800F5CF83F09CC080F09DC081F033EC14F0CC
:1008380080C087F081C088F0000E00018A6F0A0E20
:10084800896F0FEC15F000018751300F0001A16F7F
:1008580036D09CC080F09DC081F000019751020DF8
:10086800F00EF324F66EFE0EF420F76EF86A000E12
:10087800F8220900F5CF82F00A00F5CF83F033ECB7
:1008880014F0000180510F0B0001966F0001965182
:10089800010D970EF324F66EFF0EF420F76EF86A3A
:1008A800000EF8220800F5CFA1F009D000019E51F2
:1008B800800B000AD8B4A4D7800AD8B4CAD70001DC
:1008C80020EE02F08C51D9268D51DA22DE50DE104E
:1008D800D8B419D0000120EE02F08C51D9268D51E0
:1008E800DA22DECF92F0DDCF93F001D821D00500D7
:1008F800FA6E00019251FD6E9351FE6EFF6AFA5036
:100908000001A15112008CC0D9FF8DC0DAFFDECFE3
:1009180092F0DDCF93F092C0D9FF93C0DAFFA1C067
:10092800DFFF8CC0D9FF8DC0DAFFDE2A000EDD2282
:100938000001970700019729D8A4B8D700018E5164
:100948000001926F00018F510001936F00018E4BDF
:100958008F2B92C0F6FF93C0F7FF000EF86E0F0EB4
:10096800F76403D00800F55005D0F6CFE9FFF7CFBC
:10097800EAFFEF500001A16F0001A151D8A40BEFCD
:1009880000F0000E00018D6F000E8C6F1200D6EF84
:1009980008F0250E2218D8B436D020EE02F00D50FB
:1009A800D9260E50DA22DE50DE10D8B416D020EE4A
:1009B80002F00D50D9260E50DA22DECF13F0DDCF2B
:1009C80014F001D8EFD30500FA6E1350FD6E1450E1
:1009D800FE6EFF6AFA50225012000DC0D9FF0EC0F9
:1009E800DAFFDECF13F0DDCF14F013C0D9FF14C047
:1009F800DAFF22C0DFFF0DC0D9FF0EC0DAFFDE2A02
:100A0800000EDD22CFD3000E216E000E206E000EE8
:100A18001F6E03D01F840F4A102A0FC0F6FF10C0A4
:100A2800F7FF000EF86E0F0EF76403D00800F550BC
:100A380005D0F6CFE9FFF7CFEAFFEF50300AD8B478
:100A4800E9D70FC0F6FF10C0F7FF000EF86E0F0EC3
:100A5800F76403D00800F55005D0F6CFE9FFF7CFCB
:100A6800EAFFEF506FEC17F0D8A054D1000E216EBA
:100A7800000E206E20C001F021C002F0000E046EAE
:100A88000A0E036E5CEC17F001C020F002C021F0E2
:100A9800D00E136EFF0E146E0FC0F6FF10C0F7FFD6
:100AA800000EF86E0F0EF76403D00800F55005D05D
:100AB800F6CFE9FFF7CFEAFFEF50156E166A13502D
:100AC80015261450162215502026165021220F4A9A
:100AD800102A0FC0F6FF10C0F7FF000EF86E0F0EB9
:100AE800F76403D00800F55005D0F6CFE9FFF7CF3B
:100AF800EAFFEF506FEC17F0D8A00CD1BBD71F8ED0
:100B080035D111C0D9FF12C0DAFFDFCF13F0020EC2
:100B1800DE26DFCF14F0000EDD2213C0D9FF14C08B
:100B2800DAFFDECF1BF0DDCF1CF01B501C10D8A461
:100B380004D0EC0E1B6EFF0E1C6E000E1A6E000E1B
:100B4800196E02D0194A1A2A19501B24136E1A500A
:100B58001C20146E13C0F6FF14C0F7FF000EF86EC9
:100B68000F0EF76403D00800F55005D0F6CFE9FF63
:100B7800F7CFEAFFEF500009D8A4E4D72050195C5A
:100B880021501A58D8B005D01950205E1A50215A51
:100B98003AD0000E216E000E206E35D020EE02F005
:100BA8000D50D9260E50DA22DE50DE10D8B416D0F9
:100BB80020EE02F00D50D9260E50DA22DECF13F0C7
:100BC800DDCF14F001D81FD00500FA6E1350FD6E6A
:100BD8001450FE6EFF6AFA50200E12000DC0D9FFA5
:100BE8000EC0DAFFDECF13F0DDCF14F013C0D9FF4B
:100BF80014C0DAFF200EDF6E0DC0D9FF0EC0DAFF79
:100C0800DE2A000EDD222006D8A021062028C6E113
:100C18002128D8B45BD0C2D720EE02F00D50D926D7
:100C28000E50DA22DE50DE10D8B429D020EE02F0C1
:100C38000D50D9260E50DA22DECF13F0DDCF14F096
:100C480001D81AD00500FA6E1350FD6E1450FE6ECE
:100C5800FF6AFA501BC0F6FF1CC0F7FF000EF86EC3
:100C68000F0EF76403D00800F55005D0F6CFE9FF62
:100C7800F7CFEAFFEF5012001B4A1C2A27D01BC0EF
:100C8800F6FF1CC0F7FF000EF86E0DC0D9FF0EC0AE
:100C9800DAFFDECF13F0DDCF14F013C0D9FF14C094
:100CA800DAFF0F0EF76403D00800F55005D0F6CF31
:100CB800E9FFF7CFEAFFEF50DF6E1B4A1C2A0DC091
:100CC800D9FF0EC0DAFFDE2A000EDD221906D8A0F1
:100CD8001A061928A1E11A28D8B464D29DD711C0E0
:100CE800D9FF12C0DAFFDFCF13F0020EDE26DFCF06
:100CF80014F0000EDD2213C0D9FF14C0DAFFDF5054
:100D0800226E220E1B6E000E1C6E000E1A6E010E55
:100D1800196E34D70F50136E1050146E0F4A102AE4
:100D280013C0F6FF14C0F7FF000EF86E0F0EF7643D
:100D380003D00800F55005D0F6CFE9FFF7CFEAFF5A
:100D4800EF50226E2250000AD8B448D2630AD8B4B1
:100D5800C6D7070AD8B40AD00D0AD8B407D01A0AD9
:100D6800D8B4CFD60B0AD8B4CAD6CBD71FBE1DD09D
:100D780011C0D9FF12C0DAFFDFCF13F0020EDE2652
:100D8800DFCF14F0000EDD2213C0D9FF14C0DAFF44
:100D9800DECF1DF0DDCF1EF01EAE52D0030E1F12A7
:100DA8001D6C1E1ED8B01E2A4BD011C0D9FF12C010
:100DB800DAFFDFCF13F0020EDE26DFCF14F0000ECD
:100DC800DD2213C0D9FF14C0DAFFDECF1DF0DDCF5E
:100DD8001EF036D0010E226E050E2218D8B438D077
:100DE8002250020DE60EF324F66EFE0EF420F76E86
:100DF800F86A000EF8220900F5501D5C0900F5504C
:100E08001E58D8A025D0222AE7D7010E226E040E3C
:100E18002218D8B41DD02250020DF00EF324F66E1D
:100E2800FE0EF420F76EF86A000EF8220900F5505D
:100E38001D5C0900F5501E58D8A00AD0222AE7D711
:100E48001F50800B000AD8B4C5D7800AD8B4DDD7A4
:100E580020502110D8B409D01FC013F0030E131668
:100E6800D8B403D02006D8A02106800E22BE7F0E5B
:100E7800136E2050225C2150800A1358D8B007D036
:100E88002250205E000E22BEFF0E215A04D0000E12
:100E9800216E000E206E1FA478D01FC013F0030E21
:100EA8001316D8B435D020EE02F00D50D9260E50C6
:100EB800DA22DE50DE10D8B416D020EE02F00D5043
:100EC800D9260E50DA22DECF13F0DDCF14F001D888
:100ED8001FD00500FA6E1350FD6E1450FE6EFF6AA7
:100EE800FA502D0E12000DC0D9FF0EC0DAFFDECF6A
:100EF80013F0DDCF14F013C0D9FF14C0DAFF2D0EA4
:100F0800DF6E0DC0D9FF0EC0DAFFDE2A000EDD222B
:100F180020502110D8B4B4D020EE02F00D50D926BC
:100F28000E50DA22DE50DE10D8B416D020EE02F0D1
:100F38000D50D9260E50DA22DECF13F0DDCF14F093
:100F480001D81FD00500FA6E1350FD6E1450FE6EC6
:100F5800FF6AFA50300E12000DC0D9FF0EC0DAFF3A
:100F6800DECF13F0DDCF14F013C0D9FF14C0DAFFC1
:100F7800300EDF6E0DC0D9FF0EC0DAFFDE2A000E7C
:100F8800DD222006D8A02106C3D720502110D8B4CE
:100F98003CD020EE02F00D50D9260E50DA22DE5059
:100FA800DE10D8B416D020EE02F00D50D9260E501F
:100FB800DA22DECF13F0DDCF14F001D81FD0050000
:100FC800FA6E1350FD6E1450FE6EFF6AFA50200E32
:100FD80012000DC0D9FF0EC0DAFFDECF13F0DDCF4F
:100FE80014F013C0D9FF14C0DAFF200EDF6E0DC055
:100FF800D9FF0EC0DAFFDE2A000EDD222006D8A0B7
:10100800210620502110D8A4C4D71FC013F0030E06
:101018001316D8B435D020EE02F00D50D9260E5054
:10102800DA22DE50DE10D8B416D020EE02F00D50D1
:10103800D9260E50DA22DECF13F0DDCF14F001D816
:101048001FD00500FA6E1350FD6E1450FE6EFF6A35
:10105800FA502D0E12000DC0D9FF0EC0DAFFDECFF8
:1010680013F0DDCF14F013C0D9FF14C0DAFF2D0E32
:10107800DF6E0DC0D9FF0EC0DAFFDE2A000EDD22BA
:1010880022C018F08BD01850020DE60EF324F66E2D
:10109800FE0EF420F76EF86A000EF8220900F5CF6C
:1010A80003F00A00F5CF04F01DC001F01EC002F0E5
:1010B80020EC16F001C008F002C009F0000E0B6E1B
:1010C8000A0E0A6E93EC16F00850300F226E31D0DB
:1010D8001DC001F01EC002F01850020DF00EF324DE
:1010E800F66EFE0EF420F76EF86A000EF82209007C
:1010F800F5CF03F00A00F5CF04F020EC16F001500C
:101108000F0B176E1750010D970EF324F66EFF0E96
:10111800F420F76EF86A000EF8220800F5CF22F0E6
:1011280008D01F50800B000AD8B4ADD7800AD8B4B5
:10113800CFD720EE02F00D50D9260E50DA22DE501D
:10114800DE10D8B416D020EE02F00D50D9260E507D
:10115800DA22DECF13F0DDCF14F001D81FD005005E
:10116800FA6E1350FD6E1450FE6EFF6AFA5022504C
:1011780012000DC0D9FF0EC0DAFFDECF13F0DDCFAD
:1011880014F013C0D9FF14C0DAFF22C0DFFF0DC06E
:10119800D9FF0EC0DAFFDE2A000EDD221806182855
:1011A800D8A4BFD70F50136E1050146E0F4A102AD0
:1011B80013C0F6FF14C0F7FF000EF86E0F0EF764A9
:1011C80003D00800F55005D0F6CFE9FFF7CFEAFFC6
:1011D800EF50226E2250D8A4CDEF04F0000E0E6E10
:1011E800000E0D6E12000600FACF2DF0FBCF2EF088
:1011F800E9CF2FF0EACF30F0E1CF31F0E2CF32F093
:10120800D9CF33F0DACF34F0F3CF35F0F4CF36F06E
:10121800F6CF37F0F7CF38F0F8CF39F0F5CF3AF00E
:10122800F0A0A9D281380F0B0F0B3D6E8ED2000EA5
:101238003C6E000E3B6E3CBE06D03C501DE1070ED6
:101248003B5CD8B019D0D8903B34D96E3C34DA6EB8
:10125800BA0ED926000EDA22D8903B34E16E3C341F
:10126800E26E4C0EE126000EE222DECFE6FFDDCF75
:10127800E5FF3B4A3C2ADFD73D50010DD50EF3244C
:10128800F66EFE0EF420F76EF86A000EF8220800DB
:10129800F550420AD8A412D00001F7510001F55DBB
:1012A8000001F651800A2B6E0001F851800A2B5874
:1012B800D8B004D00001F54BF62B5CD23D50010D9F
:1012C800D50EF324F66EFE0EF420F76EF86A000EC3
:1012D800F8220800F550410AD8A410D00001F6BF42
:1012E8000DD00001F65105E1020E0001F55DD8A010
:1012F80005D00001F507D8A0F6073CD23D50010DF6
:10130800D50EF324F66EFE0EF420F76EF86A000E82
:10131800F8220800F550430AD8B41DD02BD2730E1A
:101328000AD26C0E08D2630E06D2800EAAEC17F011
:10133800E40E236EFF0E246ECFEC16F0C00EAAEC5E
:1013480017F0C70E236EFF0E246ECFEC16F0900E2A
:10135800AAEC17F00FD2F5C02BF0F6C02CF02C50E9
:10136800000AD8A4E2D72B50010AD8B4D8D7030A68
:10137800D8B4D7D7010AD8B4D6D7D7D7000E3C6E81
:10138800000E3B6E3CBE06D03C501DE1070E3B5C98
:10139800D8B019D0D8903B34D96E3C34DA6EBA0E36
:1013A800D926000EDA22D8903B34E16E3C34E26E46
:1013B8004C0EE126000EE222DECFE6FFDDCFE5FF90
:1013C8003B4A3C2ADFD73D50010DD50EF324F66E7B
:1013D800FE0EF420F76EF86A000EF8220800F550A9
:1013E800420AD8A412D00001F1510001F35D0001B6
:1013F800F451800A2B6E0001F251800A2B58D8B0A4
:1014080004D00001F34BF42BB5D13D50010DD50E9E
:10141800F324F66EFE0EF420F76EF86A000EF8223A
:101428000800F550410AD8A477D00001F4BF74D061
:101438000001F45105E1020E0001F35DD8A06CD063
:101448000001F307D8A0F40795D1000E3C6E000EFA
:101458003B6E3CBE06D03C501DE1070E3B5CD8B04D
:1014680019D0D8903B34D96E3C34DA6EBA0ED926EE
:10147800000EDA22D8903B34E16E3C34E26E4C0E1A
:10148800E126000EE222DECFE6FFDDCFE5FF3B4A94
:101498003C2ADFD73D50010DD50EF324F66EFE0E23
:1014A800F420F76EF86A000EF8220800F550420A98
:1014B800D8A412D00001EB510001E95D0001EA5106
:1014C800800A2B6E0001EC51800A2B58D8B004D04A
:1014D8000001E94BEA2B4ED13D50010DD50EF32406
:1014E800F66EFE0EF420F76EF86A000EF822080079
:1014F800F550410AD8A410D00001EABF0DD0000170
:10150800EA5105E1020E0001E95DD8A005D000010D
:10151800E907D8A0EA072ED13D50010DD50EF324D6
:10152800F66EFE0EF420F76EF86A000EF822080038
:10153800F550440AD8A41ED16D0EFDD03D50010DC2
:10154800D50EF324F66EFE0EF420F76EF86A000E40
:10155800F8220800F550310AD8A412D00001D94B5E
:10156800DA2BD9C001F0DAC002F0000E046E640E66
:10157800036E6FEC14F001C0D9F002C0DAF0FAD0B3
:101588003D50010DD50EF324F66EFE0EF420F76ED5
:10159800F86A000EF8220800F550320AD8A412D0D2
:1015A8000001DB4BDC2BDBC001F0DCC002F0000EDD
:1015B800046E640E036E6FEC14F001C0DBF002C021
:1015C800DCF0D8D03D50010DD50EF324F66EFE0E9A
:1015D800F420F76EF86A000EF8220800F550340A75
:1015E800D8A412D00001E34BE42BE3C001F0E4C01F
:1015F80002F0000E046E640E036E6FEC14F001C06E
:10160800E3F002C0E4F0B6D03D50010DD50EF3244E
:10161800F66EFE0EF420F76EF86A000EF822080047
:10162800F550350AD8A412D00001E54BE62BE5C0E9
:1016380001F0E6C002F0000E046E640E036E6FEC5B
:1016480014F001C0E5F002C0E6F094D03D50010D61
:10165800D50EF324F66EFE0EF420F76EF86A000E2F
:10166800F8220800F550370AD8B410D03D50010DC3
:10167800D50EF324F66EFE0EF420F76EF86A000E0F
:10168800F8220800F550380AD8A474D0650E53D053
:101698003D50010DD50EF324F66EFE0EF420F76EC4
:1016A800F86A000EF8220800F550420AD8A412D0B1
:1016B8000001EF510001ED5D0001EE51800A2B6E33
:1016C8000001F051800A2B58D8B004D00001ED4B2E
:1016D800EE2B50D03D50010DD50EF324F66EFE0EC4
:1016E800F420F76EF86A000EF8220800F550410A57
:1016F800D8A410D00001EEBF0DD00001EE5105E1D5
:10170800020E0001ED5DD8A005D00001ED07D8A0BC
:10171800EE0730D03D50010DD50EF324F66EFE0EC7
:10172800F420F76EF86A000EF8220800F550430A14
:10173800D8A420D0720E0001E76F1CD0D60E236EFD
:10174800FF0E246ECFEC16F015D00001E851630AA5
:10175800D8B47BD6060AD8B49BD7090AD8B40ED613
:10176800010AD8B464D51F0AD8B4E6D6010AD8B499
:10177800E5D6E4D7F0903AC0F5FF39C0F8FF38C095
:10178800F7FF37C0F6FF36C0F4FF35C0F3FF34C0AB
:10179800DAFF33C0D9FF32C0E2FF31C0E1FF30C009
:1017A800EAFF2FC0E9FF2EC0FBFF2DC0FAFF77929A
:1017B8001100000E0101676F000E666F49D0000E20
:1017C80001016B6F010E6A6FF30E01016E6F000E5F
:1017D80001016F6FF10E0101686F000E36D0000E27
:1017E80001016B6F020E6A6FE90E01016E6F000E48
:1017F80001016F6FEB0E0101686F000E26D0000E1D
:1018080001016B6F000E6A6FF50E01016E6F000E1D
:1018180001016F6FF70E0101686F000E0101696F1A
:10182800000E0101676F010E666F1FD0000E0101E7
:101838006B6F030E6A6FED0E01016E6F000E0101F2
:101848006F6FEF0E0101686F000E0101696F0DD017
:101858000001E851630AD8B4C2D7060AD8B4E6D75B
:10186800090AD8B4ACD7010ACAD7010166510101E7
:101878006711D8B44AD168C1D9FF69C1DAFF6EC10E
:10188800E1FF6FC1E2FFDE50E65CE650800A00012E
:10189800B86FDE50800A0001B859D8B096D06AC136
:1018A80080F06BC181F0000E0001836FB40E826F6F
:1018B800B4EC16F0700E0001B46F010E0001B56FA4
:1018C800000180510001B427000181510001B523B6
:1018D8006EC1D9FF6FC1DAFFDECFB6F0DDCFB7F04A
:1018E800FF0E0001B6250001806FFF0E0001B72131
:1018F8000001816F000E0001836F120E826FB4EC3D
:1019080016F0000180510001B42501016C6F00013F
:1019180081510001B52101016D6F420E0001A26FD6
:10192800010E0001A36FF90E0001A46FFF0E000164
:10193800A56F6CC1A6F06DC1A7F0000E0001A96FDC
:101948003C0EA86FF7EC15F06AC180F06BC181F00E
:10195800000E0001836FB40E826FB4EC16F0700EA7
:101968000001B46F010E0001B56F00018051000144
:10197800B427000181510001B5236EC1D9FF6FC1A1
:10198800DAFFDECF80F0DDCF81F0000E0001836F3B
:10199800120E826FB4EC16F0000180510001B425DC
:1019A80001016C6F000181510001B52101016D6FCA
:1019B800540E0001A26F010E0001A36F6CC1A4F0C8
:1019C8006DC1A5F0F7EC15F012006AC180F06BC18B
:1019D80081F0000E0001836FB40E826FB4EC16F034
:1019E800700E0001B46F010E0001B56F0001805147
:1019F8000001B427000181510001B5236EC1D9FF50
:101A08006FC1DAFFDECFB6F0DDCFB7F0FE0E000112
:101A1800B6250001806FFF0E0001B7210001816F1C
:101A2800000E0001836F120E826FB4EC16F00001F5
:101A380080510001B42501016C6F00018151000142
:101A4800B52101016D6F420E0001A26F010E000168
:101A5800A36F6CC1A4F06DC1A5F0F7EC15F06AC1D5
:101A680080F06BC181F0000E0001836FB40E826FAD
:101A7800B4EC16F0700E0001B46F010E0001B56FE2
:101A8800000180510001B427000181510001B523F4
:101A98006EC1D9FF6FC1DAFFDECFB6F0DDCFB7F088
:101AA800FF0E0001B6250001806FFF0E0001B7216F
:101AB8000001816F000E0001836F120E826FB4EC7B
:101AC80016F0000180510001B42501016C6F00017E
:101AD80081510001B52101016D6F540E0001A26F03
:101AE800010E0001A36FF90E0001A46FFF0E0001A3
:101AF800A56F6CC1A6F06DC1A7F0000E0001A96F1B
:101B08003C0EA86FF7EC15F012006AC180F06BC1AB
:101B180081F0000E0001836FB40E826FB4EC16F0F2
:101B2800700E0001B46F010E0001B56F0001805105
:101B38000001B427000181510001B5236EC1D9FF0E
:101B48006FC1DAFFDECFB6F0DDCFB7F0FF0E0001D0
:101B5800B6250001806FFF0E0001B7210001816FDB
:101B6800000E0001836F120E826FB4EC16F00001B4
:101B780080510001B42501016C6F00018151000101
:101B8800B52101016D6F420E0001A26F010E000127
:101B9800A36FF90E0001A46FFF0E0001A56F6CC1C1
:101BA800A6F06DC1A7F0000E0001A96F5E0EA86F28
:101BB800F7EC15F06AC180F06BC181F0000E0001EE
:101BC800836FB40E826FB4EC16F0700E0001B46F20
:101BD800010E0001B56F000180510001B42700011A
:101BE80081510001B5236EC1D9FF6FC1DAFFDECF85
:101BF80080F0DDCF81F0000E0001836F120E826F3E
:101C0800B4EC16F0000180510001B42501016C6F9D
:101C1800000181510001B52101016D6F540E0001D1
:101C2800A26F010E0001A36FF90E0001A46FFF0E51
:101C38000001A56F6CC1A6F06DC1A7F0000E0001F0
:101C4800A96F5E0EA86FF7EC15F01200312E205325
:101C58006F72742020202020202020000000322EC7
:101C68002050204C6F677320202020202000000087
:101C7800332E20437265646974732020202020006D
:101C8800000000000000000000000000000000004C
:101C9800000000000000000000000000000000003C
:101CA800000000000000000000000000000000002C
:101CB800000000000000000000000000000000001C
:101CC800000000000000000000000000000000000C
:101CD80000000000000000000000000000000000FC
:101CE80000000000000000000000000000000000EC
:101CF80000000000000000000000000000000000DC
:101D08006576656E74312020202020202020200058
:101D180000006576656E7432202020202020202067
:101D2800200000006576656E743320202020202076
:101D3800202020000000000000000000000000003B
:101D4800000000000000000000000000000000008B
:101D5800000000000000000000000000000000007B
:101D6800000000000000000000000000000000006B
:101D7800000000000000000000000000000000005B
:101D8800000000000000000000000000000000004B
:101D9800000000000000000000000000000000003B
:101DA800000000000000000000000000000000002B
:101DB800000000004D6963726F636F6E74726F6C20
:101DC8003A2020000000436C656D656E74205761F1
:101DD8006E202020200000004369726375697473C7
:101DE8003A2020202020200000004A757374696E74
:101DF800205175202020202020000000456C6563BC
:101E080074726F6D6563683A202020000000506589
:101E18007465722046656E6720202020200000002F
:101E280000000000000000000000000000000000AA
:101E3800000000000000000000000000000000009A
:101E4800000000000000000000000000000000008A
:101E5800000000000000000000000000000000007A
:101E6800000000000000000000000000000000006A
:101E7800000000000000000000000000000000005A
:101E8800000000000000000000000000000000004A
:101E9800000000000000000000000000000000003A
:101EA800000000000000000000000000000000002A
:101EB800000000000000000000000000000000001A
:101EC800000000000000000000000000000000000A
:101ED80000000000000000000000000000000000FA
:101EE80000000000000000000000000000000000EA
:101EF80000000000000000000000000000000000DA
:101F080000000000000000000000000000000000C9
:101F1800000000000000000000000000730E000137
:101F2800E719D8A405D0730E0001E819D8A40AD07F
:101F38006D0E0001E719D8A433D06D0E0001E81921
:101F4800D8B42ED0000E0001B76F000EB66F000196
:101F5800B7BF08D00001B75123E1070E0001B65DF5
:101F6800D8B01ED0D8900001B635D96E0001B7356B
:101F7800DA6EBA0ED926000EDA22D8900001B635EC
:101F8800E16E0001B735E26E4C0EE126000EE2224A
:101F9800DECFE6FFDDCFE5FF0001B64BB72BD7D785
:101FA8000001DB510001D9250001B46F0001DC51AB
:101FB8000001DA210001B56F0001E3510001B427E7
:101FC8000001E4510001B5230001E5510001B425E9
:101FD8000001DF6F0001E6510001B5210001E06F4B
:101FE800DFC080F0E0C081F0000E0001836F640E56
:101FF800826F99EC13F080C0DFF081C0E0F0730EBF
:102008000001E819D8A40ED00001E2BF0BD00001EE
:10201800E25105E1B40E0001E15DD8A003D0650EE0
:102028000001E76F650E0001E719D8A473D0650EAB
:102038000001E819D8B46ED0E1C0DDF0E2C0DEF0EE
:102048008C0E0001A26F030E0001A36F840E000125
:10205800A46FFF0E0001A56FDFC0A6F0E0C0A7F0D7
:10206800F7EC15F09E0E0001A26F030E0001A36F9E
:10207800460E0001A46FFF0E0001A56FDDC080F0C1
:10208800DEC081F0000E0001836F3C0E826FDCEC35
:1020980012F080C0A6F081C0A7F0E1C080F0E2C0D5
:1020A80081F0000E0001836F3C0E826F99EC13F0F3
:1020B80080C0A8F081C0A9F0F7EC15F0B00E0001BF
:1020C800A26F030E0001A36F5C0E0001A46FFF0E48
:1020D8000001A56FD9C0A6F0DAC0A7F0DBC0A8F050
:1020E800DCC0A9F0F7EC15F0C20E0001A26F030ED8
:1020F8000001A36F700E0001A46FFF0E0001A56F11
:10210800E3C0A6F0E4C0A7F0E5C0A8F0E6C0A9F0D7
:10211800F7EC15F06D0E0001E819D8B40AD06C0E72
:102128000001E819D8B405D0630E0001E819D8A455
:102138000ED00001E2BF0BD00001E25105E10A0E0A
:102148000001E15DD8A003D0720E0001E76FE7C07F
:10215800E8F06D0E0001E819D8B419D06C0E000132
:10216800E819D8B414D0630E0001E819D8B40FD018
:10217800000E0001F66F010EF56F000E0001F46FFE
:10218800010EF36F000E0001EA6F010EE96F650E94
:102198000001E819D8B405D0000E0001EE6F010E59
:1021A800ED6F720E0001E819D8A41200000E0001AC
:1021B800DA6F000ED96F000E0001DC6F000EDB6FC6
:1021C800000E0001E46F000EE36F000E0001E66FE1
:1021D800000EE56F1200B9EC17F0000E0001826FD7
:1021E800D00E816FB0EC17F0000E0001826F000E68
:1021F800816FB0EC17F0B5EC17F0B9EC17F0000EE2
:102208000001826FD10E816FB0EC17F0000E000153
:102218008A6F050E00018A6501D047D000018A51F6
:10222800010DD20EF324D96E000EF420DA6E010EE1
:1022380003EC17F0DF6E00018A51010DD20EF32472
:10224800D96E000EF420DA6EDF500F0B0001866F96
:10225800876B00018A51010DD20EF324D96E000E4E
:10226800F420DA6EDF500001886F0001883B0F0E02
:1022780088170F0E00018817000188510A0DF350C6
:1022880000018627F4500001872300018A51020DBE
:10229800BA0EF324D96E000EF420DA6E86C0DEFF83
:1022A80087C0DDFF00018A2BB4D74CC086F04DC033
:1022B80087F00001861F871F864B872BBCC080F0E4
:1022C800BDC081F0000E0001836F3C0E826FB4EC3C
:1022D80016F080C088F081C089F04EC080F04FC0F1
:1022E80081F0000E0001836F3C0E826FB4EC16F093
:1022F8000001801F0001811F0001804B812B00011C
:1023080080510001882700018151000189230001C3
:1023180086510001882700018751000189230001A7
:10232800BA51000188250001E16F0001BB5100018D
:1023380089210001E26F000E03EC17F00001D86F4D
:10234800B5EC17F01200A0D0420E0001A26F010EEA
:102358000001A36F180E0001A46FFF0E0001A56F06
:10236800D8C0A6F00001A76BD7C0A8F00001A96BE0
:10237800D6C0AAF00001AB6BF7EC15F0540E0001C3
:10238800A26F010E0001A36F2F0E0001A46FFF0EB4
:102398000001A56FD4C0A6F00001A76BD3C0A8F0B8
:1023A8000001A96BD2C0AAF00001AB6BF7EC15F0E5
:1023B8001200DDEC0BF01200420E0001A26F010EBC
:1023C8000001A36FFF0E0001A46FFE0E0001A56FB0
:1023D800E1C080F0E2C081F0000E0001836F3C0E86
:1023E800826FDCEC12F080C0A6F081C0A7F0E1C0DB
:1023F80080F0E2C081F0000E0001836F3C0E826F16
:1024080099EC13F080C0A8F081C0A9F0D9C0AAF057
:10241800DAC0ABF0DBC0ACF0DCC0ADF0F7EC15F027
:10242800540E0001A26F010E0001A36FA80E000157
:10243800A46FFF0E0001A56FE3C0A6F0E4C0A7F0EB
:10244800E5C0A8F0E6C0A9F0F7EC15F01200420EBE
:102458000001A26F010E0001A36FF30E0001A46F2B
:10246800FF0E0001A56FF7EC15F0540E0001A26FE6
:10247800010E0001A36FB80E0001A46FFF0E00014A
:10248800A56FF7EC15F012000001E851630AD8B403
:1024980090D7060AD8B48DD7090AD8B48AD7010AC2
:1024A800D8B487D71F0AD8B44FD7010AD8B484D76D
:1024B800CED7000E0001AC6F000EAB6F1E0E0001F0
:1024C800806F010E0001816F420E0001826F010EC4
:1024D8000001836FA1EC15F000018051000181110A
:1024E800D8B413D01E0E0001806F010E0001816F59
:1024F800420E0001826F010E0001836FEAEC16F0B4
:10250800000E0001AC6F010EAB6F300E0001806F42
:10251800010E0001816F540E0001826F010E00014F
:10252800836FA1EC15F00001805100018111D8B42E
:1025380013D0300E0001806F010E0001816F540E20
:102548000001826F010E0001836FEAEC16F0000EA5
:102558000001AC6F010EAB6F0001AB510001AC1173
:10256800D8B41200010E9CEC17F0210E0001AA6FDE
:10257800760EE82EFED7AA2FFCD700F0800E9CEC32
:1025880017F01E0E0001A26F010E0001A36F49ECA7
:1025980016F0C00E9CEC17F0300E0001A26F010E71
:1025A8000001A36F49EC16F0900E9CEC17F0120096
:1025B800000E0001856F000183AF08D00001826D15
:1025C800831FD8B0832B010E0001856F000181AFF6
:1025D80008D00001806D811FD8B0812B010E000149
:1025E800851B000E0001876F000E866F0001825167
:1025F80000018311D8B42CD0010E0001846F06D0DD
:102608000001D890823783370001842B000183AF03
:10261800F7D70001D890863787370001825100012B
:10262800805D0001835100018159D8A00AD00001C2
:1026380082510001805F000183510001815B00012C
:1026480086810001D890833382330001842FE1D73B
:10265800000185510001D8B405D00001866D871F9F
:10266800D8B0872B86C080F087C081F01200000E9A
:102678000001886F000E896F000E8A6F000E8B6F45
:1026880000018451000185110001861100018711A4
:10269800D8B442D0010E00018C6F08D00001D89048
:1026A800843785378637873700018C2B000187AF41
:1026B800F5D70001D890883789378A378B370001DA
:1026C80084510001805D000185510001815900019C
:1026D8008651000182590001875100018359D8A011
:1026E80012D0000184510001805F00018551000172
:1026F800815B000186510001825B00018751000166
:10270800835B000188810001D89087338633853345
:10271800843300018C2FCDD788C080F089C081F028
:102728008AC082F08BC083F01200000E0001856F12
:10273800000181AF08D00001806D811FD8B0812BC6
:10274800010E0001856F000183AF05D00001826D85
:10275800831FD8B0832B0001825100018311D8B4A4
:1027680026D0010E0001846F06D00001D890823770
:1027780083370001842B000183AFF7D70001825112
:102788000001805D0001835100018159D8A008D063
:10279800000182510001805F000183510001815BCB
:1027A8000001D890833382330001842FE7D70001DA
:1027B80085510001D8B405D00001806D811FD8B0C3
:1027C800812B80C080F081C081F01200540EF66E1B
:1027D8001C0EF76E000EF86E01EE70F012EED0F0DF
:1027E8000900F5CFEEFFE550E150FAE1E250F8E1DB
:1027F800260EF66E2F0EF76E000EF86E00EEE7F05E
:1028080010EE12F00900F5CFEEFFE550E150FAE1C5
:102818007A0EF66E2F0EF76E000EF86E00EE70F060
:1028280010EE07F00900F5CFEEFFE550E150FAE1B0
:1028380001EE00F0660EEE6AE806FDE100EEBAF081
:102848002D0EEE6AE806FDE100EE3EF0320EEE6A6D
:10285800E806FDE1779077920001A7EF14F0000EEB
:102868000001866F000E856F0001825100018311FF
:10287800D8B42CD0010E0001846F06D00001D89086
:10288800823783370001842B000183AFF7D700011B
:10289800D89085378637000182510001805D00019C
:1028A800835100018159D8A00AD00001825100014A
:1028B800805F000183510001815B00018581000177
:1028C800D890833382330001842FE1D785C080F00C
:1028D80086C081F01200000E066E02AE06D0016CB2
:1028E800021ED8B0022A010E066E04AE04D0036C94
:1028F800041ED8B0042A03500410D8B418D0010E0E
:10290800056E04D0D89003360436052A04AEFAD7EB
:102918000350015C04500258D8A004D00350015E53
:102928000450025AD89004320332052EF1D70650CB
:10293800D8B404D0016C021ED8B0022A01C001F03C
:1029480002C002F01200000E946E000E956E93689D
:10295800000E8A6E000E8B6E000EC26EC1686EECA1
:1029680016F0F086F19E100E00018D6F270E8E6F07
:10297800000E8F6F000E906F71EC15F0F29E40EC18
:1029880015F0F29EEFEC10F01AEC17F092EC0FF045
:10299800A7EC11F05DEC12F0F28EA30E0001B96FF6
:1029A800550EE82EFED7B92FFCD7F29EEAD70001C4
:1029B800816F00018151F00B0001806F8C500F0B6B
:1029C8008C6E000180518C108C6E8C96140EE82E43
:1029D800FED700D08C86140EE82EFED700D000015A
:1029E8008139F00B0001816F00018151F00B00016A
:1029F800806F8C500F0B8C6E000180518C108C6E88
:102A08008C96140EE82EFED700D08C86140EE82E75
:102A1800FED700D012000001895100018A11D8B4F4
:102A280026D0010E00018B6F06D00001D89089379F
:102A38008A3700018B2B00018AAFF7D70001895133
:102A48000001875D00018A5100018859D8A008D08B
:102A5800000189510001875F00018A510001885BEC
:102A68000001D8908A33893300018B2FE7D787C0BC
:102A780087F088C088F01200B9EC17F0000E00014A
:102A8800826FD00E816FB0EC17F0000E0001826FDC
:102A9800000E816FB0EC17F0000E0001836F060E78
:102AA8000001836501D016D000018351010DF80E95
:102AB800F324F66EFE0EF420F76EF86A000EF82284
:102AC8000800F5500001816F826BB0EC17F000012F
:102AD800832BE5D7B5EC17F01200000EC76E280E51
:102AE800C66E000EC56E800E0001806F960E816F57
:102AF800980E826F000E836F8DC091F08EC092F099
:102B08008FC093F090C094F0020ED89000019137D6
:102B1800923793379437E82EF8D791C084F092C053
:102B280085F093C086F094C087F03BEC13F0000169
:102B38008005C86E94869488120006D00001804BE8
:102B4800812B0001824B832B80C0D9FF81C0DAFF23
:102B5800DF500001846F82C0D9FF83C0DAFFDF50E5
:102B68000008000184250001856F00018551D8A463
:102B780007D080C0D9FF81C0DAFFDF50D8A4DED7E4
:102B8800000185510001806F816B80BF81071200B1
:102B9800026E0250F00B016E8C500F0B8C6E0150C0
:102BA8008C108C6E8C96140EE82EFED700D08C8676
:102BB800140EE82EFED700D00238F00B026E025039
:102BC800F00B016E8C500F0B8C6E01508C108C6EBC
:102BD8008C96140EE82EFED700D08C86140EE82EA4
:102BE800FED700D01200A2C0B0F0A3C0B1F0000E12
:102BF8000001B26F000E0001B36FA60E0001AE6FA8
:102C0800000E0001AF6FB00E00018C6F000E0001C6
:102C18008D6FA4C08EF0A5C08FF0AE0E0001906F2E
:102C2800000E0001916F09EC00F0B0C0D9FFB1C0EF
:102C3800DAFF000EDF6E1200000E066E000E056E43
:102C480003500410D8B41CD0010E076E04D0D890DD
:102C580003360436072A04AEFAD7D8900536063666
:102C68000350015C04500258D8A005D00350015EFF
:102C78000450025A0580D89004320332072EEDD74B
:102C880005C001F006C002F01200000E0001A66F98
:102C9800000E0001A76FFC0E0001A86F2E0E0001A8
:102CA800A96FA40E0001A46F000E0001A56FA60E67
:102CB80000018C6F000E00018D6FA2C08EF0A3C0C2
:102CC8008FF0A40E0001906F000E0001916F09ECC7
:102CD80000F01200310E0001836FB20EE82EFED70D
:102CE800832FFCD700F0330E9CEC17F0320E9CECCF
:102CF80017F0280E9CEC17F00F0E9CEC17F0060E40
:102D08009CEC17F0010E9CEC17F0310E0001836F5C
:102D1800B20EE82EFED7832FFCD700F012000A501F
:102D28000B10D8B418D0010E0C6E04D0D8900A3607
:102D38000B360C2A0BAEFAD70A50085C0B50095810
:102D4800D8A004D00A50085E0B50095AD8900B320C
:102D58000A320C2EF1D708C008F009C009F0120099
:102D68000001805100018203F3CF84F0F4CF85F095
:102D78000001805100018303F35000018527000101
:102D8800815100018203F3500001852784C080F03F
:102D980085C081F01200000E276E000E286E480EC6
:102DA800296E2F0E2A6E250E256E000E266E270E12
:102DB8000D6E000E0E6E23C00FF024C010F0250E0D
:102DC800116E000E126ECBEC04F0120080C084F07D
:102DD80081C085F006D00001844B852B0001824B11
:102DE800832B82C0D9FF83C0DAFF84C0E1FF85C08E
:102DF800E2FFDFCFE7FFE750D8B41200ECD70001BD
:102E0800816F89EC17F0C58689EC17F0C9CF82F07D
:102E180089EC17F0000181510001D8A402D0C58ABD
:102E280001D0C59AC588000182511200730E0001B5
:102E3800E819D8A41200010E31EC17F0C4500001B3
:102E4800836F826BC350000182250001846F000EDE
:102E5800000183210001856F12000001816F0001CC
:102E68008145E846FC0BC26EC280C28209D0110EB1
:102E78000001806F3A0EE82EFED7802FFCD700F0B5
:102E8800C2A21200F4D70001826F000E0001816F08
:102E98003A0E0001826107D02F0E0001826503D02F
:102EA800010E0001816F81C080F0000180311200A5
:102EB80001500302F3CF05F0F4CF06F001500402ED
:102EC800F350062602500302F350062605C001F00F
:102ED80006C002F01200036E000E026E3A0E036086
:102EE80005D02F0E036402D0010E026E02C001F05D
:102EF8000130120077B2A4EF17F00001826F8C84C2
:102F080000018251DBEC14F01200C7B4FED7C5CF24
:102F180080F01F0E00018017D8B41200F6D7727225
:102F28000100050001000300020001000100030088
:102F38000001826F8C9400018251DBEC14F01200C6
:102F4800036E8C840350CCEC15F01200036E8C9445
:102F58000350CCEC15F0120089EC17F081C0C9FFC2
:102F6800120089EC17F0C584120089EC17F0C580AF
:092F780012000500A00F01020186
:10FED400003132334134353642373839432A3023FE
:10FEE400440001000A006400E80310270100100028
:10FEF400000100100000000001001725643A2530BD
:10FF0400326420656E3A253032642065633A2530C8
:10FF140032642000253032782F253032782F253076
:10FF24003278205055534820544F00253032783AC7
:10FF3400253032783A2530327820202053544152EB
:10FF4400540072756E2074696D653A2025303164F1
:10FF54003A25303264200000656E3A253032642040
:10FF640065633A253032642020202000796E3A25DA
:10FF74003032642079633A25303264202020200016
:10FF8400626F74746C65733A2025303264202020CB
:10FF9400200000303132333435363738396162630A
:10FFA40064656600796E3A253032642079633A25B7
:10FFB40030326400454D455247454E435920535411
:10FFC4004F50006D656E752073656C656374696F61
:10FFD4006E006E6F207061676520666F756E6400D9
:10FFE400696E76616C696400286E756C6C290045D5
:0BFFF40052524F52002573256300009D
:020000040020DA
:08000000FFFFFFFFFFFFFFFF00
:020000040030CA
:0E000000FF021F1EFF8381FF0FC00FE00F40A5
:00000001FF
