:0400000007EF00F016
:100008007682F7ED08F062EF1BF0A2EF04F0250E00
:100018000001A119D8B43CD0000120EE02F08C51A7
:10002800D9268D51DA22DE50DE10D8B41AD000015C
:1000380020EE02F08C51D9268D51DA22DECF92F0D3
:10004800DDCF93F002D8A2EF04F00500FA6E0001AC
:100058009251FD6E9351FE6EFF6AFA500001A15154
:1000680012008CC0D9FF8DC0DAFFDECF92F0DDCF51
:1000780093F092C0D9FF93C0DAFFA1C0DFFF8CC014
:10008800D9FF8DC0DAFFDE2A000EDD22A2EF04F0D0
:10009800000E0001A06F000E9F6F000E00019E6F02
:1000A80005D000019E8500018E4B8F2B8EC0F6FF78
:1000B8008FC0F7FF000EF86E0F0EF76403D008002C
:1000C800F55005D0F6CFE9FFF7CFEAFFEF50300A39
:1000D800D8B4E7D78EC0F6FF8FC0F7FF000EF86ED2
:1000E8000F0EF76403D00800F55005D0F6CFE9FFEE
:1000F800F7CFEAFFEF5074EC1EF0D8A08AD1000EBB
:100108000001A06F000E9F6F9FC080F0A0C081F01B
:10011800000E0001836F0A0E826FF8EC1DF080C09C
:100128009FF081C0A0F0D00E0001926FFF0E000179
:10013800936F8EC0F6FF8FC0F7FF000EF86E0F0E9C
:10014800F76403D00800F55005D0F6CFE9FFF7CFE4
:10015800EAFFEF500001946F956B00019251000186
:100168009427000193510001952300019451000147
:100178009F27000195510001A02300018E4B8F2B72
:100188008EC0F6FF8FC0F7FF000EF86E0F0EF764F3
:1001980003D00800F55005D0F6CFE9FFF7CFEAFF06
:1001A800EF5074EC1EF0D8A034D1AED700019E8F6A
:1001B80063D190C0D9FF91C0DAFFDFCF92F0020E71
:1001C800DE26DFCF93F0000EDD2292C0D9FF93C068
:1001D800DAFFDECF9AF0DDCF9BF000019A510001E3
:1001E8009B11D8A406D0ED0E00019A6FFF0E0001F6
:1001F8009B6F000E0001996F000E986F03D00001ED
:10020800984B992B0001985100019A250001926F93
:100218000001995100019B210001936F92C0F6FFE4
:1002280093C0F7FF000EF86E0F0EF76403D00800B6
:10023800F55005D0F6CFE9FFF7CFEAFFEF500009F8
:10024800D8A4DDD700019F510001985D0001A0519D
:1002580000019959D8B009D00001985100019F5F59
:10026800000199510001A05B3ED0000E0001A06F73
:10027800000E9F6F38D0000120EE02F08C51D92675
:100288008D51DA22DE50DE10D8B418D0000120EEED
:1002980002F08C51D9268D51DA22DECF92F0DDCFD3
:1002A80093F001D820D00500FA6E00019251FD6E3E
:1002B8009351FE6EFF6AFA50200E12008CC0D9FFCF
:1002C8008DC0DAFFDECF92F0DDCF93F092C0D9FF78
:1002D80093C0DAFF200EDF6E8CC0D9FF8DC0DAFF25
:1002E800DE2A000EDD2200019F07D8A0A00700012A
:1002F8009F29C1E10001A029D8B460D0BCD7000172
:1003080020EE02F08C51D9268D51DA22DE50DE1013
:10031800D8B42CD0000120EE02F08C51D9268D5192
:10032800DA22DECF92F0DDCF93F001D81BD00500A2
:10033800FA6E00019251FD6E9351FE6EFF6AFA50FB
:100348009AC0F6FF9BC0F7FF000EF86E0F0EF76419
:1003580003D00800F55005D0F6CFE9FFF7CFEAFF44
:10036800EF50120000019A4B9B2B28D09AC0F6FF41
:100378009BC0F7FF000EF86E8CC0D9FF8DC0DAFF66
:10038800DECF92F0DDCF93F092C0D9FF93C0DAFFB1
:100398000F0EF76403D00800F55005D0F6CFE9FF3B
:1003A800F7CFEAFFEF50DF6E00019A4B9B2B8CC012
:1003B800D9FF8DC0DAFFDE2A000EDD220001980782
:1003C800D8A09907000198299AE100019929D8B481
:1003D800B5D295D790C0D9FF91C0DAFFDFCF92F0A0
:1003E800020EDE26DFCF93F0000EDD2292C0D9FF89
:1003F80093C0DAFFDF500001A16FA10E00019A6FD0
:10040800000E00019B6F000E0001996F010E986F9E
:1004180019D700018E510001926F00018F51000120
:10042800936F00018E4B8F2B92C0F6FF93C0F7FF9E
:10043800000EF86E0F0EF76403D00800F55005D0D3
:10044800F6CFE9FFF7CFEAFFEF500001A16F0001F7
:10045800A151000AD8B495D2630AD8B4BBD7070A09
:10046800D8B40AD00D0AD8B407D01A0AD8B4A1D67D
:100478000B0AD8B49BD6C1D700019EBF20D090C02C
:10048800D9FF91C0DAFFDFCF92F0020EDE26DFCF70
:1004980093F0000EDD2292C0D9FF93C0DAFFDECFC1
:1004A8009CF0DDCF9DF000019DAF60D0030E0001F0
:1004B8009E1300019C6D9D1FD8B09D2B57D090C0F6
:1004C800D9FF91C0DAFFDFCF92F0020EDE26DFCF30
:1004D80093F0000EDD2292C0D9FF93C0DAFFDECF81
:1004E8009CF0DDCF9DF042D0010E0001A16F050EFA
:1004F8000001A119D8B443D00001A151020D680E22
:10050800F324F66EFE0EF420F76EF86A000EF82259
:100518000900F55000019C5D0900F55000019D5946
:10052800D8A02DD00001A12BE2D7010E0001A16FA8
:10053800040E0001A119D8B422D00001A151020D66
:10054800720EF324F66EFE0EF420F76EF86A000EB3
:10055800F8220900F55000019C5D0900F5500001E2
:100568009D59D8A00CD00001A12BE2D700019E51C3
:10057800800B000AD8B4B8D7800AD8B4D6D70001FF
:100588009F510001A011D8B40BD09EC092F0030E69
:1005980000019217D8B404D000019F07D8A0A00783
:1005A800800E0001A1BF7F0E0001926F00019F51D4
:1005B8000001A15D0001A051800A00019259D8B044
:1005C8000BD00001A15100019F5F000E0001A1BFE7
:1005D800FF0E0001A05B05D0000E0001A06F000E09
:1005E8009F6F00019EA582D09EC092F0030E00016D
:1005F8009217D8B438D0000120EE02F08C51D926D9
:100608008D51DA22DE50DE10D8B418D0000120EE69
:1006180002F08C51D9268D51DA22DECF92F0DDCF4F
:1006280093F001D820D00500FA6E00019251FD6EBA
:100638009351FE6EFF6AFA502D0E12008CC0D9FF3E
:100648008DC0DAFFDECF92F0DDCF93F092C0D9FFF4
:1006580093C0DAFF2D0EDF6E8CC0D9FF8DC0DAFF94
:10066800DE2A000EDD2200019F510001A011D8B43E
:10067800C4D0000120EE02F08C51D9268D51DA2227
:10068800DE50DE10D8B418D0000120EE02F08C51F4
:10069800D9268D51DA22DECF92F0DDCF93F001D842
:1006A80020D00500FA6E00019251FD6E9351FE6E46
:1006B800FF6AFA50300E12008CC0D9FF8DC0DAFFE5
:1006C800DECF92F0DDCF93F092C0D9FF93C0DAFF6E
:1006D800300EDF6E8CC0D9FF8DC0DAFFDE2A000E27
:1006E800DD2200019F07D8A0A007BDD700019F51B8
:1006F8000001A011D8B442D0000120EE02F08C51C4
:10070800D9268D51DA22DE50DE10D8B418D0000177
:1007180020EE02F08C51D9268D51DA22DECF92F0EC
:10072800DDCF93F001D820D00500FA6E0001925178
:10073800FD6E9351FE6EFF6AFA50200E12008CC0B7
:10074800D9FF8DC0DAFFDECF92F0DDCF93F092C0F3
:10075800D9FF93C0DAFF200EDF6E8CC0D9FF8DC0A1
:10076800DAFFDE2A000EDD2200019F07D8A0A007CD
:1007780000019F510001A011D8A4BED79EC092F0DD
:10078800030E00019217D8B438D0000120EE02F011
:100798008C51D9268D51DA22DE50DE10D8B418D00B
:1007A800000120EE02F08C51D9268D51DA22DECFDD
:1007B80092F0DDCF93F001D820D00500FA6E000149
:1007C8009251FD6E9351FE6EFF6AFA502D0E120083
:1007D8008CC0D9FF8DC0DAFFDECF92F0DDCF93F069
:1007E80092C0D9FF93C0DAFF2D0EDF6E8CC0D9FFFF
:1007F8008DC0DAFFDE2A000EDD22A1C097F098D066
:1008080000019751020D680EF324F66EFE0EF420D7
:10081800F76EF86A000EF8220900F5CF82F00A0098
:10082800F5CF83F09CC080F09DC081F0ABEC1BF04D
:1008380080C087F081C088F0000E00018A6F0A0E20
:10084800896F53EC1CF000018751300F0001A16F34
:1008580036D09CC080F09DC081F000019751020DF8
:10086800720EF324F66EFE0EF420F76EF86A000E90
:10087800F8220900F5CF82F00A00F5CF83F0ABEC3F
:100888001BF0000180510F0B0001966F000196517B
:10089800010D510EF324F66EFF0EF420F76EF86A80
:1008A800000EF8220800F5CFA1F009D000019E51F2
:1008B800800B000AD8B4A4D7800AD8B4CAD70001DC
:1008C80020EE02F08C51D9268D51DA22DE50DE104E
:1008D800D8B419D0000120EE02F08C51D9268D51E0
:1008E800DA22DECF92F0DDCF93F001D821D00500D7
:1008F800FA6E00019251FD6E9351FE6EFF6AFA5036
:100908000001A15112008CC0D9FF8DC0DAFFDECFE3
:1009180092F0DDCF93F092C0D9FF93C0DAFFA1C067
:10092800DFFF8CC0D9FF8DC0DAFFDE2A000EDD2282
:100938000001970700019729D8A4B8D700018E5164
:100948000001926F00018F510001936F00018E4BDF
:100958008F2B92C0F6FF93C0F7FF000EF86E0F0EB4
:10096800F76403D00800F55005D0F6CFE9FFF7CFBC
:10097800EAFFEF500001A16F0001A151D8A40BEFCD
:1009880000F0000E00018D6F000E8C6F1200D6EF84
:1009980008F0250E2218D8B436D020EE02F00D50FB
:1009A800D9260E50DA22DE50DE10D8B416D020EE4A
:1009B80002F00D50D9260E50DA22DECF13F0DDCF2B
:1009C80014F001D8EFD30500FA6E1350FD6E1450E1
:1009D800FE6EFF6AFA50225012000DC0D9FF0EC0F9
:1009E800DAFFDECF13F0DDCF14F013C0D9FF14C047
:1009F800DAFF22C0DFFF0DC0D9FF0EC0DAFFDE2A02
:100A0800000EDD22CFD3000E216E000E206E000EE8
:100A18001F6E03D01F840F4A102A0FC0F6FF10C0A4
:100A2800F7FF000EF86E0F0EF76403D00800F550BC
:100A380005D0F6CFE9FFF7CFEAFFEF50300AD8B478
:100A4800E9D70FC0F6FF10C0F7FF000EF86E0F0EC3
:100A5800F76403D00800F55005D0F6CFE9FFF7CFCB
:100A6800EAFFEF509CEC1EF0D8A054D1000E216E86
:100A7800000E206E20C001F021C002F0000E046EAE
:100A88000A0E036E89EC1EF001C020F002C021F0AE
:100A9800D00E136EFF0E146E0FC0F6FF10C0F7FFD6
:100AA800000EF86E0F0EF76403D00800F55005D05D
:100AB800F6CFE9FFF7CFEAFFEF50156E166A13502D
:100AC80015261450162215502026165021220F4A9A
:100AD800102A0FC0F6FF10C0F7FF000EF86E0F0EB9
:100AE800F76403D00800F55005D0F6CFE9FFF7CF3B
:100AF800EAFFEF509CEC1EF0D8A00CD1BBD71F8E9C
:100B080035D111C0D9FF12C0DAFFDFCF13F0020EC2
:100B1800DE26DFCF14F0000EDD2213C0D9FF14C08B
:100B2800DAFFDECF1BF0DDCF1CF01B501C10D8A461
:100B380004D0ED0E1B6EFF0E1C6E000E1A6E000E1A
:100B4800196E02D0194A1A2A19501B24136E1A500A
:100B58001C20146E13C0F6FF14C0F7FF000EF86EC9
:100B68000F0EF76403D00800F55005D0F6CFE9FF63
:100B7800F7CFEAFFEF500009D8A4E4D72050195C5A
:100B880021501A58D8B005D01950205E1A50215A51
:100B98003AD0000E216E000E206E35D020EE02F005
:100BA8000D50D9260E50DA22DE50DE10D8B416D0F9
:100BB80020EE02F00D50D9260E50DA22DECF13F0C7
:100BC800DDCF14F001D81FD00500FA6E1350FD6E6A
:100BD8001450FE6EFF6AFA50200E12000DC0D9FFA5
:100BE8000EC0DAFFDECF13F0DDCF14F013C0D9FF4B
:100BF80014C0DAFF200EDF6E0DC0D9FF0EC0DAFF79
:100C0800DE2A000EDD222006D8A021062028C6E113
:100C18002128D8B45BD0C2D720EE02F00D50D926D7
:100C28000E50DA22DE50DE10D8B429D020EE02F0C1
:100C38000D50D9260E50DA22DECF13F0DDCF14F096
:100C480001D81AD00500FA6E1350FD6E1450FE6ECE
:100C5800FF6AFA501BC0F6FF1CC0F7FF000EF86EC3
:100C68000F0EF76403D00800F55005D0F6CFE9FF62
:100C7800F7CFEAFFEF5012001B4A1C2A27D01BC0EF
:100C8800F6FF1CC0F7FF000EF86E0DC0D9FF0EC0AE
:100C9800DAFFDECF13F0DDCF14F013C0D9FF14C094
:100CA800DAFF0F0EF76403D00800F55005D0F6CF31
:100CB800E9FFF7CFEAFFEF50DF6E1B4A1C2A0DC091
:100CC800D9FF0EC0DAFFDE2A000EDD221906D8A0F1
:100CD8001A061928A1E11A28D8B464D29DD711C0E0
:100CE800D9FF12C0DAFFDFCF13F0020EDE26DFCF06
:100CF80014F0000EDD2213C0D9FF14C0DAFFDF5054
:100D0800226E220E1B6E000E1C6E000E1A6E010E55
:100D1800196E34D70F50136E1050146E0F4A102AE4
:100D280013C0F6FF14C0F7FF000EF86E0F0EF7643D
:100D380003D00800F55005D0F6CFE9FFF7CFEAFF5A
:100D4800EF50226E2250000AD8B448D2630AD8B4B1
:100D5800C6D7070AD8B40AD00D0AD8B407D01A0AD9
:100D6800D8B4CFD60B0AD8B4CAD6CBD71FBE1DD09D
:100D780011C0D9FF12C0DAFFDFCF13F0020EDE2652
:100D8800DFCF14F0000EDD2213C0D9FF14C0DAFF44
:100D9800DECF1DF0DDCF1EF01EAE52D0030E1F12A7
:100DA8001D6C1E1ED8B01E2A4BD011C0D9FF12C010
:100DB800DAFFDFCF13F0020EDE26DFCF14F0000ECD
:100DC800DD2213C0D9FF14C0DAFFDECF1DF0DDCF5E
:100DD8001EF036D0010E226E050E2218D8B438D077
:100DE8002250020D680EF324F66EFE0EF420F76E04
:100DF800F86A000EF8220900F5501D5C0900F5504C
:100E08001E58D8A025D0222AE7D7010E226E040E3C
:100E18002218D8B41DD02250020D720EF324F66E9B
:100E2800FE0EF420F76EF86A000EF8220900F5505D
:100E38001D5C0900F5501E58D8A00AD0222AE7D711
:100E48001F50800B000AD8B4C5D7800AD8B4DDD7A4
:100E580020502110D8B409D01FC013F0030E131668
:100E6800D8B403D02006D8A02106800E22BE7F0E5B
:100E7800136E2050225C2150800A1358D8B007D036
:100E88002250205E000E22BEFF0E215A04D0000E12
:100E9800216E000E206E1FA478D01FC013F0030E21
:100EA8001316D8B435D020EE02F00D50D9260E50C6
:100EB800DA22DE50DE10D8B416D020EE02F00D5043
:100EC800D9260E50DA22DECF13F0DDCF14F001D888
:100ED8001FD00500FA6E1350FD6E1450FE6EFF6AA7
:100EE800FA502D0E12000DC0D9FF0EC0DAFFDECF6A
:100EF80013F0DDCF14F013C0D9FF14C0DAFF2D0EA4
:100F0800DF6E0DC0D9FF0EC0DAFFDE2A000EDD222B
:100F180020502110D8B4B4D020EE02F00D50D926BC
:100F28000E50DA22DE50DE10D8B416D020EE02F0D1
:100F38000D50D9260E50DA22DECF13F0DDCF14F093
:100F480001D81FD00500FA6E1350FD6E1450FE6EC6
:100F5800FF6AFA50300E12000DC0D9FF0EC0DAFF3A
:100F6800DECF13F0DDCF14F013C0D9FF14C0DAFFC1
:100F7800300EDF6E0DC0D9FF0EC0DAFFDE2A000E7C
:100F8800DD222006D8A02106C3D720502110D8B4CE
:100F98003CD020EE02F00D50D9260E50DA22DE5059
:100FA800DE10D8B416D020EE02F00D50D9260E501F
:100FB800DA22DECF13F0DDCF14F001D81FD0050000
:100FC800FA6E1350FD6E1450FE6EFF6AFA50200E32
:100FD80012000DC0D9FF0EC0DAFFDECF13F0DDCF4F
:100FE80014F013C0D9FF14C0DAFF200EDF6E0DC055
:100FF800D9FF0EC0DAFFDE2A000EDD222006D8A0B7
:10100800210620502110D8A4C4D71FC013F0030E06
:101018001316D8B435D020EE02F00D50D9260E5054
:10102800DA22DE50DE10D8B416D020EE02F00D50D1
:10103800D9260E50DA22DECF13F0DDCF14F001D816
:101048001FD00500FA6E1350FD6E1450FE6EFF6A35
:10105800FA502D0E12000DC0D9FF0EC0DAFFDECFF8
:1010680013F0DDCF14F013C0D9FF14C0DAFF2D0E32
:10107800DF6E0DC0D9FF0EC0DAFFDE2A000EDD22BA
:1010880022C018F08BD01850020D680EF324F66EAB
:10109800FE0EF420F76EF86A000EF8220900F5CF6C
:1010A80003F00A00F5CF04F01DC001F01EC002F0E5
:1010B80064EC1DF001C008F002C009F0000E0B6ED0
:1010C8000A0E0A6ED7EC1DF00850300F226E31D090
:1010D8001DC001F01EC002F01850020D720EF3245C
:1010E800F66EFE0EF420F76EF86A000EF82209007C
:1010F800F5CF03F00A00F5CF04F064EC1DF00150C1
:101108000F0B176E1750010D510EF324F66EFF0EDC
:10111800F420F76EF86A000EF8220800F5CF22F0E6
:1011280008D01F50800B000AD8B4ADD7800AD8B4B5
:10113800CFD720EE02F00D50D9260E50DA22DE501D
:10114800DE10D8B416D020EE02F00D50D9260E507D
:10115800DA22DECF13F0DDCF14F001D81FD005005E
:10116800FA6E1350FD6E1450FE6EFF6AFA5022504C
:1011780012000DC0D9FF0EC0DAFFDECF13F0DDCFAD
:1011880014F013C0D9FF14C0DAFF22C0DFFF0DC06E
:10119800D9FF0EC0DAFFDE2A000EDD221806182855
:1011A800D8A4BFD70F50136E1050146E0F4A102AD0
:1011B80013C0F6FF14C0F7FF000EF86E0F0EF764A9
:1011C80003D00800F55005D0F6CFE9FFF7CFEAFFC6
:1011D800EF50226E2250D8A4CDEF04F0000E0E6E10
:1011E800000E0D6E12000600FACF2DF0FBCF2EF088
:1011F800E9CF2FF0EACF30F0E1CF31F0E2CF32F093
:10120800D9CF33F0DACF34F0F3CF35F0F4CF36F06E
:10121800F6CF37F0F7CF38F0F8CF39F0F5CF3AF00E
:10122800F0A0E9D281380F0B0F0B3D6ECED2000E25
:101238003C6E000E3B6E3CBE06D03C501DE1070ED6
:101248003B5CD8B019D0D8903B34D96E3C34DA6EB8
:101258003E0ED926000EDA22D8903B34E16E3C349B
:10126800E26E0E0EE126010EE222DECFE6FFDDCFB2
:10127800E5FF3B4A3C2ADFD73D50010D570EF324CA
:10128800F66EFE0EF420F76EF86A000EF8220800DB
:10129800F550420AD8A412D00001F5510001F35DBF
:1012A8000001F451800A2B6E0001F651800A2B5878
:1012B800D8B004D00001F34BF42B9CD23D50010D63
:1012C800570EF324F66EFE0EF420F76EF86A000E41
:1012D800F8220800F550410AD8A410D00001F4BF44
:1012E8000DD00001F45105E1020E0001F35DD8A014
:1012F80005D00001F307D8A0F4077CD23D50010DBA
:10130800570EF324F66EFE0EF420F76EF86A000E00
:10131800F8220800F550430AD8B41DD06BD2730EDA
:101328004AD26C0E48D2630E46D2800EDCEC1EF018
:10133800E50E236EFF0E246E13EC1EF0C00EDCECDF
:101348001EF0A20E236EFF0E246E13EC1EF0900EFC
:10135800DCEC1EF04FD2F3C02BF0F4C02CF02C5074
:10136800000AD8A4E2D72B50010AD8B4D8D7030A68
:10137800D8B4D7D7010AD8B4D6D7D7D7000E3C6E81
:10138800000E3B6E3CBE06D03C501DE1070E3B5C98
:10139800D8B019D0D8903B34D96E3C34DA6E3E0EB2
:1013A800D926000EDA22D8903B34E16E3C34E26E46
:1013B8000E0EE126010EE222DECFE6FFDDCFE5FFCD
:1013C8003B4A3C2ADFD73D50010D570EF324F66EF9
:1013D800FE0EF420F76EF86A000EF8220800F550A9
:1013E800420AD8A412D00001EF510001F15D0001BA
:1013F800F251800A2B6E0001F051800A2B58D8B0A8
:1014080004D00001F14BF22BF5D13D50010D570EE0
:10141800F324F66EFE0EF420F76EF86A000EF8223A
:101428000800F550410AD8A477D00001F2BF74D063
:101438000001F25105E1020E0001F15DD8A06CD067
:101448000001F107D8A0F207D5D1000E3C6E000EBE
:101458003B6E3CBE06D03C501DE1070E3B5CD8B04D
:1014680019D0D8903B34D96E3C34DA6E3E0ED9266A
:10147800000EDA22D8903B34E16E3C34E26E0E0E58
:10148800E126010EE222DECFE6FFDDCFE5FF3B4A93
:101498003C2ADFD73D50010D570EF324F66EFE0EA1
:1014A800F420F76EF86A000EF8220800F550420A98
:1014B800D8A412D00001E9510001E75D0001E8510C
:1014C800800A2B6E0001EA51800A2B58D8B004D04C
:1014D8000001E74BE82B8ED13D50010D570EF32448
:1014E800F66EFE0EF420F76EF86A000EF822080079
:1014F800F550410AD8A410D00001E8BF0DD0000172
:10150800E85105E1020E0001E75DD8A005D0000111
:10151800E707D8A0E8076ED13D50010D570EF32418
:10152800F66EFE0EF420F76EF86A000EF822080038
:10153800F550440AD8A45ED16D0E3DD13D50010D41
:10154800570EF324F66EFE0EF420F76EF86A000EBE
:10155800F8220800F550310AD8A412D00001C94B6E
:10156800CA2BC9C001F0CAC002F0000E046E640E96
:10157800036EE7EC1BF001C0C9F002C0CAF03AD113
:101588003D50010D570EF324F66EFE0EF420F76E53
:10159800F86A000EF8220800F550320AD8A412D0D2
:1015A8000001CB4BCC2BCBC001F0CCC002F0000E1D
:1015B800046E640E036EE7EC1BF001C0CBF002C0B2
:1015C800CCF018D13D50010D570EF324F66EFE0EE7
:1015D800F420F76EF86A000EF8220800F550340A75
:1015E800D8A412D00001D74BD82BD7C001F0D8C04F
:1015F80002F0000E046E640E036EE7EC1BF001C0EF
:10160800D7F002C0D8F0F6D03D50010D570EF324A4
:10161800F66EFE0EF420F76EF86A000EF822080047
:10162800F550350AD8A412D00001D94BDA2BD9C00D
:1016380001F0DAC002F0000E046E640E036EE7ECEF
:101648001BF001C0D9F002C0DAF0D4D03D50010D32
:10165800570EF324F66EFE0EF420F76EF86A000EAD
:10166800F8220800F550370AD8B410D03D50010DC3
:10167800570EF324F66EFE0EF420F76EF86A000E8D
:10168800F8220800F550380AD8A402D0650E93D085
:101698003D50010D570EF324F66EFE0EF420F76E42
:1016A800F86A000EF8220800F550420AD8A410D0B3
:1016B8006C500001E35D0001E451800A2B6E6D500F
:1016C800800A2B58D8B004D00001E34BE42B92D009
:1016D8003D50010D570EF324F66EFE0EF420F76E02
:1016E800F86A000EF8220800F550410AD8A482D002
:1016F8000001E4BF7FD00001E45105E1020E0001C2
:10170800E35DD8A077D00001E307D8A0E40772D042
:101718003D50010D570EF324F66EFE0EF420F76EC1
:10172800F86A000EF8220800F550420AD8A412D030
:101738000001ED510001EB5D0001EC51800A2B6EB8
:101748000001EE51800A2B58D8B004D00001EB4BB1
:10175800EC2B50D03D50010D570EF324F66EFE0EC3
:10176800F420F76EF86A000EF8220800F550410AD6
:10177800D8A410D00001ECBF0DD00001EC5105E158
:10178800020E0001EB5DD8A005D00001EB07D8A040
:10179800EC0730D03D50010D570EF324F66EFE0EC7
:1017A800F420F76EF86A000EF8220800F550430A94
:1017B800D8A420D0720E0001E56F1CD0BF0E236E96
:1017C800FF0E246E13EC1EF015D00001E651630ADB
:1017D800D8B43BD6060AD8B49BD7090AD8B4CED514
:1017E800010AD8B424D51F0AD8B4A6D6010AD8B499
:1017F800A5D6E4D7F0903AC0F5FF39C0F8FF38C055
:10180800F7FF37C0F6FF36C0F4FF35C0F3FF34C02A
:10181800DAFF33C0D9FF32C0E2FF31C0E1FF30C088
:10182800EAFF2FC0E9FF2EC0FBFF2DC0FAFF76921A
:101838001100000E0101796F000E786F49D0000E7B
:1018480001017D6F010E7C6FF10E0101806F000EAA
:101858000101816FEF0E01017A6F000E36D0000E84
:1018680001017D6F020E7C6FE70E0101806F000E93
:101878000101816FE90E01017A6F000E26D0000E7A
:1018880001017D6F000E7C6FF30E0101806F000E69
:101898000101816FF50E01017A6F000E01017B6F66
:1018A800000E0101796F010E786F1FD0000E010143
:1018B8007D6F030E7C6FEB0E0101806F000E01013E
:1018C800816FED0E01017A6F000E01017B6F0DD063
:1018D8000001E651630AD8B4C2D7060AD8B4E6D7DD
:1018E800090AD8B4ACD7010ACAD701017851010155
:1018F8007911D8B44AD17AC1D9FF7BC1DAFF80C146
:10190800E1FF81C1E2FFDE50E65CE650800A00019B
:10191800B86FDE50800A0001B859D8B096D07CC1A3
:1019280080F07DC181F0000E0001836FB40E826FDC
:10193800F8EC1DF0820E0001B46F010E0001B56FC6
:10194800000180510001B427000181510001B52335
:1019580080C1D9FF81C1DAFFDECFB6F0DDCFB7F0A5
:10196800FF0E0001B6250001806FFF0E0001B721B0
:101978000001816F000E0001836F120E826FF8EC78
:101988001DF0000180510001B42501017E6F0001A6
:1019980081510001B52101017F6F540E0001A26F32
:1019A800010E0001A36FFA0E0001A46FFF0E0001E3
:1019B800A56F7EC1A6F07FC1A7F0000E0001A96F38
:1019C8003C0EA86F3BEC1DF07CC180F07DC181F01E
:1019D800000E0001836FB40E826FF8EC1DF0820ECA
:1019E8000001B46F010E0001B56F000180510001C4
:1019F800B427000181510001B52380C1D9FF81C1FD
:101A0800DAFFDECF80F0DDCF81F0000E0001836FBA
:101A1800120E826FF8EC1DF0000180510001B42510
:101A280001017E6F000181510001B52101017F6F25
:101A3800660E0001A26F010E0001A36F7EC1A4F023
:101A48007FC1A5F03BEC1DF012007CC180F07DC188
:101A580081F0000E0001836FB40E826FF8EC1DF068
:101A6800820E0001B46F010E0001B56F00018051B4
:101A78000001B427000181510001B52380C1D9FFBD
:101A880081C1DAFFDECFB6F0DDCFB7F0FE0E000180
:101A9800B6250001806FFF0E0001B7210001816F9C
:101AA800000E0001836F120E826FF8EC1DF000012A
:101AB80080510001B42501017E6F000181510001B0
:101AC800B52101017F6F540E0001A26F010E0001C4
:101AD800A36F7EC1A4F07FC1A5F03BEC1DF07CC1D3
:101AE80080F07DC181F0000E0001836FB40E826F1B
:101AF800F8EC1DF0820E0001B46F010E0001B56F05
:101B0800000180510001B427000181510001B52373
:101B180080C1D9FF81C1DAFFDECFB6F0DDCFB7F0E3
:101B2800FF0E0001B6250001806FFF0E0001B721EE
:101B38000001816F000E0001836F120E826FF8ECB6
:101B48001DF0000180510001B42501017E6F0001E4
:101B580081510001B52101017F6F660E0001A26F5E
:101B6800010E0001A36FFA0E0001A46FFF0E000121
:101B7800A56F7EC1A6F07FC1A7F0000E0001A96F76
:101B88003C0EA86F3BEC1DF012007CC180F07DC1BB
:101B980081F0000E0001836FB40E826FF8EC1DF027
:101BA800820E0001B46F010E0001B56F0001805173
:101BB8000001B427000181510001B52380C1D9FF7C
:101BC80081C1DAFFDECFB6F0DDCFB7F0FF0E00013E
:101BD800B6250001806FFF0E0001B7210001816F5B
:101BE800000E0001836F120E826FF8EC1DF00001E9
:101BF80080510001B42501017E6F0001815100016F
:101C0800B52101017F6F540E0001A26F010E000182
:101C1800A36FFA0E0001A46FFF0E0001A56F7EC12D
:101C2800A6F07FC1A7F0000E0001A96F5E0EA86F95
:101C38003BEC1DF07CC180F07DC181F0000E0001FD
:101C4800836FB40E826FF8EC1DF0820E0001B46F42
:101C5800010E0001B56F000180510001B427000199
:101C680081510001B52380C1D9FF81C1DAFFDECFE0
:101C780080F0DDCF81F0000E0001836F120E826FBD
:101C8800F8EC1DF0000180510001B42501017E6FC0
:101C9800000181510001B52101017F6F660E00012D
:101CA800A26F010E0001A36FFA0E0001A46FFF0ED0
:101CB8000001A56F7EC1A6F07FC1A7F0000E00014C
:101CC800A96F5E0EA86F3BEC1DF01200000E00011C
:101CD800936F000E926F000E00018A6F040E0001D0
:101CE8008A6501D012D000018A51020D560EF324E4
:101CF800D96E000EF420DA6EDE5000019227DD5016
:101D08000001932300018A2BE9D792C080F093C089
:101D180081F0000E0001836F050E826F11EC1BF03D
:101D28000001805100018111D8B406D0000E0001D5
:101D3800876F000E866F1200000E00018B6F040E75
:101D480000018B6501D012D000018B51020D600E8D
:101D5800F324D96E000EF420DA6EDE5000019227CB
:101D6800DD500001932300018B2BE9D792C080F04E
:101D780093C081F0000E0001836F050E826F11EC95
:101D88001BF00001805100018111D8B406D0000E6B
:101D98000001876F000E866F1200000E00018C6F25
:101DA800040E00018C6501D01BD000018C51020D7E
:101DB8001C0EF324D96E010EF420DA6E0001DD51F9
:101DC800DE5C0001DE51DE58D8B002D0010E01D031
:101DD800000E00019227000E932300018C2BE0D700
:101DE80092C080F093C081F0000E0001836F050E51
:101DF800826F11EC1BF00001805100018111D8B4F1
:101E080006D0000E0001876F000E866F1200000ECC
:101E180000018D6F040E00018D6501D01BD00001FB
:101E28008D51020D1C0EF324D96E010EF420DA6ECA
:101E38000001DB51DE5C0001DC51DE58D8B002D075
:101E4800010E01D0000E00019227000E932300011D
:101E58008D2BE0D792C080F093C081F0000E000176
:101E6800836F050E826F11EC1BF000018051000199
:101E78008111D8B406D0000E0001876F000E866F5E
:101E88001200000E00018E6F040E00018E6501D055
:101E98001BD000018E51020D4C0EF324D96E000E9A
:101EA800F420DA6E0001E151DE5C0001E251DE58F7
:101EB800D8B002D0010E01D0000E00019227000E0A
:101EC800932300018E2BE0D792C080F093C081F05D
:101ED800000E0001836F050E826F11EC1BF00001EC
:101EE800805100018111D8B406D0000E0001876F1F
:101EF800000E866F1200000E00018F6F040E0001A5
:101F08008F6501D01BD000018F51020D4C0EF324B8
:101F1800D96E000EF420DA6E0001DF51DE5C00019C
:101F2800E051DE58D8B002D0010E01D0000E0001F9
:101F38009227000E932300018F2BE0D792C080F0E8
:101F480093C081F0000E0001836F050E826F11ECC3
:101F58001BF00001805100018111D8B406D0000E99
:101F68000001876F000E866F1200000E0001906F4F
:101F7800040E0001906501D01BD000019051020DA4
:101F8800260EF324D96E010EF420DA6E0001E15119
:101F9800DE5C0001E251DE58D8B002D0010E01D05B
:101FA800000E00019227000E93230001902BE0D72A
:101FB80092C080F093C081F0000E0001836F050E7F
:101FC800826F11EC1BF00001805100018111D8B41F
:101FD80006D0000E0001876F000E866F1200000EFB
:101FE8000001916F040E0001916501D01BD0000122
:101FF8009151020D4C0EF324D96E000EF420DA6EC6
:102008000001DF51DE5C0001E051DE58D8B002D09B
:10201800010E01D0000E00019227000E932300014B
:10202800912BE0D792C080F093C081F0000E0001A0
:10203800836F050E826F11EC1BF0000180510001C7
:102048008111D8B406D0000E0001876F000E866F8C
:102058001200000E0001936F020E926F01011C51D5
:102068000001DB5D01011D510001DC59D8B006D02B
:10207800000E0001876F000E866F120001011C51CF
:102088000001DD5D01011D510001DE59D8B005D008
:1020980060500001925F615004D056500001925F79
:1020A80057500001935B4C500001DF5D4D5000011B
:1020B800E059D8A028D0010126510001DF5D0101B7
:1020C80027510001E059D8A01ED00001E1514C5C15
:1020D8000001E2514D58D8B010D00001E151010182
:1020E800265D0001E25101012759D8B006D0020E41
:1020F80000019227000E932306D0000E0001876F7F
:10210800000E866F120092C086F093C087F012000E
:102118000001C8BF0AD00001C85105E1330E000113
:10212800C75DD8A002D089861ED00001C8BF0AD0DA
:102138000001C85105E11A0E0001C75DD8A002D000
:10214800899611D00001C8BF0ED00001C85104E122
:102158000001C705D8A007D089880001C70500017C
:10216800C811D8B48998605056240001946F615002
:1021780057200001956F0001945100019511D8B4C2
:1021880043D00001CD510001CE11D8A43DD00001AB
:10219800D0BF08D00001D05137E11A0E0001CF5D41
:1021A800D8B032D072C0CDF073C0CEF0000E0001AE
:1021B800996F000E986F000199BF08D000019951DE
:1021C80023E1070E0001985DD8B01ED0D890000119
:1021D8009835D96E00019935DA6E3E0ED926000E73
:1021E800DA22D89000019835E16E00019935E26E47
:1021F800000EE126010EE222DECFE6FFDDCFE5FF8D
:102208000001984B992BD7D70001CD050001CE11BD
:10221800D8A441D06AEC0EF086C0C1F087C0C2F0E5
:102228000001C1510001C211D8B432D00001CF5110
:102238000001D011D8A42CD074C0CFF075C0D0F054
:102248000001C1050001C211D8A403D00001C94B87
:10225800CA2B020E0001C1190001C211D8A403D073
:102268000001CB4BCC2B030E0001C1190001C21198
:10227800D8A403D00001D74BD82B040E0001C119F4
:102288000001C211D8A407D00001D94BDA2B03D022
:102298000001CD4BCE2B190E0001CF190001D01132
:1022A800D8A405D0F7C0C7F0F8C0C8F0D1D0000155
:1022B800D0BF29D00001D05105E1580E0001CF5DF3
:1022C800D8A021D0FF0E0001C1250001806FFF0EAC
:1022D8000001C2210001816F000E0001836F030E0F
:1022E800826F11EC1BF0010E0001946F0001802B2E
:1022F80003D00001D89094370001802FFAD700014D
:1023080094518B12A5D00001D0BF2BD00001D05121
:1023180005E14C0E0001CF5DD8A023D0FF0E0001CF
:10232800C1250001806FFF0E0001C2210001816FED
:10233800000E0001836F030E826F11EC1BF0010E7B
:102348000001946F0001802B03D00001D8909437CE
:102358000001802FFAD700019451FF0A8B168C8058
:1023680077D00001D0BF0BD00001D05105E13F0E5E
:102378000001CF5DD8A003D08C908B8A69D0000172
:10238800D0BF0AD00001D05105E1330E0001CF5D66
:10239800D8A002D08B9A5CD00001D0BF08D0000131
:1023A800D05156E11A0E0001CF5DD8B051D00001CE
:1023B800D0BF4ED00001D05104E10001CF05D8A014
:1023C80047D0FF0E0001C1250001806FFF0E0001FC
:1023D800C2210001816F000E0001836F030E826F1E
:1023E80011EC1BF0010E0001946F0001802B03D04B
:1023F8000001D89094370001802FFAD7000194513A
:102408008D120001CF050001D011D8A421D0FF0EF4
:102418000001C1250001806FFF0E0001C2210001EB
:10242800816F000E0001836F030E826F11EC1BF0A9
:10243800010E0001946F0001802B03D00001D89099
:1024480094370001802FFAD700019451FF0A8D16A6
:102458000001C8BF0BD00001C85104E10001C70545
:10246800D8A004D00001C707D8A0C8070001CEBF74
:102478000BD00001CE5104E10001CD05D8A004D055
:102488000001CD07D8A0CE070001D0BF0BD00001B6
:10249800D05104E10001CF05D8A004D00001CF0736
:1024A800D8A0D00700C194F001C195F00001941F95
:1024B800951F944B952B40C080F041C081F0000ED1
:1024C8000001836F3C0E826FF8EC1DF080C096F01F
:1024D80081C097F002C180F003C181F0000E0001B5
:1024E800836F3C0E826FF8EC1DF00001801F000125
:1024F800811F0001804B812B00018051000196272C
:102508000001815100019723000194510001962791
:1025180000019551000197233E50000196273F5036
:1025280000019723000197BF12000001975105E1B0
:102538000F0E0001965DD8A01200650E0001E56F30
:1025480012008AD1540E0001A26F010E0001A36F80
:102558009A0E0001A46FFE0E0001A56FC0C0A6F080
:102568000001A76BBFC0A8F00001A96BBEC0AAF00C
:102578000001AB6B3BEC1DF0660E0001A26F010E73
:102588000001A36FB10E0001A46FFE0E0001A56F3C
:10259800BCC0A6F00001A76BBBC0A8F00001A96BE6
:1025A800BAC0AAF00001AB6B3BEC1DF012001DECA9
:1025B8000CF012000001E3050001E411D8A44BD08F
:1025C800540E0001A26F010E0001A36F810E0001DD
:1025D800A46FFE0E0001A56FD5C080F0D6C081F0B3
:1025E800000E0001836F3C0E826FFEEC19F080C074
:1025F800A6F081C0A7F0D5C080F0D6C081F0000E4B
:102608000001836F3C0E826F11EC1BF080C0A8F0B4
:1026180081C0A9F0C9C0AAF0CAC0ABF0CBC0ACF069
:10262800CCC0ADF03BEC1DF0660E0001A26F010EB0
:102638000001A36F830E0001A46FFF0E0001A56FB8
:10264800D7C0A6F0D8C0A7F0D9C0A8F0DAC0A9F0C2
:102658003BEC1DF01200020E0001E3190001E41129
:10266800D8A42FD0540E0001A26F010E0001A36F51
:10267800CD0E0001A46FFF0E0001A56FCFC0A6F01C
:10268800D0C0A7F0CDC0A8F0CEC0A9F03BEC1DF09B
:10269800660E0001A26F010E0001A36FB10E0001CA
:1026A800A46FFF0E0001A56FC7C0A6F0C8C0A7F0B1
:1026B8006AEC0EF086C0A8F087C0A9F03BEC1DF0CC
:1026C8001200030E0001E3190001E411D8A437D069
:1026D800540E0001A26F010E0001A36F620E0001EB
:1026E800A46FFF0E0001A56F56C0A6F057C0A7F053
:1026F80058C0A8F059C0A9F05AC0AAF05BC0ABF006
:102708003BEC1DF0660E0001A26F010E0001A36FE5
:10271800190E0001A46FFF0E0001A56F60C0A6F09E
:1027280061C0A7F062C0A8F063C0A9F06AEC0EF01F
:1027380086C0AAF087C0ABF03BEC1DF01200040E77
:102748000001E3190001E411D8A42BD0540E0001B4
:10275800A26F010E0001A36FD90E0001A46FFF0E36
:102768000001A56F4CC0A6F04DC0A7F03BEC1DF0D2
:10277800660E0001A26F010E0001A36F730E000127
:10278800A46FFF0E0001A56F26C1A6F027C1A7F010
:102798006AEC0EF086C0A8F087C0A9F03BEC1DF0EB
:1027A8001200050E0001E3190001E411D8A412007B
:1027B800540E0001A26F010E0001A36F2C0E000140
:1027C800A46FFF0E0001A56F56C0A6F057C0A7F072
:1027D80060C0A8F061C0A9F04CC0AAF04DC0ABF031
:1027E80026C1ACF027C1ADF03BEC1DF0660E000130
:1027F800A26F010E0001A36F3F0E0001A46FFF0E30
:102808000001A56F1CC1A6F01DC1A7F06AEC0EF06F
:1028180086C0A8F087C0A9F03BEC1DF01200540E4A
:102828000001A26F010E0001A36FF40E0001A46F56
:10283800FF0E0001A56F3BEC1DF0660E0001A26FB4
:10284800010E0001A36F930E0001A46FFF0E00019B
:10285800A56F3BEC1DF012000001E651630AD8B4E5
:10286800A6D6060AD8B4A3D6090AD8B4A0D6010AAF
:10287800D8B49DD61F0AD8B465D6010AD8B49AD65A
:10288800CED7730E0001E519D8A405D0730E000148
:10289800E619D8A40AD06D0E0001E519D8A44BD0CA
:1028A8006D0E0001E619D8B446D0000E0001B66FCF
:1028B800060E0001B66501D03ED00001B651020DEA
:1028C8003E0EF324D96E000EF420DA6E0001B651E4
:1028D800020D0E0EF324E16E010EF420E26EDECF3F
:1028E800E6FFDDCFE5FF0001B651020D3E0EF324F1
:1028F800D96E000EF420DA6E0001B651020D000EFA
:10290800F324E16E010EF420E26EDECFE6FFDDCFA8
:10291800E5FF000E0001C86F4B0EC76F000E0001E7
:10292800CE6F000ECD6F000E0001D06F000ECF6F7E
:102938000001B62BBDD70001CB510001C92500010C
:10294800B46F0001CC510001CA210001B56F00012C
:10295800D7510001B4270001D8510001B523000167
:10296800D9510001B4250001D36F0001DA510001EB
:10297800B5210001D46FD3C080F0D4C081F0000E1F
:102988000001836F640E826F11EC1BF080C0D3F0DE
:1029980081C0D4F0730E0001E619D8A40ED000014E
:1029A800D6BF0BD00001D65105E1B40E0001D55DAC
:1029B800D8A003D0650E0001E56F650E0001E5198A
:1029C800D8A473D0650E0001E619D8B46ED0D5C06E
:1029D800D1F0D6C0D2F09E0E0001A26F030E000106
:1029E800A36F060E0001A46FFF0E0001A56FD3C0F0
:1029F800A6F0D4C0A7F03BEC1DF0B00E0001A26F0A
:102A0800030E0001A36FC80E0001A46FFE0E0001A3
:102A1800A56FD1C080F0D2C081F0000E0001836F95
:102A28003C0E826FFEEC19F080C0A6F081C0A7F0C2
:102A3800D5C080F0D6C081F0000E0001836F3C0E37
:102A4800826F11EC1BF080C0A8F081C0A9F03BECAC
:102A58001DF0C20E0001A26F030E0001A36FDE0E6F
:102A68000001A46FFE0E0001A56FC9C0A6F0CAC080
:102A7800A7F0CBC0A8F0CCC0A9F03BEC1DF0D40E59
:102A88000001A26F030E0001A36FF20E0001A46FF4
:102A9800FE0E0001A56FD7C0A6F0D8C0A7F0D9C018
:102AA800A8F0DAC0A9F03BEC1DF06D0E0001E619A4
:102AB800D8B40AD06C0E0001E619D8B405D0630E5C
:102AC8000001E619D8A40ED00001D6BF0BD0000132
:102AD800D65105E10A0E0001D55DD8A003D0720ECB
:102AE8000001E56F6D0E0001E519D8B419D06C0E20
:102AF8000001E519D8B414D0630E0001E519D8B463
:102B08000FD0000E0001F46F010EF36F000E0001EC
:102B1800F26F010EF16F000E0001E86F010EE76F12
:102B2800730E0001E519D8B405D0000E0001E46F5A
:102B3800010EE36F650E0001E519D8B405D0000E4B
:102B48000001EC6F010EEB6FE5C0E6F0720E0001BC
:102B5800E619D8A41200000E0001CA6F000EC96F52
:102B6800000E0001CC6F000ECB6F000E0001D86F75
:102B7800000ED76F000E0001DA6F000ED96F120039
:102B8800312E20536F727420202020202020200016
:102B98000000322E2050204C6F6773202020202008
:102BA80020000000332E204372656469747320206E
:102BB80020202000000000000000000000000000AD
:102BC80000000000000000000000000000000000FD
:102BD80000000000000000000000000000000000ED
:102BE80000000000000000000000000000000000DD
:102BF80000000000000000000000000000000000CD
:102C080000000000000000000000000000000000BC
:102C180000000000000000000000000000000000AC
:102C2800000000000000000000000000000000009C
:102C3800000000006576656E743120202020202079
:102C48002020200000006576656E74322020202048
:102C580020202020200000006576656E7433202037
:102C6800202020202020200000000000000000007C
:102C7800000000000000000000000000000000004C
:102C8800000000000000000000000000000000003C
:102C9800000000000000000000000000000000002C
:102CA800000000000000000000000000000000001C
:102CB800000000000000000000000000000000000C
:102CC80000000000000000000000000000000000FC
:102CD80000000000000000000000000000000000EC
:102CE80000000000000000004D6963726F636F6EA2
:102CF80074726F6C3A2020000000436C656D656E3D
:102D0800742057616E202020200000004369726300
:102D1800756974733A2020202020200000004A752D
:102D28007374696E20517520202020202000000037
:102D3800456C656374726F6D6563683A2020200086
:102D4800000050657465722046656E67202020205B
:102D5800200000000000000000000000000000004B
:102D6800000000000000000000000000000000005B
:102D7800000000000000000000000000000000004B
:102D8800000000000000000000000000000000003B
:102D9800000000000000000000000000000000002B
:102DA800000000000000000000000000000000001B
:102DB800000000000000000000000000000000000B
:102DC80000000000000000000000000000000000FB
:102DD80000000000000000000000000000000000EB
:102DE80000000000000000000000000000000000DB
:102DF80000000000000000000000000000000000CB
:102E080000000000000000000000000000000000BA
:102E180000000000000000000000000000000000AA
:102E2800000000000000000000000000000000009A
:102E3800000000000000000000000000000000008A
:102E4800000000000000000000000000000000007A
:102E5800730E0001E619D8A41200040E0001866F53
:102E6800000186510001D8B4DFD0FE0E0001826F48
:102E7800FF0E0001836F000186510001846F856B8E
:102E8800D8900001843785370001825100018427DA
:102E98000001835100018523560E00018425D96E57
:102EA800000E00018521DA6E00018651020D560ED2
:102EB800F324E16E000EF420E26EDECFE6FFDDCFF4
:102EC800E5FFFE0E0001826FFF0E0001836F000117
:102ED80086510001846F856BD8900001843785374F
:102EE80000018251000184270001835100018523DC
:102EF800600E00018425D96E000E00018521DA6E6E
:102F080000018651020D600EF324E16E000EF420DC
:102F1800E26EDECFE6FFDDCFE5FFFE0E0001826F39
:102F2800FF0E0001836F000186510001846F856BDD
:102F3800D890000184378537000182510001842729
:102F480000018351000185231C0E00018425D96EE0
:102F5800010E00018521DA6E00018651020D1C0E5A
:102F6800F324E16E010EF420E26EDECFE6FFDDCF42
:102F7800E5FFFE0E0001826FFF0E0001836F000166
:102F880086510001846F856BD8900001843785379E
:102F9800000182510001842700018351000185232B
:102FA8004C0E00018425D96E000E00018521DA6ED1
:102FB80000018651020D4C0EF324E16E000EF42040
:102FC800E26EDECFE6FFDDCFE5FFFE0E0001826F89
:102FD800FF0E0001836F000186510001846F856B2D
:102FE800D890000184378537000182510001842779
:102FF8000001835100018523260E00018425D96E26
:10300800010E00018521DA6E00018651020D260E9F
:10301800F324E16E010EF420E26EDECFE6FFDDCF91
:10302800E5FF000186071CD76A505EEC1EF0C4500D
:103038000001836F826BC3500001822501011C6F60
:10304800000E0001832101011D6F6F505EEC1EF020
:10305800C4500001836F826BC350000182254C6EFF
:10306800000E000183214D6E70505EEC1EF0C450BE
:103078000001836F826BC350000182250101266F16
:10308800000E000183210101276F6BC082F081CF00
:1030980083F00001822B03D00001D8908333000114
:1030A800822FFAD7010E0001831700018351566E53
:1030B800576A71C082F081CF83F00001822B03D060
:1030C8000001D89083330001822FFAD7010E000146
:1030D800831700018351606E616A12000001C34BBF
:1030E800C42BEBEC1EF0000E0001826FD00E816F36
:1030F800E2EC1EF0000E0001826F000E816FE2EC20
:103108001EF0E7EC1EF0EBEC1EF0000E0001826FE3
:10311800D10E816FE2EC1EF0000E00018B6F050EE0
:1031280000018B6501D08CD000018B51010DBA0EC6
:10313800F324D96E000EF420DA6E010E47EC1EF06F
:10314800DF6E00018B51020D3E0EF324D96E000E86
:10315800F420DA6E00018B51010DBA0EF324E16EF2
:10316800000EF420E26EE7500F0B0001886F896BA8
:1031780000018B51010DBA0EF324E16E000EF4200C
:10318800E26EE75000018A6F00018A3B0F0E8A1732
:103198000F0E00018A1700018A510A0DF350000131
:1031A8008827F45000018923DE500001881905E1C1
:1031B800DE5000018919D8B440D0C3C0C5F0C4C0DE
:1031C800C6F0000E0001C46F000EC36F00018B51E2
:1031D800010DBA0EF324D96E000EF420DA6EDF501A
:1031E8000F0B0001866F876B00018B51010DBA0E22
:1031F800F324D96E000EF420DA6EDF500001886FD8
:103208000001883B0F0E88170F0E00018817000178
:1032180088510A0DF35000018627F45000018723D6
:1032280000018B51020D3E0EF324D96E000EF420DE
:10323800DA6E86C0DEFF87C0DDFF00018B2B6FD7FB
:103248000EC186F00FC187F00001861F871F864BCD
:10325800872B40C080F041C081F0000E0001836FD1
:103268003C0E826FF8EC1DF080C088F081C089F0B8
:1032780010C180F011C181F0000E0001836F3C0E77
:10328800826FF8EC1DF00001801F0001811F000112
:10329800804B812B0001805100018827000181515A
:1032A8000001892300018651000188270001875108
:1032B800000189233E50000188250001D56F3F5049
:1032C800000189210001D66F000E47EC1EF00001B5
:1032D800C06FE7EC1EF01200000E0001AE6F000E8A
:1032E800AD6F300E0001806F010E0001816F540E2A
:1032F8000001826F010E0001836FE5EC1CF00001F4
:10330800805100018111D8B413D0300E0001806FB4
:10331800010E0001816F540E0001826F010E000141
:10332800836F2EEC1EF0000E0001AE6F010EAD6F24
:10333800420E0001806F010E0001816F660E0001D0
:10334800826F010E0001836FE5EC1CF000018051D3
:1033580000018111D8B413D0420E0001806F010E14
:103368000001816F660E0001826F010E0001836FFC
:103378002EEC1EF0000E0001AE6F010EAD6F0001C5
:10338800AD510001AE11D8B41200010ECEEC1EF002
:10339800210E0001AC6F760EE82EFED7AC2FFCD7BD
:1033A80000F0800ECEEC1EF0300E0001A26F010E70
:1033B8000001A36F8DEC1DF0800ECEEC1EF03A0ECE
:1033C8000001A26FFF0E0001A36FC5C0A4F0C6C024
:1033D800A5F08DEC1DF0C00ECEEC1EF0420E0001E3
:1033E800A26F010E0001A36F8DEC1DF0900ECEECC4
:1033F8001EF01200000E0001856F000183AF08D097
:103408000001826D831FD8B0832B010E0001856FE8
:10341800000181AF08D00001806D811FD8B0812BD9
:10342800010E0001851B000E0001876F000E866FDC
:103438000001825100018311D8B42CD0010E000183
:10344800846F06D00001D890823783370001842B1F
:10345800000183AFF7D70001D8908637873700017E
:1034680082510001805D0001835100018159D8A07B
:103478000AD0000182510001805F000183510001E0
:10348800815B000186810001D8908333823300017B
:10349800842FE1D7000185510001D8B405D000017F
:1034A800866D871FD8B0872B86C080F087C081F0D3
:1034B8001200000E0001886F000E896F000E8A6FDF
:1034C800000E8B6F000184510001851100018611E7
:1034D80000018711D8B442D0010E00018C6F08D0CA
:1034E8000001D890843785378637873700018C2BC1
:1034F800000187AFF5D70001D890883789378A3718
:103508008B37000184510001805D00018551000165
:10351800815900018651000182590001875100013B
:103528008359D8A012D0000184510001805F0001A6
:1035380085510001815B000186510001825B000119
:1035480087510001835B000188810001D89087338F
:1035580086338533843300018C2FCDD788C080F023
:1035680089C081F08AC082F08BC083F01200000EFF
:103578000001F86F4B0EF76F000E756E640E746ED7
:10358800000E736E110E726EE70E926E000E946E40
:10359800000E956E93689668000E8A6E000E8D6E0A
:1035A800000EC26E0B0EC16E000EB56EB496C08EC4
:1035B800B2EC1DF0F086F19E100E00018D6F270E03
:1035C8008E6F000E8F6F000E906FB5EC1CF0F29EA0
:1035D80084EC1CF0F29E72EC18F0730E0001E619F0
:1035E800D8A404D02CEC17F08CEC10F045EC14F0B7
:1035F800A5EC12F070EC19F0780E0001E619D8B4B9
:10360800FBD7F28E620E0001B96F650EE82EFED769
:10361800B92FFCD700D0F29EDDD7000E0001856FD0
:10362800000181AF08D00001806D811FD8B0812BC7
:10363800010E0001856F000183AF05D00001826D86
:10364800831FD8B0832B0001825100018311D8B4A5
:1036580026D0010E0001846F06D00001D890823771
:1036680083370001842B000183AFF7D70001825113
:103678000001805D0001835100018159D8A008D064
:10368800000182510001805F000183510001815BCC
:103698000001D890833382330001842FE7D70001DB
:1036A80085510001D8B405D00001806D811FD8B0C4
:1036B800812B80C080F081C081F01200880EF66EE8
:1036C8002B0EF76E000EF86E01EE82F012EED0F0BF
:1036D8000900F5CFEEFFE550E150FAE1E250F8E1DC
:1036E800560EF66E3D0EF76E000EF86E00EEDBF02D
:1036F80010EE1CF00900F5CFEEFFE550E150FAE1BD
:10370800DE0EF66E3D0EF76E000EF86E00EE6CF0F3
:1037180010EE06F00900F5CFEEFFE550E150FAE1B2
:1037280001EE00F0780EEE6AE806FDE100EEBAF070
:10373800210EEE6AE806FDE100EE3EF02E0EEE6A7E
:10374800E806FDE1769076920001BBEF1AF0000ED4
:103758000001866F000E856F000182510001831100
:10376800D8B42CD0010E0001846F06D00001D89087
:10377800823783370001842B000183AFF7D700011C
:10378800D89085378637000182510001805D00019D
:10379800835100018159D8A00AD00001825100014B
:1037A800805F000183510001815B00018581000178
:1037B800D890833382330001842FE1D785C080F00D
:1037C80086C081F01200000E066E02AE06D0016CB3
:1037D800021ED8B0022A010E066E04AE04D0036C95
:1037E800041ED8B0042A03500410D8B418D0010E0F
:1037F800056E04D0D89003360436052A04AEFAD7ED
:103808000350015C04500258D8A004D00350015E54
:103818000450025AD89004320332052EF1D70650CC
:10382800D8B404D0016C021ED8B0022A01C001F03D
:1038380002C002F012000001816F00018151F00BFB
:103848000001806F8C500F0B8C6E000180518C1022
:103858008C6E8C96140EE82EFED700D08C86140E33
:10386800E82EFED700D000018139F00B0001816FEE
:1038780000018151F00B0001806F8C500F0B8C6E92
:10388800000180518C108C6E8C96140EE82EFED799
:1038980000D08C86140EE82EFED700D0120000014E
:1038A800895100018A11D8B426D0010E00018B6F0E
:1038B80006D00001D89089378A3700018B2B000188
:1038C8008AAFF7D7000189510001875D00018A514D
:1038D80000018859D8A008D0000189510001875FEC
:1038E80000018A510001885B0001D8908A3389332E
:1038F80000018B2FE7D787C087F088C088F01200B7
:10390800EBEC1EF0000E0001826FD00E816FE2EC2E
:103918001EF0000E0001826F000E816FE2EC1EF0B7
:10392800000E0001836F060E0001836501D016D0DA
:1039380000018351010D7A0EF324F66EFE0EF42079
:10394800F76EF86A000EF8220800F5500001816F42
:10395800826BE2EC1EF00001832BE5D7E7EC1EF04A
:103968001200000EC76E280EC66E000EC56E800EC1
:103978000001806F960E816F980E826F000E836F24
:103988008DC091F08EC092F08FC093F090C094F0EB
:10399800020ED89000019137923793379437E82E6A
:1039A800F8D791C084F092C085F093C086F094C097
:1039B80087F05DEC1AF000018005C86E9486948843
:1039C800120006D00001804B812B0001824B832B13
:1039D80080C0D9FF81C0DAFFDF500001846F82C048
:1039E800D9FF83C0DAFFDF500008000184250001F9
:1039F800856F00018551D8A407D080C0D9FF81C048
:103A0800DAFFDF50D8A4DED7000185510001806FAE
:103A1800816B80BF81071200026E0250F00B016EAD
:103A28008C500F0B8C6E01508C108C6E8C96140E73
:103A3800E82EFED700D08C86140EE82EFED700D0D4
:103A48000238F00B026E0250F00B016E8C500F0B17
:103A58008C6E01508C108C6E8C96140EE82EFED74E
:103A680000D08C86140EE82EFED700D01200A2C01B
:103A7800B0F0A3C0B1F0000E0001B26F000E00015B
:103A8800B36FA60E0001AE6F000E0001AF6FB00E4F
:103A980000018C6F000E00018D6FA4C08EF0A5C0D0
:103AA8008FF0AE0E0001906F000E0001916F09ECCF
:103AB80000F0B0C0D9FFB1C0DAFF000EDF6E12000F
:103AC800000E066E000E056E03500410D8B41CD00C
:103AD800010E076E04D0D89003360436072A04AEC8
:103AE800FAD7D890053606360350015C04500258C0
:103AF800D8A005D00350015E0450025A0580D89022
:103B080004320332072EEDD705C001F006C002F0DB
:103B18001200000E0001A86F000E0001A96F720EBE
:103B28000001AA6F3D0E0001AB6FA40E0001A66F45
:103B3800000E0001A76FA80E00018C6F000E000197
:103B48008D6FA2C08EF0A3C08FF0A60E0001906FFB
:103B5800000E0001916F09EC00F01200310E000117
:103B6800836FB20EE82EFED7832FFCD700F0330EFA
:103B7800CEEC1EF0320ECEEC1EF0280ECEEC1EF06F
:103B88000F0ECEEC1EF0060ECEEC1EF0010ECEECA3
:103B98001EF0310E0001836FB20EE82EFED7832F80
:103BA800FCD700F012000A500B10D8B418D0010E40
:103BB8000C6E04D0D8900A360B360C2A0BAEFAD706
:103BC8000A50085C0B500958D8A004D00A50085E67
:103BD8000B50095AD8900B320A320C2EF1D708C074
:103BE80008F009C009F012000001805100018203A9
:103BF800F3CF84F0F4CF85F00001805100018303F6
:103C0800F350000185270001815100018203F35020
:103C18000001852784C080F085C081F01200000E65
:103C2800276E000E286EAC0E296E3D0E2A6E250EEC
:103C3800256E000E266E270E0D6E000E0E6E23C02A
:103C48000FF024C010F0250E116E000E126ECBEC92
:103C580004F0120080C084F081C085F006D0000115
:103C6800844B852B0001824B832B82C0D9FF83C0F4
:103C7800DAFF84C0E1FF85C0E2FFDFCFE7FFE7504E
:103C8800D8B41200ECD70001816FC4EC1EF0C586D1
:103C9800C4EC1EF0C9CF82F0C4EC1EF000018151C3
:103CA8000001D8A402D0C58A01D0C59AC5880001F0
:103CB800825112000001816F00018145E846FC0B2A
:103CC800C26EC280C28209D0110E0001806F3A0E06
:103CD800E82EFED7802FFCD700F0C2A21200F4D73E
:103CE8000001826F000E0001816F3A0E00018261AF
:103CF80007D02F0E0001826503D0010E0001816FED
:103D080081C080F000018031120001500302F3CF1E
:103D180005F0F4CF06F001500402F35006260250D5
:103D28000302F350062605C001F006C002F0120097
:103D3800036E000E026E3A0E036005D02F0E036468
:103D480002D0010E026E02C001F001301200FF0223
:103D5800FF00280023000100727201000500010025
:103D68000300020001000100030076B2D6EF1EF046
:103D78000001826F8C84000182511FEC1CF012003C
:103D8800C7B4FED7C5CF80F01F0E00018017D8B486
:103D98001200F6D70001826F8C94000182511FEC4B
:103DA8001CF01200036E8C84035010EC1DF01200FE
:103DB800036E8C94035010EC1DF01200C4EC1EF03E
:103DC80081C0C9FF1200C4EC1EF0C5841200C4EC07
:0C3DD8001EF0C58012000500050102026B
:10FE5600003132334134353642373839432A30237C
:10FE6600440001000A006400E803102701001000A6
:10FE7600000100100000000001001725643A25303B
:10FE8600326420656E3A253032642065633A253047
:10FE960032642000253032782F253032782F2530F5
:10FEA6003278205055534820544F00253032783A46
:10FEB600253032783A25303278202020535441526A
:10FEC600540072756E2074696D653A202530316470
:10FED6003A25303264200000656E3A2530326420BF
:10FEE60065633A253032642020202000796E3A2559
:10FEF6003032642079633A25303264202020200095
:10FF0600626F74746C65733A202530326420202049
:10FF160020000050325B302D315D3A25642C25647B
:10FF2600204D3A2564005049523A256425642C2513
:10FF36003034642C2530346400444953545B305DBE
:10FF46003A25303464204D3A25640030313233345A
:10FF560035363738396162636465660050315B3027
:10FF66002D325D3A25642C25642C256400495232D5
:10FF76005B305D3A253034644D3A256400796E3A3B
:10FF8600253032642079633A2530326400454D4588
:10FF96005247454E43592053544F50006D656E7578
:10FFA6002073656C656374696F6E0044433A25641B
:10FFB600204D4541533A2564006E6F207061676598
:10FFC60020666F756E640052433A2564204D433AAD
:10FFD6002564004952315B305D3A2530346400694E
:10FFE6006E76616C696400286E756C6C29004552EA
:0AFFF600524F5200257325630000EE
:020000040020DA
:08000000FFFFFFFFFFFFFFFF00
:020000040030CA
:0E000000FF021F1EFF8381FF0FC00FE00F40A5
:00000001FF
