:0400000007EF00F016
:100008007A82F7ED08F044EF18F0A2EF04F0250E1D
:100018000001A119D8B43CD0000120EE02F08C51A7
:10002800D9268D51DA22DE50DE10D8B41AD000015C
:1000380020EE02F08C51D9268D51DA22DECF92F0D3
:10004800DDCF93F002D8A2EF04F00500FA6E0001AC
:100058009251FD6E9351FE6EFF6AFA500001A15154
:1000680012008CC0D9FF8DC0DAFFDECF92F0DDCF51
:1000780093F092C0D9FF93C0DAFFA1C0DFFF8CC014
:10008800D9FF8DC0DAFFDE2A000EDD22A2EF04F0D0
:10009800000E0001A06F000E9F6F000E00019E6F02
:1000A80005D000019E8500018E4B8F2B8EC0F6FF78
:1000B8008FC0F7FF000EF86E0F0EF76403D008002C
:1000C800F55005D0F6CFE9FFF7CFEAFFEF50300A39
:1000D800D8B4E7D78EC0F6FF8FC0F7FF000EF86ED2
:1000E8000F0EF76403D00800F55005D0F6CFE9FFEE
:1000F800F7CFEAFFEF509DEC1BF0D8A08AD1000E95
:100108000001A06F000E9F6F9FC080F0A0C081F01B
:10011800000E0001836F0A0E826F21EC1BF080C075
:100128009FF081C0A0F0D00E0001926FFF0E000179
:10013800936F8EC0F6FF8FC0F7FF000EF86E0F0E9C
:10014800F76403D00800F55005D0F6CFE9FFF7CFE4
:10015800EAFFEF500001946F956B00019251000186
:100168009427000193510001952300019451000147
:100178009F27000195510001A02300018E4B8F2B72
:100188008EC0F6FF8FC0F7FF000EF86E0F0EF764F3
:1001980003D00800F55005D0F6CFE9FFF7CFEAFF06
:1001A800EF509DEC1BF0D8A034D1AED700019E8F44
:1001B80063D190C0D9FF91C0DAFFDFCF92F0020E71
:1001C800DE26DFCF93F0000EDD2292C0D9FF93C068
:1001D800DAFFDECF9AF0DDCF9BF000019A510001E3
:1001E8009B11D8A406D0ED0E00019A6FFF0E0001F6
:1001F8009B6F000E0001996F000E986F03D00001ED
:10020800984B992B0001985100019A250001926F93
:100218000001995100019B210001936F92C0F6FFE4
:1002280093C0F7FF000EF86E0F0EF76403D00800B6
:10023800F55005D0F6CFE9FFF7CFEAFFEF500009F8
:10024800D8A4DDD700019F510001985D0001A0519D
:1002580000019959D8B009D00001985100019F5F59
:10026800000199510001A05B3ED0000E0001A06F73
:10027800000E9F6F38D0000120EE02F08C51D92675
:100288008D51DA22DE50DE10D8B418D0000120EEED
:1002980002F08C51D9268D51DA22DECF92F0DDCFD3
:1002A80093F001D820D00500FA6E00019251FD6E3E
:1002B8009351FE6EFF6AFA50200E12008CC0D9FFCF
:1002C8008DC0DAFFDECF92F0DDCF93F092C0D9FF78
:1002D80093C0DAFF200EDF6E8CC0D9FF8DC0DAFF25
:1002E800DE2A000EDD2200019F07D8A0A00700012A
:1002F8009F29C1E10001A029D8B460D0BCD7000172
:1003080020EE02F08C51D9268D51DA22DE50DE1013
:10031800D8B42CD0000120EE02F08C51D9268D5192
:10032800DA22DECF92F0DDCF93F001D81BD00500A2
:10033800FA6E00019251FD6E9351FE6EFF6AFA50FB
:100348009AC0F6FF9BC0F7FF000EF86E0F0EF76419
:1003580003D00800F55005D0F6CFE9FFF7CFEAFF44
:10036800EF50120000019A4B9B2B28D09AC0F6FF41
:100378009BC0F7FF000EF86E8CC0D9FF8DC0DAFF66
:10038800DECF92F0DDCF93F092C0D9FF93C0DAFFB1
:100398000F0EF76403D00800F55005D0F6CFE9FF3B
:1003A800F7CFEAFFEF50DF6E00019A4B9B2B8CC012
:1003B800D9FF8DC0DAFFDE2A000EDD220001980782
:1003C800D8A09907000198299AE100019929D8B481
:1003D800B5D295D790C0D9FF91C0DAFFDFCF92F0A0
:1003E800020EDE26DFCF93F0000EDD2292C0D9FF89
:1003F80093C0DAFFDF500001A16FA10E00019A6FD0
:10040800000E00019B6F000E0001996F010E986F9E
:1004180019D700018E510001926F00018F51000120
:10042800936F00018E4B8F2B92C0F6FF93C0F7FF9E
:10043800000EF86E0F0EF76403D00800F55005D0D3
:10044800F6CFE9FFF7CFEAFFEF500001A16F0001F7
:10045800A151000AD8B495D2630AD8B4BBD7070A09
:10046800D8B40AD00D0AD8B407D01A0AD8B4A1D67D
:100478000B0AD8B49BD6C1D700019EBF20D090C02C
:10048800D9FF91C0DAFFDFCF92F0020EDE26DFCF70
:1004980093F0000EDD2292C0D9FF93C0DAFFDECFC1
:1004A8009CF0DDCF9DF000019DAF60D0030E0001F0
:1004B8009E1300019C6D9D1FD8B09D2B57D090C0F6
:1004C800D9FF91C0DAFFDFCF92F0020EDE26DFCF30
:1004D80093F0000EDD2292C0D9FF93C0DAFFDECF81
:1004E8009CF0DDCF9DF042D0010E0001A16F050EFA
:1004F8000001A119D8B443D00001A151020DF60E94
:10050800F324F66EFE0EF420F76EF86A000EF82259
:100518000900F55000019C5D0900F55000019D5946
:10052800D8A02DD00001A12BE2D7010E0001A16FA8
:10053800040E0001A119D8B422D00001A151020D66
:10054800000EF324F66EFF0EF420F76EF86A000E24
:10055800F8220900F55000019C5D0900F5500001E2
:100568009D59D8A00CD00001A12BE2D700019E51C3
:10057800800B000AD8B4B8D7800AD8B4D6D70001FF
:100588009F510001A011D8B40BD09EC092F0030E69
:1005980000019217D8B404D000019F07D8A0A00783
:1005A800800E0001A1BF7F0E0001926F00019F51D4
:1005B8000001A15D0001A051800A00019259D8B044
:1005C8000BD00001A15100019F5F000E0001A1BFE7
:1005D800FF0E0001A05B05D0000E0001A06F000E09
:1005E8009F6F00019EA582D09EC092F0030E00016D
:1005F8009217D8B438D0000120EE02F08C51D926D9
:100608008D51DA22DE50DE10D8B418D0000120EE69
:1006180002F08C51D9268D51DA22DECF92F0DDCF4F
:1006280093F001D820D00500FA6E00019251FD6EBA
:100638009351FE6EFF6AFA502D0E12008CC0D9FF3E
:100648008DC0DAFFDECF92F0DDCF93F092C0D9FFF4
:1006580093C0DAFF2D0EDF6E8CC0D9FF8DC0DAFF94
:10066800DE2A000EDD2200019F510001A011D8B43E
:10067800C4D0000120EE02F08C51D9268D51DA2227
:10068800DE50DE10D8B418D0000120EE02F08C51F4
:10069800D9268D51DA22DECF92F0DDCF93F001D842
:1006A80020D00500FA6E00019251FD6E9351FE6E46
:1006B800FF6AFA50300E12008CC0D9FF8DC0DAFFE5
:1006C800DECF92F0DDCF93F092C0D9FF93C0DAFF6E
:1006D800300EDF6E8CC0D9FF8DC0DAFFDE2A000E27
:1006E800DD2200019F07D8A0A007BDD700019F51B8
:1006F8000001A011D8B442D0000120EE02F08C51C4
:10070800D9268D51DA22DE50DE10D8B418D0000177
:1007180020EE02F08C51D9268D51DA22DECF92F0EC
:10072800DDCF93F001D820D00500FA6E0001925178
:10073800FD6E9351FE6EFF6AFA50200E12008CC0B7
:10074800D9FF8DC0DAFFDECF92F0DDCF93F092C0F3
:10075800D9FF93C0DAFF200EDF6E8CC0D9FF8DC0A1
:10076800DAFFDE2A000EDD2200019F07D8A0A007CD
:1007780000019F510001A011D8A4BED79EC092F0DD
:10078800030E00019217D8B438D0000120EE02F011
:100798008C51D9268D51DA22DE50DE10D8B418D00B
:1007A800000120EE02F08C51D9268D51DA22DECFDD
:1007B80092F0DDCF93F001D820D00500FA6E000149
:1007C8009251FD6E9351FE6EFF6AFA502D0E120083
:1007D8008CC0D9FF8DC0DAFFDECF92F0DDCF93F069
:1007E80092C0D9FF93C0DAFF2D0EDF6E8CC0D9FFFF
:1007F8008DC0DAFFDE2A000EDD22A1C097F098D066
:1008080000019751020DF60EF324F66EFE0EF42049
:10081800F76EF86A000EF8220900F5CF82F00A0098
:10082800F5CF83F09CC080F09DC081F0D4EC18F027
:1008380080C087F081C088F0000E00018A6F0A0E20
:10084800896F7CEC19F000018751300F0001A16F0E
:1008580036D09CC080F09DC081F000019751020DF8
:10086800000EF324F66EFF0EF420F76EF86A000E01
:10087800F8220900F5CF82F00A00F5CF83F0D4EC16
:1008880018F0000180510F0B0001966F000196517E
:10089800010D8E0EF324F66EFF0EF420F76EF86A43
:1008A800000EF8220800F5CFA1F009D000019E51F2
:1008B800800B000AD8B4A4D7800AD8B4CAD70001DC
:1008C80020EE02F08C51D9268D51DA22DE50DE104E
:1008D800D8B419D0000120EE02F08C51D9268D51E0
:1008E800DA22DECF92F0DDCF93F001D821D00500D7
:1008F800FA6E00019251FD6E9351FE6EFF6AFA5036
:100908000001A15112008CC0D9FF8DC0DAFFDECFE3
:1009180092F0DDCF93F092C0D9FF93C0DAFFA1C067
:10092800DFFF8CC0D9FF8DC0DAFFDE2A000EDD2282
:100938000001970700019729D8A4B8D700018E5164
:100948000001926F00018F510001936F00018E4BDF
:100958008F2B92C0F6FF93C0F7FF000EF86E0F0EB4
:10096800F76403D00800F55005D0F6CFE9FFF7CFBC
:10097800EAFFEF500001A16F0001A151D8A40BEFCD
:1009880000F0000E00018D6F000E8C6F1200D6EF84
:1009980008F0250E2218D8B436D020EE02F00D50FB
:1009A800D9260E50DA22DE50DE10D8B416D020EE4A
:1009B80002F00D50D9260E50DA22DECF13F0DDCF2B
:1009C80014F001D8EFD30500FA6E1350FD6E1450E1
:1009D800FE6EFF6AFA50225012000DC0D9FF0EC0F9
:1009E800DAFFDECF13F0DDCF14F013C0D9FF14C047
:1009F800DAFF22C0DFFF0DC0D9FF0EC0DAFFDE2A02
:100A0800000EDD22CFD3000E216E000E206E000EE8
:100A18001F6E03D01F840F4A102A0FC0F6FF10C0A4
:100A2800F7FF000EF86E0F0EF76403D00800F550BC
:100A380005D0F6CFE9FFF7CFEAFFEF50300AD8B478
:100A4800E9D70FC0F6FF10C0F7FF000EF86E0F0EC3
:100A5800F76403D00800F55005D0F6CFE9FFF7CFCB
:100A6800EAFFEF50D4EC1BF0D8A054D1000E216E51
:100A7800000E206E20C001F021C002F0000E046EAE
:100A88000A0E036EB2EC1BF001C020F002C021F088
:100A9800D00E136EFF0E146E0FC0F6FF10C0F7FFD6
:100AA800000EF86E0F0EF76403D00800F55005D05D
:100AB800F6CFE9FFF7CFEAFFEF50156E166A13502D
:100AC80015261450162215502026165021220F4A9A
:100AD800102A0FC0F6FF10C0F7FF000EF86E0F0EB9
:100AE800F76403D00800F55005D0F6CFE9FFF7CF3B
:100AF800EAFFEF50D4EC1BF0D8A00CD1BBD71F8E67
:100B080035D111C0D9FF12C0DAFFDFCF13F0020EC2
:100B1800DE26DFCF14F0000EDD2213C0D9FF14C08B
:100B2800DAFFDECF1BF0DDCF1CF01B501C10D8A461
:100B380004D0ED0E1B6EFF0E1C6E000E1A6E000E1A
:100B4800196E02D0194A1A2A19501B24136E1A500A
:100B58001C20146E13C0F6FF14C0F7FF000EF86EC9
:100B68000F0EF76403D00800F55005D0F6CFE9FF63
:100B7800F7CFEAFFEF500009D8A4E4D72050195C5A
:100B880021501A58D8B005D01950205E1A50215A51
:100B98003AD0000E216E000E206E35D020EE02F005
:100BA8000D50D9260E50DA22DE50DE10D8B416D0F9
:100BB80020EE02F00D50D9260E50DA22DECF13F0C7
:100BC800DDCF14F001D81FD00500FA6E1350FD6E6A
:100BD8001450FE6EFF6AFA50200E12000DC0D9FFA5
:100BE8000EC0DAFFDECF13F0DDCF14F013C0D9FF4B
:100BF80014C0DAFF200EDF6E0DC0D9FF0EC0DAFF79
:100C0800DE2A000EDD222006D8A021062028C6E113
:100C18002128D8B45BD0C2D720EE02F00D50D926D7
:100C28000E50DA22DE50DE10D8B429D020EE02F0C1
:100C38000D50D9260E50DA22DECF13F0DDCF14F096
:100C480001D81AD00500FA6E1350FD6E1450FE6ECE
:100C5800FF6AFA501BC0F6FF1CC0F7FF000EF86EC3
:100C68000F0EF76403D00800F55005D0F6CFE9FF62
:100C7800F7CFEAFFEF5012001B4A1C2A27D01BC0EF
:100C8800F6FF1CC0F7FF000EF86E0DC0D9FF0EC0AE
:100C9800DAFFDECF13F0DDCF14F013C0D9FF14C094
:100CA800DAFF0F0EF76403D00800F55005D0F6CF31
:100CB800E9FFF7CFEAFFEF50DF6E1B4A1C2A0DC091
:100CC800D9FF0EC0DAFFDE2A000EDD221906D8A0F1
:100CD8001A061928A1E11A28D8B464D29DD711C0E0
:100CE800D9FF12C0DAFFDFCF13F0020EDE26DFCF06
:100CF80014F0000EDD2213C0D9FF14C0DAFFDF5054
:100D0800226E220E1B6E000E1C6E000E1A6E010E55
:100D1800196E34D70F50136E1050146E0F4A102AE4
:100D280013C0F6FF14C0F7FF000EF86E0F0EF7643D
:100D380003D00800F55005D0F6CFE9FFF7CFEAFF5A
:100D4800EF50226E2250000AD8B448D2630AD8B4B1
:100D5800C6D7070AD8B40AD00D0AD8B407D01A0AD9
:100D6800D8B4CFD60B0AD8B4CAD6CBD71FBE1DD09D
:100D780011C0D9FF12C0DAFFDFCF13F0020EDE2652
:100D8800DFCF14F0000EDD2213C0D9FF14C0DAFF44
:100D9800DECF1DF0DDCF1EF01EAE52D0030E1F12A7
:100DA8001D6C1E1ED8B01E2A4BD011C0D9FF12C010
:100DB800DAFFDFCF13F0020EDE26DFCF14F0000ECD
:100DC800DD2213C0D9FF14C0DAFFDECF1DF0DDCF5E
:100DD8001EF036D0010E226E050E2218D8B438D077
:100DE8002250020DF60EF324F66EFE0EF420F76E76
:100DF800F86A000EF8220900F5501D5C0900F5504C
:100E08001E58D8A025D0222AE7D7010E226E040E3C
:100E18002218D8B41DD02250020D000EF324F66E0D
:100E2800FF0EF420F76EF86A000EF8220900F5505C
:100E38001D5C0900F5501E58D8A00AD0222AE7D711
:100E48001F50800B000AD8B4C5D7800AD8B4DDD7A4
:100E580020502110D8B409D01FC013F0030E131668
:100E6800D8B403D02006D8A02106800E22BE7F0E5B
:100E7800136E2050225C2150800A1358D8B007D036
:100E88002250205E000E22BEFF0E215A04D0000E12
:100E9800216E000E206E1FA478D01FC013F0030E21
:100EA8001316D8B435D020EE02F00D50D9260E50C6
:100EB800DA22DE50DE10D8B416D020EE02F00D5043
:100EC800D9260E50DA22DECF13F0DDCF14F001D888
:100ED8001FD00500FA6E1350FD6E1450FE6EFF6AA7
:100EE800FA502D0E12000DC0D9FF0EC0DAFFDECF6A
:100EF80013F0DDCF14F013C0D9FF14C0DAFF2D0EA4
:100F0800DF6E0DC0D9FF0EC0DAFFDE2A000EDD222B
:100F180020502110D8B4B4D020EE02F00D50D926BC
:100F28000E50DA22DE50DE10D8B416D020EE02F0D1
:100F38000D50D9260E50DA22DECF13F0DDCF14F093
:100F480001D81FD00500FA6E1350FD6E1450FE6EC6
:100F5800FF6AFA50300E12000DC0D9FF0EC0DAFF3A
:100F6800DECF13F0DDCF14F013C0D9FF14C0DAFFC1
:100F7800300EDF6E0DC0D9FF0EC0DAFFDE2A000E7C
:100F8800DD222006D8A02106C3D720502110D8B4CE
:100F98003CD020EE02F00D50D9260E50DA22DE5059
:100FA800DE10D8B416D020EE02F00D50D9260E501F
:100FB800DA22DECF13F0DDCF14F001D81FD0050000
:100FC800FA6E1350FD6E1450FE6EFF6AFA50200E32
:100FD80012000DC0D9FF0EC0DAFFDECF13F0DDCF4F
:100FE80014F013C0D9FF14C0DAFF200EDF6E0DC055
:100FF800D9FF0EC0DAFFDE2A000EDD222006D8A0B7
:10100800210620502110D8A4C4D71FC013F0030E06
:101018001316D8B435D020EE02F00D50D9260E5054
:10102800DA22DE50DE10D8B416D020EE02F00D50D1
:10103800D9260E50DA22DECF13F0DDCF14F001D816
:101048001FD00500FA6E1350FD6E1450FE6EFF6A35
:10105800FA502D0E12000DC0D9FF0EC0DAFFDECFF8
:1010680013F0DDCF14F013C0D9FF14C0DAFF2D0E32
:10107800DF6E0DC0D9FF0EC0DAFFDE2A000EDD22BA
:1010880022C018F08BD01850020DF60EF324F66E1D
:10109800FE0EF420F76EF86A000EF8220900F5CF6C
:1010A80003F00A00F5CF04F01DC001F01EC002F0E5
:1010B8008DEC1AF001C008F002C009F0000E0B6EAA
:1010C8000A0E0A6E00EC1BF00850300F226E31D069
:1010D8001DC001F01EC002F01850020D000EF324CE
:1010E800F66EFF0EF420F76EF86A000EF82209007B
:1010F800F5CF03F00A00F5CF04F08DEC1AF001509B
:101108000F0B176E1750010D8E0EF324F66EFF0E9F
:10111800F420F76EF86A000EF8220800F5CF22F0E6
:1011280008D01F50800B000AD8B4ADD7800AD8B4B5
:10113800CFD720EE02F00D50D9260E50DA22DE501D
:10114800DE10D8B416D020EE02F00D50D9260E507D
:10115800DA22DECF13F0DDCF14F001D81FD005005E
:10116800FA6E1350FD6E1450FE6EFF6AFA5022504C
:1011780012000DC0D9FF0EC0DAFFDECF13F0DDCFAD
:1011880014F013C0D9FF14C0DAFF22C0DFFF0DC06E
:10119800D9FF0EC0DAFFDE2A000EDD221806182855
:1011A800D8A4BFD70F50136E1050146E0F4A102AD0
:1011B80013C0F6FF14C0F7FF000EF86E0F0EF764A9
:1011C80003D00800F55005D0F6CFE9FFF7CFEAFFC6
:1011D800EF50226E2250D8A4CDEF04F0000E0E6E10
:1011E800000E0D6E12000600FACF2DF0FBCF2EF088
:1011F800E9CF2FF0EACF30F0E1CF31F0E2CF32F093
:10120800D9CF33F0DACF34F0F3CF35F0F4CF36F06E
:10121800F6CF37F0F7CF38F0F8CF39F0F5CF3AF00E
:10122800F0A0A9D281380F0B0F0B3D6E8ED2000EA5
:101238003C6E000E3B6E3CBE06D03C501DE1070ED6
:101248003B5CD8B019D0D8903B34D96E3C34DA6EB8
:101258003E0ED926000EDA22D8903B34E16E3C349B
:10126800E26E0E0EE126010EE222DECFE6FFDDCFB2
:10127800E5FF3B4A3C2ADFD73D50010DE50EF3243C
:10128800F66EFE0EF420F76EF86A000EF8220800DB
:10129800F550420AD8A412D00001FD510001FB5DAF
:1012A8000001FC51800A2B6E0001FE51800A2B5868
:1012B800D8B004D00001FB4BFC2B5CD23D50010D93
:1012C800E50EF324F66EFE0EF420F76EF86A000EB3
:1012D800F8220800F550410AD8A410D00001FCBF3C
:1012E8000DD00001FC5105E1020E0001FB5DD8A004
:1012F80005D00001FB07D8A0FC073CD23D50010DEA
:10130800E50EF324F66EFE0EF420F76EF86A000E72
:10131800F8220800F550430AD8B41DD02BD2730E1A
:101328000AD26C0E08D2630E06D2800E06EC1CF0B0
:10133800E50E236EFF0E246E3CEC1BF0C00E06EC8F
:101348001CF0AE0E236EFF0E246E3CEC1BF0900ECC
:1013580006EC1CF00FD2FBC02BF0FCC02CF02C507C
:10136800000AD8A4E2D72B50010AD8B4D8D7030A68
:10137800D8B4D7D7010AD8B4D6D7D7D7000E3C6E81
:10138800000E3B6E3CBE06D03C501DE1070E3B5C98
:10139800D8B019D0D8903B34D96E3C34DA6E3E0EB2
:1013A800D926000EDA22D8903B34E16E3C34E26E46
:1013B8000E0EE126010EE222DECFE6FFDDCFE5FFCD
:1013C8003B4A3C2ADFD73D50010DE50EF324F66E6B
:1013D800FE0EF420F76EF86A000EF8220800F550A9
:1013E800420AD8A412D00001F7510001F95D0001AA
:1013F800FA51800A2B6E0001F851800A2B58D8B098
:1014080004D00001F94BFA2BB5D13D50010DE50E82
:10141800F324F66EFE0EF420F76EF86A000EF8223A
:101428000800F550410AD8A477D00001FABF74D05B
:101438000001FA5105E1020E0001F95DD8A06CD057
:101448000001F907D8A0FA0795D1000E3C6E000EEE
:101458003B6E3CBE06D03C501DE1070E3B5CD8B04D
:1014680019D0D8903B34D96E3C34DA6E3E0ED9266A
:10147800000EDA22D8903B34E16E3C34E26E0E0E58
:10148800E126010EE222DECFE6FFDDCFE5FF3B4A93
:101498003C2ADFD73D50010DE50EF324F66EFE0E13
:1014A800F420F76EF86A000EF8220800F550420A98
:1014B800D8A412D00001F1510001EF5D0001F051F4
:1014C800800A2B6E0001F251800A2B58D8B004D044
:1014D8000001EF4BF02B4ED13D50010DE50EF324EA
:1014E800F66EFE0EF420F76EF86A000EF822080079
:1014F800F550410AD8A410D00001F0BF0DD000016A
:10150800F05105E1020E0001EF5DD8A005D0000101
:10151800EF07D8A0F0072ED13D50010DE50EF324BA
:10152800F66EFE0EF420F76EF86A000EF822080038
:10153800F550440AD8A41ED16D0EFDD03D50010DC2
:10154800E50EF324F66EFE0EF420F76EF86A000E30
:10155800F8220800F550310AD8A412D00001CF4B68
:10156800D02BCFC001F0D0C002F0000E046E640E84
:10157800036E10EC19F001C0CFF002C0D0F0FAD021
:101588003D50010DE50EF324F66EFE0EF420F76EC5
:10159800F86A000EF8220800F550320AD8A412D0D2
:1015A8000001D14BD22BD1C001F0D2C002F0000E05
:1015B800046E640E036E10EC19F001C0D1F002C085
:1015C800D2F0D8D03D50010DE50EF324F66EFE0E94
:1015D800F420F76EF86A000EF8220800F550340A75
:1015E800D8A412D00001DD4BDE2BDDC001F0DEC037
:1015F80002F0000E046E640E036E10EC19F001C0C8
:10160800DDF002C0DEF0B6D03D50010DE50EF3244A
:10161800F66EFE0EF420F76EF86A000EF822080047
:10162800F550350AD8A412D00001DF4BE02BDFC0FB
:1016380001F0E0C002F0000E046E640E036E10ECC0
:1016480019F001C0DFF002C0E0F094D03D50010D68
:10165800E50EF324F66EFE0EF420F76EF86A000E1F
:10166800F8220800F550370AD8B410D03D50010DC3
:10167800E50EF324F66EFE0EF420F76EF86A000EFF
:10168800F8220800F550380AD8A474D0650E53D053
:101698003D50010DE50EF324F66EFE0EF420F76EB4
:1016A800F86A000EF8220800F550420AD8A412D0B1
:1016B8000001F5510001F35D0001F451800A2B6E21
:1016C8000001F651800A2B58D8B004D00001F34B22
:1016D800F42B50D03D50010DE50EF324F66EFE0EAE
:1016E800F420F76EF86A000EF8220800F550410A57
:1016F800D8A410D00001F4BF0DD00001F45105E1C9
:10170800020E0001F35DD8A005D00001F307D8A0B0
:10171800F40730D03D50010DE50EF324F66EFE0EB1
:10172800F420F76EF86A000EF8220800F550430A14
:10173800D8A420D0720E0001ED6F1CD0CB0E236E02
:10174800FF0E246E3CEC1BF015D00001EE51630A2D
:10175800D8B47BD6060AD8B49BD7090AD8B40ED613
:10176800010AD8B464D51F0AD8B4E6D6010AD8B499
:10177800E5D6E4D7F0903AC0F5FF39C0F8FF38C095
:10178800F7FF37C0F6FF36C0F4FF35C0F3FF34C0AB
:10179800DAFF33C0D9FF32C0E2FF31C0E1FF30C009
:1017A800EAFF2FC0E9FF2EC0FBFF2DC0FAFF7A9297
:1017B8001100000E0001B86F000EB76F49D0000E7F
:1017C8000001BC6F010EBB6FF90E0001BF6F000E68
:1017D8000001C06FF70E0001B96F000E36D0000E81
:1017E8000001BC6F020EBB6FEF0E0001BF6F000E51
:1017F8000001C06FF10E0001B96F000E26D0000E77
:101808000001BC6F000EBB6FFB0E0001BF6F000E26
:101818000001C06FFD0E0001B96F000E0001BA6F24
:10182800000E0001B86F010EB76F1FD0000E000147
:10183800BC6F030EBB6FF30E0001BF6F000E0001FB
:10184800C06FF50E0001B96F000E0001BA6F0DD020
:101858000001EE51630AD8B4C2D7060AD8B4E6D755
:10186800090AD8B4ACD7010ACAD70001B751000198
:10187800B811D8B44AD1B9C0D9FFBAC0DAFFBFC0CD
:10188800E1FFC0C0E2FFDE50E65CE650800A0001DE
:10189800B66FDE50800A0001B659D8B096D0BBC0EA
:1018A80080F0BCC081F0000E0001836FB40E826F1F
:1018B80021EC1BF06E0E0001B26F010E0001B36F38
:1018C800000180510001B227000181510001B323BA
:1018D800BFC0D9FFC0C0DAFFDECFB4F0DDCFB5F0AE
:1018E800FF0E0001B4250001806FFF0E0001B52135
:1018F8000001816F000E0001836F120E826F21ECD0
:101908001BF0000180510001B2250001BD6F0001EC
:1019180081510001B3210001BE6F4A0E0001A26F80
:10192800010E0001A36FFA0E0001A46FFF0E000163
:10193800A56FBDC0A6F0BEC0A7F0000E0001A96F3C
:101948003C0EA86F64EC1AF0BBC080F0BCC081F0FC
:10195800000E0001836FB40E826F21EC1BF06E0E37
:101968000001B26F010E0001B36F00018051000148
:10197800B227000181510001B323BFC0D9FFC0C005
:10198800DAFFDECF80F0DDCF81F0000E0001836F3B
:10199800120E826F21EC1BF0000180510001B2256C
:1019A8000001BD6F000181510001B3210001BE6F2C
:1019B8005C0E0001A26F010E0001A36FBDC0A4F070
:1019C800BEC0A5F064EC1AF01200BBC080F0BCC029
:1019D80081F0000E0001836FB40E826F21EC1BF0C2
:1019E8006E0E0001B26F010E0001B36F000180514D
:1019F8000001B227000181510001B323BFC0D9FF04
:101A0800C0C0DAFFDECFB4F0DDCFB5F0FE0E0001C6
:101A1800B4250001806FFF0E0001B5210001816F20
:101A2800000E0001836F120E826F21EC1BF0000183
:101A380080510001B2250001BD6F000181510001F4
:101A4800B3210001BE6F4A0E0001A26F010E000112
:101A5800A36FBDC0A4F0BEC0A5F064EC1AF0BBC073
:101A680080F0BCC081F0000E0001836FB40E826F5D
:101A780021EC1BF06E0E0001B26F010E0001B36F76
:101A8800000180510001B227000181510001B323F8
:101A9800BFC0D9FFC0C0DAFFDECFB4F0DDCFB5F0EC
:101AA800FF0E0001B4250001806FFF0E0001B52173
:101AB8000001816F000E0001836F120E826F21EC0E
:101AC8001BF0000180510001B2250001BD6F00012B
:101AD80081510001B3210001BE6F5C0E0001A26FAD
:101AE800010E0001A36FFA0E0001A46FFF0E0001A2
:101AF800A56FBDC0A6F0BEC0A7F0000E0001A96F7B
:101B08003C0EA86F64EC1AF01200BBC080F0BCC099
:101B180081F0000E0001836FB40E826F21EC1BF080
:101B28006E0E0001B26F010E0001B36F000180510B
:101B38000001B227000181510001B323BFC0D9FFC2
:101B4800C0C0DAFFDECFB4F0DDCFB5F0FF0E000184
:101B5800B4250001806FFF0E0001B5210001816FDF
:101B6800000E0001836F120E826F21EC1BF0000142
:101B780080510001B2250001BD6F000181510001B3
:101B8800B3210001BE6F4A0E0001A26F010E0001D1
:101B9800A36FFA0E0001A46FFF0E0001A56FBDC070
:101BA800A6F0BEC0A7F0000E0001A96F5E0EA86FD8
:101BB80064EC1AF0BBC080F0BCC081F0000E0001DC
:101BC800836FB40E826F21EC1BF06E0E0001B26FB2
:101BD800010E0001B36F000180510001B22700011E
:101BE80081510001B323BFC0D9FFC0C0DAFFDECFE7
:101BF80080F0DDCF81F0000E0001836F120E826F3E
:101C080021EC1BF0000180510001B2250001BD6FDD
:101C1800000181510001B3210001BE6F5C0E00017B
:101C2800A26F010E0001A36FFA0E0001A46FFF0E50
:101C38000001A56FBDC0A6F0BEC0A7F0000E000150
:101C4800A96F5E0EA86F64EC1AF01200000E000176
:101C5800936F000E926F000E00018A6F040E000150
:101C68008A6501D012D000018A51020D600EF3245A
:101C7800D96E000EF420DA6EDE5000019227DD5096
:101C88000001932300018A2BE9D792C080F093C00A
:101C980081F0000E0001836F050E826FF3EC17F0E0
:101CA8000001805100018111D8B406D0000E000156
:101CB800876F000E866F1200000E00018B6F040EF6
:101CC80000018B6501D012D000018B51020D6A0E04
:101CD800F324D96E000EF420DA6EDE50000192274C
:101CE800DD500001932300018B2BE9D792C080F0CF
:101CF80093C081F0000E0001836F050E826FF3EC34
:101D080017F00001805100018111D8B406D0000EEF
:101D18000001876F000E866F1200000E00018C6FA5
:101D2800040E00018C6501D01BD000018C51020DFE
:101D38004C0EF324D96E000EF420DA6E0001E35144
:101D4800DE5C0001E451DE58D8B002D0010E01D0AB
:101D5800000E00019227000E932300018C2BE0D780
:101D680092C080F093C081F0000E0001836F050ED1
:101D7800826FF3EC17F00001805100018111D8B493
:101D880006D0000E0001876F000E866F1200000E4D
:101D980000018D6F040E00018D6501D01BD000017C
:101DA8008D51020D4C0EF324D96E000EF420DA6E1C
:101DB8000001E151DE5C0001E251DE58D8B002D0EA
:101DC800010E01D0000E00019227000E932300019E
:101DD8008D2BE0D792C080F093C081F0000E0001F7
:101DE800836F050E826FF3EC17F00001805100013C
:101DF8008111D8B406D0000E0001876F000E866FDF
:101E08001200000E00018E6F040E00018E6501D0D5
:101E18001BD000018E51020D560EF324D96E000E10
:101E2800F420DA6E0001E751DE5C0001E851DE586B
:101E3800D8B002D0010E01D0000E00019227000E8A
:101E4800932300018E2BE0D792C080F093C081F0DD
:101E5800000E0001836F050E826FF3EC17F000018E
:101E6800805100018111D8B406D0000E0001876F9F
:101E7800000E866F1200000E00018F6F040E000125
:101E88008F6501D01BD000018F51020D560EF3242F
:101E9800D96E000EF420DA6E0001E551DE5C000117
:101EA800E651DE58D8B002D0010E01D0000E000174
:101EB8009227000E932300018F2BE0D792C080F069
:101EC80093C081F0000E0001836F050E826FF3EC62
:101ED80017F00001805100018111D8B406D0000E1E
:101EE8000001876F000E866F1200000E0001906FD0
:101EF800040E0001906501D01BD000019051020D25
:101F08001C0EF324D96E010EF420DA6E0001E7519D
:101F1800DE5C0001E851DE58D8B002D0010E01D0D5
:101F2800000E00019227000E93230001902BE0D7AA
:101F380092C080F093C081F0000E0001836F050EFF
:101F4800826FF3EC17F00001805100018111D8B4C1
:101F580006D0000E0001876F000E866F1200000E7B
:101F68000001916F040E0001916501D01BD00001A2
:101F78009151020D560EF324D96E000EF420DA6E3C
:101F88000001E551DE5C0001E651DE58D8B002D010
:101F9800010E01D0000E00019227000E93230001CC
:101FA800912BE0D792C080F093C081F0000E000121
:101FB800836F050E826FF3EC17F00001805100016A
:101FC8008111D8B406D0000E0001876F000E866F0D
:101FD8001200000E0001936F000E926F4C5000012A
:101FE800E15D4D500001E259D8B006D0000E000165
:101FF800876F000E866F12004C500001E35D4D5054
:102008000001E459D8B005D06A50000192276B50FE
:1020180004D060500001922761500001932356506C
:102028000001E55D57500001E659D8A028D001010C
:102038001C510001E55D01011D510001E659D8A0C0
:102048001ED00001E751565C0001E8515758D8B03E
:1020580010D00001E75101011C5D0001E8510101A8
:102068001D59D8B006D0020E00019227000E932306
:1020780006D0000E0001876F000E866F120092C016
:1020880086F093C087F01200312E20536F727420AF
:1020980020202020202020000000322E2050204C1C
:1020A8006F6773202020202020000000332E20435B
:1020B80072656469747320202020200000000000ED
:1020C8000000000000000000000000000000000008
:1020D80000000000000000000000000000000000F8
:1020E80000000000000000000000000000000000E8
:1020F80000000000000000000000000000000000D8
:1021080000000000000000000000000000000000C7
:1021180000000000000000000000000000000000B7
:1021280000000000000000000000000000000000A7
:102138000000000000000000000000006576656EE9
:1021480074312020202020202020200000006576E7
:10215800656E7432202020202020202020000000DE
:102168006576656E743320202020202020202000F2
:102178000000000000000000000000000000000057
:102188000000000000000000000000000000000047
:102198000000000000000000000000000000000037
:1021A8000000000000000000000000000000000027
:1021B8000000000000000000000000000000000017
:1021C8000000000000000000000000000000000007
:1021D80000000000000000000000000000000000F7
:1021E80000000000000000000000000000000000E7
:1021F8004D6963726F636F6E74726F6C3A20200062
:102208000000436C656D656E742057616E20202058
:102218002000000043697263756974733A202020B6
:102228002020200000004A757374696E20517520C3
:102238002020202020000000456C656374726F6DBB
:102248006563683A2020200000005065746572209C
:1022580046656E6720202020200000000000000056
:102268000000000000000000000000000000000066
:102278000000000000000000000000000000000056
:102288000000000000000000000000000000000046
:102298000000000000000000000000000000000036
:1022A8000000000000000000000000000000000026
:1022B8000000000000000000000000000000000016
:1022C8000000000000000000000000000000000006
:1022D80000000000000000000000000000000000F6
:1022E80000000000000000000000000000000000E6
:1022F80000000000000000000000000000000000D6
:1023080000000000000000000000000000000000C5
:1023180000000000000000000000000000000000B5
:1023280000000000000000000000000000000000A5
:102338000000000000000000000000000000000095
:102348000000000000000000000000000000000085
:102358000000000000000000730E0001ED19D8A471
:1023680005D0730E0001EE19D8A40AD06D0E000135
:10237800ED19D8A433D06D0E0001EE19D8B42ED0C3
:10238800000E0001B56F000EB46F0001B5BF08D094
:102398000001B55123E1070E0001B45DD8B01ED08D
:1023A800D8900001B435D96E0001B535DA6E3E0E0D
:1023B800D926000EDA22D8900001B435E16E00016A
:1023C800B535E26E0E0EE126010EE222DECFE6FF03
:1023D800DDCFE5FF0001B44BB52BD7D70001D151B4
:1023E8000001CF250001B26F0001D2510001D021B8
:1023F8000001B36F0001DD510001B2270001DE5179
:102408000001B3230001DF510001B2250001D96F9B
:102418000001E0510001B3210001DA6FD9C080F05A
:10242800DAC081F0000E0001836F640E826FF3EC56
:1024380017F080C0D9F081C0DAF0730E0001EE19F0
:10244800D8A40ED00001DCBF0BD00001DC5105E19F
:10245800B40E0001DB5DD8A003D0650E0001ED6F5E
:10246800650E0001ED19D8A473D0650E0001EE19B0
:10247800D8B46ED0DBC0D7F0DCC0D8F08A0E00012B
:10248800A26F030E0001A36F7B0E0001A46FFF0E65
:102498000001A56FD9C0A6F0DAC0A7F064EC1AF065
:1024A8009C0E0001A26F030E0001A36F3D0E0001F8
:1024B800A46FFF0E0001A56FD7C080F0D8C081F0CF
:1024C800000E0001836F3C0E826F36EC17F080C05F
:1024D800A6F081C0A7F0DBC080F0DCC081F0000E60
:1024E8000001836F3C0E826FF3EC17F080C0A8F0F8
:1024F80081C0A9F064EC1AF0AE0E0001A26F030EC1
:102508000001A36F530E0001A46FFF0E0001A56F19
:10251800CFC0A6F0D0C0A7F0D1C0A8F0D2C0A9F013
:1025280064EC1AF0C00E0001A26F030E0001A36F45
:10253800670E0001A46FFF0E0001A56FDDC0A6F0B5
:10254800DEC0A7F0DFC0A8F0E0C0A9F064EC1AF084
:102558006D0E0001EE19D8B40AD06C0E0001EE1908
:10256800D8B405D0630E0001EE19D8A40ED000012E
:10257800DCBF0BD00001DC5105E10A0E0001DB5D78
:10258800D8A003D0720E0001ED6FEDC0EEF06D0E15
:102598000001EE19D8B419D06C0E0001EE19D8B4A8
:1025A80014D0630E0001EE19D8B40FD0000E00014C
:1025B800FC6F010EFB6F000E0001FA6F010EF96F40
:1025C800000E0001F06F010EEF6F650E0001EE19AD
:1025D800D8B405D0000E0001F46F010EF36F720E2F
:1025E8000001EE19D8A41200000E0001D06F000EF1
:1025F800CF6F000E0001D26F000ED16F000E0001E8
:10260800DE6F000EDD6F000E0001E06F000EDF6F61
:102618001200730E0001EE19D8A41200040E000176
:10262800866F000186510001D8B4DFD0FE0E00018C
:10263800826FFF0E0001836F000186510001846FD5
:10264800856BD890000184378537000182510001DD
:1026580084270001835100018523600E0001842531
:10266800D96E000E00018521DA6E00018651020D37
:10267800600EF324E16E000EF420E26EDECFE6FF7A
:10268800DDCFE5FFFE0E0001826FFF0E0001836FB4
:10269800000186510001846F856BD8900001843752
:1026A8008537000182510001842700018351000110
:1026B80085236A0E00018425D96E000E000185214C
:1026C800DA6E00018651020D6A0EF324E16E000EE7
:1026D800F420E26EDECFE6FFDDCFE5FFFE0E00015F
:1026E800826FFF0E0001836F000186510001846F25
:1026F800856BD8900001843785370001825100012D
:10270800842700018351000185234C0E0001842594
:10271800D96E000E00018521DA6E00018651020D86
:102728004C0EF324E16E000EF420E26EDECFE6FFDD
:10273800DDCFE5FFFE0E0001826FFF0E0001836F03
:10274800000186510001846F856BD89000018437A1
:10275800853700018251000184270001835100015F
:102768008523560E00018425D96E000E00018521AF
:10277800DA6E00018651020D560EF324E16E000E4A
:10278800F420E26EDECFE6FFDDCFE5FFFE0E0001AE
:10279800826FFF0E0001836F000186510001846F74
:1027A800856BD8900001843785370001825100017C
:1027B800842700018351000185231C0E0001842514
:1027C800D96E010E00018521DA6E00018651020DD5
:1027D8001C0EF324E16E010EF420E26EDECFE6FF5C
:1027E800DDCFE5FF000186071CD7745087EC1BF08E
:1027F800C4500001836F826BC350000182254C6E68
:10280800000E000183214D6E775087EC1BF0C450F9
:102818000001836F826BC35000018225566E000E43
:1028280000018321576E785087EC1BF0C4500001DB
:10283800836F826BC3500001822501011C6F000E5B
:102848000001832101011D6F75C082F081CF83F0E3
:102858000001822B03D00001D89083330001822F1E
:10286800FAD7010E0001831700018351606E616A77
:1028780079C082F081CF83F00001822B03D0000160
:10288800D89083330001822FFAD7010E00018317F5
:10289800000183516A6E6B6A12006A50602400015D
:1028A800946F6B5061200001956F000194510001F5
:1028B8009511D8B443D00001D3510001D411D8A444
:1028C8003DD00001D6BF08D00001D65137E1150E22
:1028D8000001D55DD8B032D0E9C0D3F0EAC0D4F059
:1028E800000E0001996F000E986F000199BF08D083
:1028F8000001995123E1070E0001985DD8B01ED060
:10290800D89000019835D96E00019935DA6E3E0EDF
:10291800D926000EDA22D89000019835E16E000120
:102928009935E26E000EE126010EE222DECFE6FFC7
:10293800DDCFE5FF0001984B992BD7D70001D305D0
:102948000001D411D8A43BD02AEC0EF086C0C9F0FF
:1029580087C0CAF00001C9510001CA11D8B42CD0EF
:10296800EBC0D5F0ECC0D6F00001C9050001CA11D2
:10297800D8A403D00001CF4BD02B020E0001C919F7
:102988000001CA11D8A403D00001D14BD22B030EE9
:102998000001C9190001CA11D8A403D00001DD4BF8
:1029A800DE2B040E0001C9190001CA11D8A407D0F2
:1029B8000001DF4BE02B03D00001D34BD42B140EC6
:1029C8000001D5190001D611D8A404D0CBC0CDF090
:1029D800CCC0CEF00001CEBF0BD00001CE5104E137
:1029E8000001CD05D8A004D00001CD07D8A0CE079E
:1029F8000001D4BF0BD00001D45104E10001D3057C
:102A0800D8A004D00001D307D8A0D4070001D6BFAE
:102A18000BD00001D65104E10001D505D8A004D09F
:102A28000001D507D8A0D60700C194F001C195F0E0
:102A38000001941F951F944B952B40C080F041C016
:102A480081F0000E0001836F3C0E826F21EC1BF0B9
:102A580080C096F081C097F002C180F003C181F078
:102A6800000E0001836F3C0E826F21EC1BF0000109
:102A7800801F0001811F0001804B812B00018051C4
:102A8800000196270001815100019723000194510C
:102A98000001962700019551000197233E5000013F
:102AA80096273F5000019723000197BF12000001AD
:102AB800975105E10F0E0001965DD8A01200650E32
:102AC8000001ED6F120015EC1CF0000E0001826F82
:102AD800D00E816F0CEC1CF0000E0001826F000E0E
:102AE800816F0CEC1CF011EC1CF015EC1CF0000EC6
:102AF8000001826FD10E816F0CEC1CF0000E0001FA
:102B08008A6F050E00018A6501D047D000018A51FD
:102B1800010DC20EF324D96E000EF420DA6E010EF8
:102B280070EC1BF0DF6E00018A51010DC20EF32418
:102B3800D96E000EF420DA6EDF500F0B0001866F9D
:102B4800876B00018A51010DC20EF324D96E000E65
:102B5800F420DA6EDF500001886F0001883B0F0E09
:102B680088170F0E00018817000188510A0DF350CD
:102B780000018627F4500001872300018A51020DC5
:102B88003E0EF324D96E000EF420DA6E86C0DEFF06
:102B980087C0DDFF00018A2BB4D70EC186F00FC1B4
:102BA80087F00001861F871F864B872B40C080F067
:102BB80041C081F0000E0001836F3C0E826F21EC52
:102BC8001BF080C088F081C089F010C180F011C16D
:102BD80081F0000E0001836F3C0E826F21EC1BF028
:102BE8000001801F0001811F0001804B812B000123
:102BF80080510001882700018151000189230001CB
:102C080086510001882700018751000189233E5021
:102C1800000188250001DB6F3F5000018921000178
:102C2800DC6F000E70EC1BF00001C86F11EC1CF09B
:102C3800120084D04A0E0001A26F010E0001A36F9A
:102C48000F0E0001A46FFF0E0001A56FC8C0A6F00B
:102C58000001A76BC7C0A8F00001A96BC6C0AAF005
:102C68000001AB6B64EC1AF05C0E0001A26F010E60
:102C78000001A36F260E0001A46FFF0E0001A56FCF
:102C8800C4C0A6F00001A76BC3C0A8F00001A96BDF
:102C9800C2C0AAF00001AB6B64EC1AF01200DDECC4
:102CA8000BF012004A0E0001A26F010E0001A36F83
:102CB800D90E0001A46FFF0E0001A56FD5C0A6F0C4
:102CC800D6C0A7F0D3C0A8F0D4C0A9F064EC1AF01D
:102CD8005C0E0001A26F010E0001A36FBD0E000182
:102CE800A46FFF0E0001A56FCDC0A6F0CEC0A7F05F
:102CF8002AEC0EF086C0A8F087C0A9F064EC1AF0A0
:102D080012004A0E0001A26F010E0001A36FF40E1B
:102D18000001A46FFF0E0001A56F64EC1AF05C0EB1
:102D28000001A26F010E0001A36F9F0E0001A46FA6
:102D3800FF0E0001A56F64EC1AF012000001EE51BD
:102D4800630AD8B4ACD7060AD8B4A9D7090AD8B444
:102D5800A6D7010AD8B4A3D71F0AD8B46BD7010ADB
:102D6800D8B4A0D7CED7000E0001AC6F000EAB6F61
:102D7800260E0001806F010E0001816F4A0E0001CE
:102D8800826F010E0001836F0EEC1AF00001805172
:102D980000018111D8B413D0260E0001806F010EF6
:102DA8000001816F4A0E0001826F010E0001836FDE
:102DB80057EC1BF0000E0001AC6F010EAB6F380E24
:102DC8000001806F010E0001816F5C0E0001826FAF
:102DD800010E0001836F0EEC1AF000018051000112
:102DE8008111D8B413D0380E0001806F010E000194
:102DF800816F5C0E0001826F010E0001836F57EC3A
:102E08001BF0000E0001AC6F010EAB6F0001AB515F
:102E18000001AC11D8B41200010EF8EC1BF0210E21
:102E28000001AA6F760EE82EFED7AA2FFCD700F075
:102E3800800EF8EC1BF0260E0001A26F010E0001B7
:102E4800A36FB6EC1AF0C00EF8EC1BF0380E0001B8
:102E5800A26F010E0001A36FB6EC1AF0900EF8EC09
:102E68001BF01200000E0001856F000183AF08D02F
:102E78000001826D831FD8B0832B010E0001856F7E
:102E8800000181AF08D00001806D811FD8B0812B6F
:102E9800010E0001851B000E0001876F000E866F72
:102EA8000001825100018311D8B42CD0010E000119
:102EB800846F06D00001D890823783370001842BB5
:102EC800000183AFF7D70001D89086378737000114
:102ED80082510001805D0001835100018159D8A011
:102EE8000AD0000182510001805F00018351000176
:102EF800815B000186810001D89083338233000111
:102F0800842FE1D7000185510001D8B405D0000114
:102F1800866D871FD8B0872B86C080F087C081F068
:102F28001200000E0001886F000E896F000E8A6F74
:102F3800000E8B6F0001845100018511000186117C
:102F480000018711D8B442D0010E00018C6F08D05F
:102F58000001D890843785378637873700018C2B56
:102F6800000187AFF5D70001D890883789378A37AD
:102F78008B37000184510001805D000185510001FB
:102F880081590001865100018259000187510001D1
:102F98008359D8A012D0000184510001805F00013C
:102FA80085510001815B000186510001825B0001AF
:102FB80087510001835B000188810001D890873325
:102FC80086338533843300018C2FCDD788C080F0B9
:102FD80089C081F08AC082F08BC083F01200000E95
:102FE8000001856F000181AF08D00001806D811F4D
:102FF800D8B0812B010E0001856F000183AF05D089
:103008000001826D831FD8B0832B0001825100011B
:103018008311D8B426D0010E0001846F06D00001B8
:10302800D890823783370001842B000183AFF7D70C
:10303800000182510001805D000183510001815926
:10304800D8A008D0000182510001805F000183519F
:103058000001815B0001D890833382330001842F03
:10306800E7D7000185510001D8B405D00001806D73
:10307800811FD8B0812B80C080F081C081F0120000
:10308800900EF66E200EF76E000EF86E01EE6EF0E2
:1030980012EED0F00900F5CFEEFFE550E150FAE16D
:1030A800E250F8E18A0EF66E370EF76E000EF86EF3
:1030B80000EEE1F010EE1EF00900F5CFEEFFE5504E
:1030C800E150FAE1320EF66E380EF76E000EF86E29
:1030D80000EE76F010EE04F00900F5CFEEFFE550B3
:1030E800E150FAE101EE00F06E0EEE6AE806FDE14D
:1030F80000EEC2F01F0EEE6AE806FDE100EE3EF0BB
:10310800380EEE6AE806FDE17A907A9200018DEFBA
:1031180018F0000E946E000E956E9368030E966E6E
:10312800000E8A6E000E8B6E000EC26E0B0EC16E04
:10313800000EB56EB496C08EDBEC1AF0F086F19EE8
:10314800100E00018D6F270E8E6F000E8F6F000E10
:10315800906FDEEC19F0F29EADEC19F0F29E67EC80
:1031680015F0780E0001EE19D8A404D00DEC13F078
:1031780051EC14F0B0EC11F01DEC16F0B7EC16F0B1
:10318800780E0001EE19D8B4FBD7F28EA30E000119
:10319800C16F550EE82EFED7C12FFCD7F29EDED7A1
:1031A800000E0001866F000E856F0001825100013C
:1031B8008311D8B42CD0010E0001846F06D0000111
:1031C800D890823783370001842B000183AFF7D76B
:1031D8000001D89085378637000182510001805D53
:1031E8000001835100018159D8A00AD00001825101
:1031F8000001805F000183510001815B000185812E
:103208000001D890833382330001842FE1D785C031
:1032180080F086C081F01200000E066E02AE06D065
:10322800016C021ED8B0022A010E066E04AE04D04C
:10323800036C041ED8B0042A03500410D8B418D064
:10324800010E056E04D0D89003360436052A04AE64
:10325800FAD70350015C04500258D8A004D0035098
:10326800015E0450025AD89004320332052EF1D779
:103278000650D8B404D0016C021ED8B0022A01C08E
:1032880001F002C002F012000001816F00018151BB
:10329800F00B0001806F8C500F0B8C6E0001805179
:1032A8008C108C6E8C96140EE82EFED700D08C866F
:1032B800140EE82EFED700D000018139F00B000172
:1032C800816F00018151F00B0001806F8C500F0B52
:1032D8008C6E000180518C108C6E8C96140EE82E2A
:1032E800FED700D08C86140EE82EFED700D0120030
:1032F8000001895100018A11D8B426D0010E0001BD
:103308008B6F06D00001D89089378A3700018B2B44
:1033180000018AAFF7D7000189510001875D0001DC
:103328008A5100018859D8A008D0000189510001AC
:10333800875F00018A510001885B0001D8908A33B9
:10334800893300018B2FE7D787C087F088C088F0C2
:10335800120015EC1CF0000E0001826FD00E816F78
:103368000CEC1CF0000E0001826F000E816F0CEC5B
:103378001CF0000E0001836F060E0001836501D06A
:1033880016D000018351010D080EF324F66EFF0ECE
:10339800F420F76EF86A000EF8220800F5500001D4
:1033A800816F826B0CEC1CF00001832BE5D711ECCC
:1033B8001CF01200000EC76E280EC66E000EC56EF9
:1033C800800E0001806F960E816F980E826F000E3E
:1033D800836F8DC091F08EC092F08FC093F090C033
:1033E80094F0020ED89000019137923793379437B2
:1033F800E82EF8D791C084F092C085F093C086F08B
:1034080094C087F095EC17F000018005C86E94868B
:103418009488120006D00001804B812B0001824B5A
:10342800832B80C0D9FF81C0DAFFDF500001846F91
:1034380082C0D9FF83C0DAFFDF500008000184256D
:103448000001856F00018551D8A407D080C0D9FF3D
:1034580081C0DAFFDF50D8A4DED700018551000112
:10346800806F816B80BF81071200026E0250F00BE3
:10347800016E8C500F0B8C6E01508C108C6E8C96DC
:10348800140EE82EFED700D08C86140EE82EFED738
:1034980000D00238F00B026E0250F00B016E8C5017
:1034A8000F0B8C6E01508C108C6E8C96140EE82EBF
:1034B800FED700D08C86140EE82EFED700D012005E
:1034C800A2C0AEF0A3C0AFF0000E0001B06F000EB6
:1034D8000001B16FA60E0001AC6F000E0001AD6FC8
:1034E800AE0E00018C6F000E00018D6FA4C08EF02F
:1034F800A5C08FF0AC0E0001906F000E0001916F17
:1035080009EC00F0AEC0D9FFAFC0DAFF000EDF6EE5
:103518001200000E066E000E056E03500410D8B49B
:103528001CD0010E076E04D0D89003360436072A43
:1035380004AEFAD7D890053606360350015C04501D
:103548000258D8A005D00350015E0450025A0580E5
:10355800D89004320332072EEDD705C001F006C01B
:1035680002F01200000E0001A66F000E0001A76F06
:10357800C60E0001A86F370E0001A96FA40E000146
:10358800A46F000E0001A56FA60E00018C6F000E3F
:1035980000018D6FA2C08EF0A3C08FF0A40E0001B1
:1035A800906F000E0001916F09EC00F01200310ECF
:1035B8000001836FB20EE82EFED7832FFCD700F0F0
:1035C800330EF8EC1BF0320EF8EC1BF0280EF8EC7A
:1035D8001BF00F0EF8EC1BF0060EF8EC1BF0010EBA
:1035E800F8EC1BF0310E0001836FB20EE82EFED707
:1035F800832FFCD700F012000A500B10D8B418D053
:10360800010E0C6E04D0D8900A360B360C2A0BAE7D
:10361800FAD70A50085C0B500958D8A004D00A50B1
:10362800085E0B50095AD8900B320A320C2EF1D78B
:1036380008C008F009C009F012000001805100011B
:103648008203F3CF84F0F4CF85F0000180510001AC
:103658008303F35000018527000181510001820393
:10366800F3500001852784C080F085C081F01200E6
:10367800000E276E000E286E000E296E380E2A6E78
:10368800250E256E000E266E270E0D6E000E0E6E90
:1036980023C00FF024C010F0250E116E000E126E1C
:1036A800CBEC04F0120080C084F081C085F006D015
:1036B8000001844B852B0001824B832B82C0D9FFEC
:1036C80083C0DAFF84C0E1FF85C0E2FFDFCFE7FFF8
:1036D800E750D8B41200ECD70001816FEEEC1BF074
:1036E800C586EEEC1BF0C9CF82F0EEEC1BF00001B2
:1036F80081510001D8A402D0C58A01D0C59AC588D5
:103708000001825112000001816F00018145E846E5
:10371800FC0BC26EC280C28209D0110E0001806FFC
:103728003A0EE82EFED7802FFCD700F0C2A2120076
:10373800F4D70001826F000E0001816F3A0E00017C
:10374800826107D02F0E0001826503D0010E0001AF
:10375800816F81C080F000018031120001500302A6
:10376800F3CF05F0F4CF06F001500402F35006261B
:1037780002500302F350062605C001F006C002F00D
:103788001200FF02FF00FF02FF000500A00F727287
:103798000100050001000300020001000100030010
:1037A800036E000E026E3A0E036005D02F0E0364FE
:1037B80002D0010E026E02C001F0013012007AB28E
:1037C80000EF1CF00001826F8C840001825148ECEC
:1037D80019F01200C7B4FED7C5CF80F01F0E000144
:1037E8008017D8B41200F6D70001826F8C940001BC
:1037F800825148EC19F01200036E8C84035039ECA6
:103808001AF01200036E8C94035039EC1AF012006F
:10381800EEEC1BF081C0C9FF1200EEEC1BF0C58472
:0E3828001200EEEC1BF0C5801200050102013B
:10FEE400003132334134353642373839432A3023EE
:10FEF400440001000A006400E80310270100100018
:10FF04000001001000000000010017253032782F96
:10FF1400253032782F2530327820505553482054DC
:10FF24004F00253032783A253032783A253032780D
:10FF340020202053544152540072756E2074696D10
:10FF4400653A20253031643A25303264200000655A
:10FF54006E3A253032642065633A253032642020BD
:10FF6400202000796E3A253032642079633A2530B6
:10FF740032642020202000626F74746C65733A2010
:10FF840025303264202020200000303132333435D3
:10FF94003637383961626364656600454D455247BA
:10FFA400454E43592053544F50006D656E75207370
:10FFB400656C656374696F6E0044433A2564204D33
:10FFC4004541533A2564006E6F2070616765206671
:10FFD4006F756E640052433A2564204D433A25649C
:10FFE40000696E76616C696400286E756C6C29001A
:0CFFF4004552524F520025732563000057
:020000040020DA
:08000000FFFFFFFFFFFFFFFF00
:020000040030CA
:0E000000FF021F1EFF8381FF0FC00FE00F40A5
:00000001FF
