:0400000007EF00F016
:100008007B82F7ED08F0E6EF1BF0A2EF04F0250E77
:100018000001A119D8B43CD0000120EE02F08C51A7
:10002800D9268D51DA22DE50DE10D8B41AD000015C
:1000380020EE02F08C51D9268D51DA22DECF92F0D3
:10004800DDCF93F002D8A2EF04F00500FA6E0001AC
:100058009251FD6E9351FE6EFF6AFA500001A15154
:1000680012008CC0D9FF8DC0DAFFDECF92F0DDCF51
:1000780093F092C0D9FF93C0DAFFA1C0DFFF8CC014
:10008800D9FF8DC0DAFFDE2A000EDD22A2EF04F0D0
:10009800000E0001A06F000E9F6F000E00019E6F02
:1000A80005D000019E8500018E4B8F2B8EC0F6FF78
:1000B8008FC0F7FF000EF86E0F0EF76403D008002C
:1000C800F55005D0F6CFE9FFF7CFEAFFEF50300A39
:1000D800D8B4E7D78EC0F6FF8FC0F7FF000EF86ED2
:1000E8000F0EF76403D00800F55005D0F6CFE9FFEE
:1000F800F7CFEAFFEF50C7EC1EF0D8A08AD1000E68
:100108000001A06F000E9F6F9FC080F0A0C081F01B
:10011800000E0001836F0A0E826F4BEC1EF080C048
:100128009FF081C0A0F0D00E0001926FFF0E000179
:10013800936F8EC0F6FF8FC0F7FF000EF86E0F0E9C
:10014800F76403D00800F55005D0F6CFE9FFF7CFE4
:10015800EAFFEF500001946F956B00019251000186
:100168009427000193510001952300019451000147
:100178009F27000195510001A02300018E4B8F2B72
:100188008EC0F6FF8FC0F7FF000EF86E0F0EF764F3
:1001980003D00800F55005D0F6CFE9FFF7CFEAFF06
:1001A800EF50C7EC1EF0D8A034D1AED700019E8F17
:1001B80063D190C0D9FF91C0DAFFDFCF92F0020E71
:1001C800DE26DFCF93F0000EDD2292C0D9FF93C068
:1001D800DAFFDECF9AF0DDCF9BF000019A510001E3
:1001E8009B11D8A406D0E50E00019A6FFF0E0001FE
:1001F8009B6F000E0001996F000E986F03D00001ED
:10020800984B992B0001985100019A250001926F93
:100218000001995100019B210001936F92C0F6FFE4
:1002280093C0F7FF000EF86E0F0EF76403D00800B6
:10023800F55005D0F6CFE9FFF7CFEAFFEF500009F8
:10024800D8A4DDD700019F510001985D0001A0519D
:1002580000019959D8B009D00001985100019F5F59
:10026800000199510001A05B3ED0000E0001A06F73
:10027800000E9F6F38D0000120EE02F08C51D92675
:100288008D51DA22DE50DE10D8B418D0000120EEED
:1002980002F08C51D9268D51DA22DECF92F0DDCFD3
:1002A80093F001D820D00500FA6E00019251FD6E3E
:1002B8009351FE6EFF6AFA50200E12008CC0D9FFCF
:1002C8008DC0DAFFDECF92F0DDCF93F092C0D9FF78
:1002D80093C0DAFF200EDF6E8CC0D9FF8DC0DAFF25
:1002E800DE2A000EDD2200019F07D8A0A00700012A
:1002F8009F29C1E10001A029D8B460D0BCD7000172
:1003080020EE02F08C51D9268D51DA22DE50DE1013
:10031800D8B42CD0000120EE02F08C51D9268D5192
:10032800DA22DECF92F0DDCF93F001D81BD00500A2
:10033800FA6E00019251FD6E9351FE6EFF6AFA50FB
:100348009AC0F6FF9BC0F7FF000EF86E0F0EF76419
:1003580003D00800F55005D0F6CFE9FFF7CFEAFF44
:10036800EF50120000019A4B9B2B28D09AC0F6FF41
:100378009BC0F7FF000EF86E8CC0D9FF8DC0DAFF66
:10038800DECF92F0DDCF93F092C0D9FF93C0DAFFB1
:100398000F0EF76403D00800F55005D0F6CFE9FF3B
:1003A800F7CFEAFFEF50DF6E00019A4B9B2B8CC012
:1003B800D9FF8DC0DAFFDE2A000EDD220001980782
:1003C800D8A09907000198299AE100019929D8B481
:1003D800B5D295D790C0D9FF91C0DAFFDFCF92F0A0
:1003E800020EDE26DFCF93F0000EDD2292C0D9FF89
:1003F80093C0DAFFDF500001A16FA10E00019A6FD0
:10040800000E00019B6F000E0001996F010E986F9E
:1004180019D700018E510001926F00018F51000120
:10042800936F00018E4B8F2B92C0F6FF93C0F7FF9E
:10043800000EF86E0F0EF76403D00800F55005D0D3
:10044800F6CFE9FFF7CFEAFFEF500001A16F0001F7
:10045800A151000AD8B495D2630AD8B4BBD7070A09
:10046800D8B40AD00D0AD8B407D01A0AD8B4A1D67D
:100478000B0AD8B49BD6C1D700019EBF20D090C02C
:10048800D9FF91C0DAFFDFCF92F0020EDE26DFCF70
:1004980093F0000EDD2292C0D9FF93C0DAFFDECFC1
:1004A8009CF0DDCF9DF000019DAF60D0030E0001F0
:1004B8009E1300019C6D9D1FD8B09D2B57D090C0F6
:1004C800D9FF91C0DAFFDFCF92F0020EDE26DFCF30
:1004D80093F0000EDD2292C0D9FF93C0DAFFDECF81
:1004E8009CF0DDCF9DF042D0010E0001A16F050EFA
:1004F8000001A119D8B443D00001A151020D480E42
:10050800F324F66EFE0EF420F76EF86A000EF82259
:100518000900F55000019C5D0900F55000019D5946
:10052800D8A02DD00001A12BE2D7010E0001A16FA8
:10053800040E0001A119D8B422D00001A151020D66
:10054800520EF324F66EFE0EF420F76EF86A000ED3
:10055800F8220900F55000019C5D0900F5500001E2
:100568009D59D8A00CD00001A12BE2D700019E51C3
:10057800800B000AD8B4B8D7800AD8B4D6D70001FF
:100588009F510001A011D8B40BD09EC092F0030E69
:1005980000019217D8B404D000019F07D8A0A00783
:1005A800800E0001A1BF7F0E0001926F00019F51D4
:1005B8000001A15D0001A051800A00019259D8B044
:1005C8000BD00001A15100019F5F000E0001A1BFE7
:1005D800FF0E0001A05B05D0000E0001A06F000E09
:1005E8009F6F00019EA582D09EC092F0030E00016D
:1005F8009217D8B438D0000120EE02F08C51D926D9
:100608008D51DA22DE50DE10D8B418D0000120EE69
:1006180002F08C51D9268D51DA22DECF92F0DDCF4F
:1006280093F001D820D00500FA6E00019251FD6EBA
:100638009351FE6EFF6AFA502D0E12008CC0D9FF3E
:100648008DC0DAFFDECF92F0DDCF93F092C0D9FFF4
:1006580093C0DAFF2D0EDF6E8CC0D9FF8DC0DAFF94
:10066800DE2A000EDD2200019F510001A011D8B43E
:10067800C4D0000120EE02F08C51D9268D51DA2227
:10068800DE50DE10D8B418D0000120EE02F08C51F4
:10069800D9268D51DA22DECF92F0DDCF93F001D842
:1006A80020D00500FA6E00019251FD6E9351FE6E46
:1006B800FF6AFA50300E12008CC0D9FF8DC0DAFFE5
:1006C800DECF92F0DDCF93F092C0D9FF93C0DAFF6E
:1006D800300EDF6E8CC0D9FF8DC0DAFFDE2A000E27
:1006E800DD2200019F07D8A0A007BDD700019F51B8
:1006F8000001A011D8B442D0000120EE02F08C51C4
:10070800D9268D51DA22DE50DE10D8B418D0000177
:1007180020EE02F08C51D9268D51DA22DECF92F0EC
:10072800DDCF93F001D820D00500FA6E0001925178
:10073800FD6E9351FE6EFF6AFA50200E12008CC0B7
:10074800D9FF8DC0DAFFDECF92F0DDCF93F092C0F3
:10075800D9FF93C0DAFF200EDF6E8CC0D9FF8DC0A1
:10076800DAFFDE2A000EDD2200019F07D8A0A007CD
:1007780000019F510001A011D8A4BED79EC092F0DD
:10078800030E00019217D8B438D0000120EE02F011
:100798008C51D9268D51DA22DE50DE10D8B418D00B
:1007A800000120EE02F08C51D9268D51DA22DECFDD
:1007B80092F0DDCF93F001D820D00500FA6E000149
:1007C8009251FD6E9351FE6EFF6AFA502D0E120083
:1007D8008CC0D9FF8DC0DAFFDECF92F0DDCF93F069
:1007E80092C0D9FF93C0DAFF2D0EDF6E8CC0D9FFFF
:1007F8008DC0DAFFDE2A000EDD22A1C097F098D066
:1008080000019751020D480EF324F66EFE0EF420F7
:10081800F76EF86A000EF8220900F5CF82F00A0098
:10082800F5CF83F09CC080F09DC081F02FEC1CF0C8
:1008380080C087F081C088F0000E00018A6F0A0E20
:10084800896FD7EC1CF000018751300F0001A16FB0
:1008580036D09CC080F09DC081F000019751020DF8
:10086800520EF324F66EFE0EF420F76EF86A000EB0
:10087800F8220900F5CF82F00A00F5CF83F02FECBB
:100888001CF0000180510F0B0001966F000196517A
:10089800010D490EF324F66EFF0EF420F76EF86A88
:1008A800000EF8220800F5CFA1F009D000019E51F2
:1008B800800B000AD8B4A4D7800AD8B4CAD70001DC
:1008C80020EE02F08C51D9268D51DA22DE50DE104E
:1008D800D8B419D0000120EE02F08C51D9268D51E0
:1008E800DA22DECF92F0DDCF93F001D821D00500D7
:1008F800FA6E00019251FD6E9351FE6EFF6AFA5036
:100908000001A15112008CC0D9FF8DC0DAFFDECFE3
:1009180092F0DDCF93F092C0D9FF93C0DAFFA1C067
:10092800DFFF8CC0D9FF8DC0DAFFDE2A000EDD2282
:100938000001970700019729D8A4B8D700018E5164
:100948000001926F00018F510001936F00018E4BDF
:100958008F2B92C0F6FF93C0F7FF000EF86E0F0EB4
:10096800F76403D00800F55005D0F6CFE9FFF7CFBC
:10097800EAFFEF500001A16F0001A151D8A40BEFCD
:1009880000F0000E00018D6F000E8C6F1200D6EF84
:1009980008F0250E2218D8B436D020EE02F00D50FB
:1009A800D9260E50DA22DE50DE10D8B416D020EE4A
:1009B80002F00D50D9260E50DA22DECF13F0DDCF2B
:1009C80014F001D8EFD30500FA6E1350FD6E1450E1
:1009D800FE6EFF6AFA50225012000DC0D9FF0EC0F9
:1009E800DAFFDECF13F0DDCF14F013C0D9FF14C047
:1009F800DAFF22C0DFFF0DC0D9FF0EC0DAFFDE2A02
:100A0800000EDD22CFD3000E216E000E206E000EE8
:100A18001F6E03D01F840F4A102A0FC0F6FF10C0A4
:100A2800F7FF000EF86E0F0EF76403D00800F550BC
:100A380005D0F6CFE9FFF7CFEAFFEF50300AD8B478
:100A4800E9D70FC0F6FF10C0F7FF000EF86E0F0EC3
:100A5800F76403D00800F55005D0F6CFE9FFF7CFCB
:100A6800EAFFEF50EFEC1EF0D8A054D1000E216E33
:100A7800000E206E20C001F021C002F0000E046EAE
:100A88000A0E036EDCEC1EF001C020F002C021F05B
:100A9800D00E136EFF0E146E0FC0F6FF10C0F7FFD6
:100AA800000EF86E0F0EF76403D00800F55005D05D
:100AB800F6CFE9FFF7CFEAFFEF50156E166A13502D
:100AC80015261450162215502026165021220F4A9A
:100AD800102A0FC0F6FF10C0F7FF000EF86E0F0EB9
:100AE800F76403D00800F55005D0F6CFE9FFF7CF3B
:100AF800EAFFEF50EFEC1EF0D8A00CD1BBD71F8E49
:100B080035D111C0D9FF12C0DAFFDFCF13F0020EC2
:100B1800DE26DFCF14F0000EDD2213C0D9FF14C08B
:100B2800DAFFDECF1BF0DDCF1CF01B501C10D8A461
:100B380004D0E50E1B6EFF0E1C6E000E1A6E000E22
:100B4800196E02D0194A1A2A19501B24136E1A500A
:100B58001C20146E13C0F6FF14C0F7FF000EF86EC9
:100B68000F0EF76403D00800F55005D0F6CFE9FF63
:100B7800F7CFEAFFEF500009D8A4E4D72050195C5A
:100B880021501A58D8B005D01950205E1A50215A51
:100B98003AD0000E216E000E206E35D020EE02F005
:100BA8000D50D9260E50DA22DE50DE10D8B416D0F9
:100BB80020EE02F00D50D9260E50DA22DECF13F0C7
:100BC800DDCF14F001D81FD00500FA6E1350FD6E6A
:100BD8001450FE6EFF6AFA50200E12000DC0D9FFA5
:100BE8000EC0DAFFDECF13F0DDCF14F013C0D9FF4B
:100BF80014C0DAFF200EDF6E0DC0D9FF0EC0DAFF79
:100C0800DE2A000EDD222006D8A021062028C6E113
:100C18002128D8B45BD0C2D720EE02F00D50D926D7
:100C28000E50DA22DE50DE10D8B429D020EE02F0C1
:100C38000D50D9260E50DA22DECF13F0DDCF14F096
:100C480001D81AD00500FA6E1350FD6E1450FE6ECE
:100C5800FF6AFA501BC0F6FF1CC0F7FF000EF86EC3
:100C68000F0EF76403D00800F55005D0F6CFE9FF62
:100C7800F7CFEAFFEF5012001B4A1C2A27D01BC0EF
:100C8800F6FF1CC0F7FF000EF86E0DC0D9FF0EC0AE
:100C9800DAFFDECF13F0DDCF14F013C0D9FF14C094
:100CA800DAFF0F0EF76403D00800F55005D0F6CF31
:100CB800E9FFF7CFEAFFEF50DF6E1B4A1C2A0DC091
:100CC800D9FF0EC0DAFFDE2A000EDD221906D8A0F1
:100CD8001A061928A1E11A28D8B464D29DD711C0E0
:100CE800D9FF12C0DAFFDFCF13F0020EDE26DFCF06
:100CF80014F0000EDD2213C0D9FF14C0DAFFDF5054
:100D0800226E220E1B6E000E1C6E000E1A6E010E55
:100D1800196E34D70F50136E1050146E0F4A102AE4
:100D280013C0F6FF14C0F7FF000EF86E0F0EF7643D
:100D380003D00800F55005D0F6CFE9FFF7CFEAFF5A
:100D4800EF50226E2250000AD8B448D2630AD8B4B1
:100D5800C6D7070AD8B40AD00D0AD8B407D01A0AD9
:100D6800D8B4CFD60B0AD8B4CAD6CBD71FBE1DD09D
:100D780011C0D9FF12C0DAFFDFCF13F0020EDE2652
:100D8800DFCF14F0000EDD2213C0D9FF14C0DAFF44
:100D9800DECF1DF0DDCF1EF01EAE52D0030E1F12A7
:100DA8001D6C1E1ED8B01E2A4BD011C0D9FF12C010
:100DB800DAFFDFCF13F0020EDE26DFCF14F0000ECD
:100DC800DD2213C0D9FF14C0DAFFDECF1DF0DDCF5E
:100DD8001EF036D0010E226E050E2218D8B438D077
:100DE8002250020D480EF324F66EFE0EF420F76E24
:100DF800F86A000EF8220900F5501D5C0900F5504C
:100E08001E58D8A025D0222AE7D7010E226E040E3C
:100E18002218D8B41DD02250020D520EF324F66EBB
:100E2800FE0EF420F76EF86A000EF8220900F5505D
:100E38001D5C0900F5501E58D8A00AD0222AE7D711
:100E48001F50800B000AD8B4C5D7800AD8B4DDD7A4
:100E580020502110D8B409D01FC013F0030E131668
:100E6800D8B403D02006D8A02106800E22BE7F0E5B
:100E7800136E2050225C2150800A1358D8B007D036
:100E88002250205E000E22BEFF0E215A04D0000E12
:100E9800216E000E206E1FA478D01FC013F0030E21
:100EA8001316D8B435D020EE02F00D50D9260E50C6
:100EB800DA22DE50DE10D8B416D020EE02F00D5043
:100EC800D9260E50DA22DECF13F0DDCF14F001D888
:100ED8001FD00500FA6E1350FD6E1450FE6EFF6AA7
:100EE800FA502D0E12000DC0D9FF0EC0DAFFDECF6A
:100EF80013F0DDCF14F013C0D9FF14C0DAFF2D0EA4
:100F0800DF6E0DC0D9FF0EC0DAFFDE2A000EDD222B
:100F180020502110D8B4B4D020EE02F00D50D926BC
:100F28000E50DA22DE50DE10D8B416D020EE02F0D1
:100F38000D50D9260E50DA22DECF13F0DDCF14F093
:100F480001D81FD00500FA6E1350FD6E1450FE6EC6
:100F5800FF6AFA50300E12000DC0D9FF0EC0DAFF3A
:100F6800DECF13F0DDCF14F013C0D9FF14C0DAFFC1
:100F7800300EDF6E0DC0D9FF0EC0DAFFDE2A000E7C
:100F8800DD222006D8A02106C3D720502110D8B4CE
:100F98003CD020EE02F00D50D9260E50DA22DE5059
:100FA800DE10D8B416D020EE02F00D50D9260E501F
:100FB800DA22DECF13F0DDCF14F001D81FD0050000
:100FC800FA6E1350FD6E1450FE6EFF6AFA50200E32
:100FD80012000DC0D9FF0EC0DAFFDECF13F0DDCF4F
:100FE80014F013C0D9FF14C0DAFF200EDF6E0DC055
:100FF800D9FF0EC0DAFFDE2A000EDD222006D8A0B7
:10100800210620502110D8A4C4D71FC013F0030E06
:101018001316D8B435D020EE02F00D50D9260E5054
:10102800DA22DE50DE10D8B416D020EE02F00D50D1
:10103800D9260E50DA22DECF13F0DDCF14F001D816
:101048001FD00500FA6E1350FD6E1450FE6EFF6A35
:10105800FA502D0E12000DC0D9FF0EC0DAFFDECFF8
:1010680013F0DDCF14F013C0D9FF14C0DAFF2D0E32
:10107800DF6E0DC0D9FF0EC0DAFFDE2A000EDD22BA
:1010880022C018F08BD01850020D480EF324F66ECB
:10109800FE0EF420F76EF86A000EF8220900F5CF6C
:1010A80003F00A00F5CF04F01DC001F01EC002F0E5
:1010B800B7EC1DF001C008F002C009F0000E0B6E7D
:1010C8000A0E0A6E2AEC1EF00850300F226E31D03C
:1010D8001DC001F01EC002F01850020D520EF3247C
:1010E800F66EFE0EF420F76EF86A000EF82209007C
:1010F800F5CF03F00A00F5CF04F0B7EC1DF001506E
:101108000F0B176E1750010D490EF324F66EFF0EE4
:10111800F420F76EF86A000EF8220800F5CF22F0E6
:1011280008D01F50800B000AD8B4ADD7800AD8B4B5
:10113800CFD720EE02F00D50D9260E50DA22DE501D
:10114800DE10D8B416D020EE02F00D50D9260E507D
:10115800DA22DECF13F0DDCF14F001D81FD005005E
:10116800FA6E1350FD6E1450FE6EFF6AFA5022504C
:1011780012000DC0D9FF0EC0DAFFDECF13F0DDCFAD
:1011880014F013C0D9FF14C0DAFF22C0DFFF0DC06E
:10119800D9FF0EC0DAFFDE2A000EDD221806182855
:1011A800D8A4BFD70F50136E1050146E0F4A102AD0
:1011B80013C0F6FF14C0F7FF000EF86E0F0EF764A9
:1011C80003D00800F55005D0F6CFE9FFF7CFEAFFC6
:1011D800EF50226E2250D8A4CDEF04F0000E0E6E10
:1011E800000E0D6E12000600FACF2DF0FBCF2EF088
:1011F800E9CF2FF0EACF30F0E1CF31F0E2CF32F093
:10120800D9CF33F0DACF34F0F3CF35F0F4CF36F06E
:10121800F6CF37F0F7CF38F0F8CF39F0F5CF3AF00E
:10122800F0A0E7D281380F0B0F0B3D6ECCD2000E29
:101238003C6E000E3B6E3CBE06D03C501DE1070ED6
:101248003B5CD8B019D0D8903B34D96E3C34DA6EB8
:101258001C0ED926010EDA22D8903B34E16E3C34BC
:10126800E26E0E0EE126010EE222DECFE6FFDDCFB2
:10127800E5FF3B4A3C2ADFD73D50010D370EF324EA
:10128800F66EFE0EF420F76EF86A000EF8220800DB
:10129800F550420AD8A412D00001EC510001EA5DD1
:1012A8000001EB51800A2B6E0001ED51800A2B588A
:1012B800D8B004D00001EA4BEB2B9AD23D50010D77
:1012C800370EF324F66EFE0EF420F76EF86A000E61
:1012D800F8220800F550410AD8A410D00001EBBF4D
:1012E8000DD00001EB5105E1020E0001EA5DD8A026
:1012F80005D00001EA07D8A0EB077AD23D50010DCE
:10130800370EF324F66EFE0EF420F76EF86A000E20
:10131800F8220800F550430AD8B41DD069D2730EDC
:1013280048D26C0E46D2630E44D2800E32EC1FF0C7
:10133800DD0E236EFF0E246E66EC1EF0C00E32EC3E
:101348001FF09A0E236EFF0E246E66EC1EF0900EB0
:1013580032EC1FF04DD2EAC02BF0EBC02CF02C5031
:10136800000AD8A4E2D72B50010AD8B4D8D7030A68
:10137800D8B4D7D7010AD8B4D6D7D7D7000E3C6E81
:10138800000E3B6E3CBE06D03C501DE1070E3B5C98
:10139800D8B019D0D8903B34D96E3C34DA6E1C0ED4
:1013A800D926010EDA22D8903B34E16E3C34E26E45
:1013B8000E0EE126010EE222DECFE6FFDDCFE5FFCD
:1013C8003B4A3C2ADFD73D50010D370EF324F66E19
:1013D800FE0EF420F76EF86A000EF8220800F550A9
:1013E800420AD8A412D00001E6510001E85D0001CC
:1013F800E951800A2B6E0001E751800A2B58D8B0BA
:1014080004D00001E84BE92BF3D13D50010D370E14
:10141800F324F66EFE0EF420F76EF86A000EF8223A
:101428000800F550410AD8A477D00001E9BF74D06C
:101438000001E95105E1020E0001E85DD8A06CD079
:101448000001E807D8A0E907D3D1000E3C6E000ED2
:101458003B6E3CBE06D03C501DE1070E3B5CD8B04D
:1014680019D0D8903B34D96E3C34DA6E1C0ED9268C
:10147800010EDA22D8903B34E16E3C34E26E0E0E57
:10148800E126010EE222DECFE6FFDDCFE5FF3B4A93
:101498003C2ADFD73D50010D370EF324F66EFE0EC1
:1014A800F420F76EF86A000EF8220800F550420A98
:1014B800D8A412D00001E2510001E05D0001E15121
:1014C800800A2B6E0001E351800A2B58D8B004D053
:1014D8000001E04BE12B8CD13D50010D370EF32478
:1014E800F66EFE0EF420F76EF86A000EF822080079
:1014F800F550410AD8A410D00001E1BF0DD0000179
:10150800E15105E1020E0001E05DD8A005D000011F
:10151800E007D8A0E1076CD13D50010D370EF32448
:10152800F66EFE0EF420F76EF86A000EF822080038
:10153800F550440AD8A45CD16D0E3BD13D50010D45
:10154800370EF324F66EFE0EF420F76EF86A000EDE
:10155800F8220800F550310AD8A412D00001F24B45
:10156800F32BF2C001F0F3C002F0000E046E640E1B
:10157800036E6BEC1CF001C0F2F002C0F3F038D13E
:101588003D50010D370EF324F66EFE0EF420F76E73
:10159800F86A000EF8220800F550320AD8A412D0D2
:1015A8000001F44BF52BF4C001F0F5C002F0000E79
:1015B800046E640E036E6BEC1CF001C0F4F002C004
:1015C800F5F016D13D50010D370EF324F66EFE0EE0
:1015D800F420F76EF86A000EF8220800F550340A75
:1015E800D8A412D00001FC4BFD2BFCC001F0FDC0BB
:1015F80002F0000E046E640E036E6BEC1CF001C06A
:10160800FCF002C0FDF0F4D03D50010D370EF3247C
:10161800F66EFE0EF420F76EF86A000EF822080047
:10162800F550350AD8A412D00001FE4BFF2BFEC09E
:1016380001F0FFC002F0000E046E640E036E6BEC46
:101648001CF001C0FEF002C0FFF0D2D03D50010DE9
:10165800370EF324F66EFE0EF420F76EF86A000ECD
:10166800F8220800F550370AD8B410D03D50010DC3
:10167800370EF324F66EFE0EF420F76EF86A000EAD
:10168800F8220800F550380AD8A402D0650E91D087
:101698003D50010D370EF324F66EFE0EF420F76E62
:1016A800F86A000EF8220800F550420AD8A410D0B3
:1016B8006D500001DC5D0001DD51800A2B6E6E501B
:1016C800800A2B58D8B004D00001DC4BDD2B90D019
:1016D8003D50010D370EF324F66EFE0EF420F76E22
:1016E800F86A000EF8220800F550410AD8A480D004
:1016F8000001DDBF7DD00001DD5105E1020E0001D2
:10170800DC5DD8A075D00001DC07D8A0DD0770D05B
:101718003D50010D370EF324F66EFE0EF420F76EE1
:10172800F86A000EF8220800F550420AD8A410D032
:1017380073500001E45D0001E551800A2B6E74507E
:10174800800A2B58D8B004D00001E44BE52B50D0C8
:101758003D50010D370EF324F66EFE0EF420F76EA1
:10176800F86A000EF8220800F550410AD8A410D0F3
:101778000001E5BF0DD00001E55105E1020E0001B1
:10178800E45DD8A005D00001E407D8A0E50730D073
:101798003D50010D370EF324F66EFE0EF420F76E61
:1017A800F86A000EF8220800F550430AD8A420D0A1
:1017B800720E0001DE6F1CD0B70E236EFF0E246E72
:1017C80066EC1EF015D00001DF51630AD8B43DD68F
:1017D800060AD8B49DD7090AD8B4D0D5010AD8B416
:1017E80026D51F0AD8B4A8D6010AD8B4A7D6E4D7F4
:1017F800F0903AC0F5FF39C0F8FF38C0F7FF37C09E
:10180800F6FF36C0F4FF35C0F3FF34C0DAFF33C04B
:10181800D9FF32C0E2FF31C0E1FF30C0EAFF2FC07C
:10182800E9FF2EC0FBFF2DC0FAFF7B92110071D299
:10183800620E0001A26F010E0001A36F920E00015B
:10184800A46FFE0E0001A56F62C0A6F00001A76B91
:1018580061C0A8F00001A96B60C0AAF00001AB6BE1
:101868008EEC1DF0740E0001A26F010E0001A36F33
:10187800A90E0001A46FFE0E0001A56F5EC0A6F0C0
:101888000001A76B5DC0A8F00001A96B5CC0AAF0BD
:101898000001AB6B8EEC1DF01200A2EC0EF01200F2
:1018A8000001DC050001DD11D8A44BD0620E000157
:1018B800A26F010E0001A36F610E0001A46FFE0E5E
:1018C8000001A56FFAC080F0FBC081F0000E000196
:1018D800836F3C0E826F85EC1AF080C0A6F081C041
:1018E800A7F0FAC080F0FBC081F0000E0001836F02
:1018F8003C0E826F95EC1BF080C0A8F081C0A9F067
:10190800F2C0AAF0F3C0ABF0F4C0ACF0F5C0ADF093
:101918008EEC1DF0740E0001A26F010E0001A36F82
:101928007B0E0001A46FFF0E0001A56FFCC0A6F09E
:10193800FDC0A7F0FEC0A8F0FFC0A9F08EEC1DF016
:101948001200020E0001DC190001DD11D8A42FD00D
:10195800620E0001A26F010E0001A36FC50E000107
:10196800A46FFF0E0001A56FF8C0A6F0F9C0A7F09C
:10197800F6C0A8F0F7C0A9F08EEC1DF0740E0001B7
:10198800A26F010E0001A36FA90E0001A46FFF0E44
:101998000001A56FF0C0A6F0F1C0A7F00AEC13F0A3
:1019A80086C0A8F087C0A9F08EEC1DF01200030EC7
:1019B8000001DC190001DD11D8A437D0620E000146
:1019C800A26F010E0001A36F5A0E0001A46FFF0E53
:1019D8000001A56F48C0A6F049C0A7F04AC0A8F00A
:1019E8004BC0A9F04CC0AAF04DC0ABF08EEC1DF076
:1019F800740E0001A26F010E0001A36F110E000109
:101A0800A46FFF0E0001A56F52C0A6F053C0A7F047
:101A180054C0A8F055C0A9F00AEC13F086C0AAF08B
:101A280087C0ABF08EEC1DF01200040E0001DC192B
:101A38000001DD11D8A42BD0620E0001A26F010EA7
:101A48000001A36FD10E0001A46FFF0E0001A56F66
:101A58003EC0A6F03FC0A7F08EEC1DF0740E00014A
:101A6800A26F010E0001A36F6B0E0001A46FFF0EA1
:101A78000001A56F34C1A6F035C1A7F00AEC13F038
:101A880086C0A8F087C0A9F08EEC1DF01200050EE4
:101A98000001DC190001DD11D8A437D0620E000165
:101AA800A26F010E0001A36F240E0001A46FFF0EA8
:101AB8000001A56F48C0A6F049C0A7F052C0A8F021
:101AC80053C0A9F03EC0AAF03FC0ABF034C1ACF09F
:101AD80035C1ADF08EEC1DF0740E0001A26F010E41
:101AE8000001A36F370E0001A46FFF0E0001A56F60
:101AF8002AC1A6F02BC1A7F00AEC13F086C0A8F003
:101B080087C0A9F08EEC1DF01200060E0001DC194A
:101B18000001DD11D8A41200000E0101876F000E2C
:101B2800866F080E0101886F010188510101D8B440
:101B380032D001018805B1EC1EF086C180F087C162
:101B480081F0000E0001836F0A0E826F4BEC1EF0CD
:101B580080C086F181C087F1C4CFCDF00001D89054
:101B6800CD33010E0001CD170001CD510001806F6A
:101B7800816B000E0001836F0A0E826F95EC1BF0DB
:101B8800000180510101862700018151010187234D
:101B980001018807C9D7620E0001A26F010E00017A
:101BA800A36FEC0E0001A46FFF0E0001A56F86C1A4
:101BB800A6F087C1A7F08EEC1DF0740E0001A26F8D
:101BC800010E0001A36F7A0E0001A46FFE0E000142
:101BD800A56F0001CD6B81AE02D00001CD2B010EA7
:101BE8000001CD170001CD510001A66FA76B81CF71
:101BF800CEF0060E0001CF6F0001D890CE33000161
:101C0800CF2FFAD7010E0001CE170001CE510001E7
:101C1800A86FA96B81CFD0F0050E0001D16F00012C
:101C2800D890D0330001D12FFAD7010E0001D01778
:101C38000001D0510001AA6FAB6B81CFD2F0000137
:101C4800D23B0F0ED217010E0001D2170001D2515C
:101C58000001AC6FAD6B040E816001D002D0010EA3
:101C680001D0000E0001D36FD46B010E0001D31513
:101C78000001AE6F0001AF6B81CFD5F00001D890A5
:101C8800D5330001D890D533010E0001D5170001D6
:101C9800D5510001B06FB16B81CFD6F00001D8905B
:101CA800D633010E0001D6170001D6510001B26FDC
:101CB800B36B81CFD7F0010E0001D7170001D751C0
:101CC8000001B46FB56B0AEC13F086C0B6F087C09C
:101CD800B7F08EEC1DF01200620E0001A26F010E2B
:101CE8000001A36FF30E0001A46FFF0E0001A56FA2
:101CF8008EEC1DF0740E0001A26F010E0001A36F9F
:101D08008B0E0001A46FFF0E0001A56F8EEC1DF075
:101D180012000001DF51630AD8B4BFD5060AD8B44F
:101D2800BCD5090AD8B4B9D5010AD8B4B6D51F0AA2
:101D3800D8B47ED5010AD8B4B3D5CED7000E0001E9
:101D4800C46F000EC36F49D0000E0001C86F010EAA
:101D5800C76FE80E0001CB6F000E0001CC6FE60ED6
:101D68000001C56F000E36D0000E0001C86F020ECC
:101D7800C76FE00E0001CB6F000E0001CC6FE20EC2
:101D88000001C56F000E26D0000E0001C86F000EBE
:101D9800C76FEA0E0001CB6F000E0001CC6FEC0E8E
:101DA8000001C56F000E0001C66F000E0001C46F70
:101DB800010EC36F1FD0000E0001C86F030EC76F5E
:101DC800E40E0001CB6F000E0001CC6F730E000112
:101DD800C56F000E0001C66F0DD00001DF51630A08
:101DE800D8B4C2D7060AD8B4E6D7090AD8B4ACD74B
:101DF800010ACAD70001C3510001C411D8B44AD19D
:101E0800C5C0D9FFC6C0DAFFCBC0E1FFCCC0E2FF36
:101E1800DE50E65CE650800A0001C26FDE50800AA0
:101E28000001C259D8B096D0C7C080F0C8C081F0B0
:101E3800000E0001836FB40E826F4BEC1EF08A0E09
:101E48000001BE6F010E0001BF6F0001805100014B
:101E5800BE27000181510001BF23CBC0D9FFCCC0F0
:101E6800DAFFDECFC0F0DDCFC1F0FF0E0001C025E4
:101E78000001806FFF0E0001C1210001816F000E7B
:101E88000001836F120E826F4BEC1EF0000180512F
:101E98000001BE250001C96F000181510001BF2169
:101EA8000001CA6F620E0001A26F010E0001A36F4C
:101EB800F90E0001A46FFF0E0001A56FC9C0A6F0BE
:101EC800CAC0A7F0000E0001A96F3C0EA86F8EECE7
:101ED8001DF0C7C080F0C8C081F0000E0001836FFC
:101EE800B40E826F4BEC1EF08A0E0001BE6F010E1D
:101EF8000001BF6F000180510001BE270001815120
:101F08000001BF23CBC0D9FFCCC0DAFFDECF80F001
:101F1800DDCF81F0000E0001836F120E826F4BEC53
:101F28001EF0000180510001BE250001C96F0001AB
:101F380081510001BF210001CA6F740E0001A26F18
:101F4800010E0001A36FC9C0A4F0CAC0A5F08EECB1
:101F58001DF01200C7C080F0C8C081F0000E00015B
:101F6800836FB40E826F4BEC1EF08A0E0001BE6FB9
:101F7800010E0001BF6F000180510001BE27000162
:101F880081510001BF23CBC0D9FFCCC0DAFFDECF1F
:101F9800C0F0DDCFC1F0FE0E0001C0250001806F4A
:101FA800FF0E0001C1210001816F000E0001836F47
:101FB800120E826F4BEC1EF0000180510001BE250D
:101FC8000001C96F000181510001BF210001CA6FE2
:101FD800620E0001A26F010E0001A36FC9C0A4F038
:101FE800CAC0A5F08EEC1DF0C7C080F0C8C081F053
:101FF800000E0001836FB40E826F4BEC1EF08A0E48
:102008000001BE6F010E0001BF6F00018051000189
:10201800BE27000181510001BF23CBC0D9FFCCC02E
:10202800DAFFDECFC0F0DDCFC1F0FF0E0001C02522
:102038000001806FFF0E0001C1210001816F000EB9
:102048000001836F120E826F4BEC1EF0000180516D
:102058000001BE250001C96F000181510001BF21A7
:102068000001CA6F740E0001A26F010E0001A36F78
:10207800F90E0001A46FFF0E0001A56FC9C0A6F0FC
:10208800CAC0A7F0000E0001A96F3C0EA86F8EEC25
:102098001DF01200C7C080F0C8C081F0000E00011A
:1020A800836FB40E826F4BEC1EF08A0E0001BE6F78
:1020B800010E0001BF6F000180510001BE27000121
:1020C80081510001BF23CBC0D9FFCCC0DAFFDECFDE
:1020D800C0F0DDCFC1F0FF0E0001C0250001806F08
:1020E800FF0E0001C1210001816F000E0001836F06
:1020F800120E826F4BEC1EF0000180510001BE25CC
:102108000001C96F000181510001BF210001CA6FA0
:10211800620E0001A26F010E0001A36FF90E00010B
:10212800A46FFF0E0001A56FC9C0A6F0CAC0A7F032
:10213800000E0001A96F5E0EA86F8EEC1DF0C7C0DF
:1021480080F0C8C081F0000E0001836FB40E826F6A
:102158004BEC1EF08A0E0001BE6F010E0001BF6F2E
:10216800000180510001BE27000181510001BF23F9
:10217800CBC0D9FFCCC0DAFFDECF80F0DDCF81F055
:10218800000E0001836F120E826F4BEC1EF00001EF
:1021980080510001BE250001C96F00018151000175
:1021A800BF210001CA6F740E0001A26F010E000169
:1021B800A36FF90E0001A46FFF0E0001A56FC9C03F
:1021C800A6F0CAC0A7F0000E0001A96F5E0EA86FA6
:1021D8008EEC1DF012000001F1BF0AD00001F15190
:1021E80005E1330E0001F05DD8A002D089861ED02B
:1021F8000001F1BF0AD00001F15105E11A0E0001FA
:10220800F05DD8A002D0899611D00001F1BF0ED0A0
:102218000001F15104E10001F005D8A007D0898838
:102228000001F0050001F111D8B4899852504824F2
:102238000001946F535049200001956F000194519B
:1022480000019511D8B443D00001F6510001F711EF
:10225800D8A43DD00001F9BF08D00001F95137E1F9
:102268001A0E0001F85DD8B032D077C0F6F078C009
:10227800F7F0000E0001996F000E986F000199BFEA
:1022880008D00001995123E1070E0001985DD8B0EC
:102298001ED0D89000019835D96E00019935DA6EB4
:1022A8001C0ED926010EDA22D89000019835E16E6D
:1022B80000019935E26E000EE126010EE222DECF22
:1022C800E6FFDDCFE5FF0001984B992BD7D700013A
:1022D800F6050001F711D8A441D00AEC13F086C026
:1022E800EEF087C0EFF00001EE510001EF11D8B415
:1022F80032D00001F8510001F911D8A42CD079C0CE
:10230800F8F07AC0F9F00001EE050001EF11D8A449
:1023180003D00001F24BF32B020E0001EE1900016D
:10232800EF11D8A403D00001F44BF52B030E0001E4
:10233800EE190001EF11D8A403D00001FC4BFD2BCE
:10234800040E0001EE190001EF11D8A407D0000116
:10235800FE4BFF2B03D00001F64BF72B190E0001A3
:10236800F8190001F911D8A405D075C0F0F076C0AD
:10237800F1F0D1D00001F9BF29D00001F95105E1F0
:10238800580E0001F85DD8A021D0FF0E0001EE25FF
:102398000001806FFF0E0001EF210001816F000E28
:1023A8000001836F030E826F95EC1BF0010E000194
:1023B800946F0001802B03D00001D890943700015E
:1023C800802FFAD7000194518B12A5D00001F9BFD4
:1023D8002BD00001F95105E14C0E0001F85DD8A0A1
:1023E80023D0FF0E0001EE250001806FFF0E0001D3
:1023F800EF210001816F000E0001836F030E826FD1
:1024080095EC1BF0010E0001946F0001802B03D0A6
:102418000001D89094370001802FFAD70001945119
:10242800FF0A8B168C8077D00001F9BF0BD0000112
:10243800F95105E13F0E0001F85DD8A003D08C905A
:102448008B8A69D00001F9BF0AD00001F95105E172
:10245800330E0001F85DD8A002D08B9A5CD0000141
:10246800F9BF08D00001F95156E11A0E0001F85DD4
:10247800D8B051D00001F9BF4ED00001F95104E1A4
:102488000001F805D8A047D0FF0E0001EE25000195
:10249800806FFF0E0001EF210001816F000E000127
:1024A800836F030E826F95EC1BF0010E0001946F91
:1024B8000001802B03D00001D89094370001802FB1
:1024C800FAD7000194518D120001F8050001F911A5
:1024D800D8A421D0FF0E0001EE250001806FFF0E69
:1024E8000001EF210001816F000E0001836F030ED0
:1024F800826F95EC1BF0010E0001946F0001802B98
:1025080003D00001D89094370001802FFAD700013A
:102518009451FF0A8D160001F1BF0BD00001F15153
:1025280004E10001F005D8A004D00001F007D8A00C
:10253800F1070001F7BF0BD00001F75104E10001DA
:10254800F605D8A004D00001F607D8A0F7070001C7
:10255800F9BF0BD00001F95104E10001F805D8A03A
:1025680004D00001F807D8A0F90700C194F001C110
:1025780095F00001941F951F944B952B1EC180F078
:102588001FC181F0000E0001836F3C0E826F4BEC7F
:102598001EF080C096F081C097F002C180F003C1A0
:1025A80081F0000E0001836F3C0E826F4BEC1EF031
:1025B8000001801F0001811F0001804B812B000159
:1025C80080510001962700018151000197230001E5
:1025D80094510001962700019551000197230101AC
:1025E8001C510001962701011D510001972300018C
:1025F80097BF12000001975105E10F0E0001965D8B
:10260800D8A01200650E0001DE6F1200000E000156
:10261800936F000E926F000E00018A6F040E000186
:102628008A6501D012D000018A51020D480EF324A8
:10263800D96E000EF420DA6EDE5000019227DD50CC
:102648000001932300018A2BE9D792C080F093C040
:1026580081F0000E0001836F050E826F95EC1BF070
:102668000001805100018111D8B406D0000E00018C
:10267800876F000E866F1200000E00018B6F040E2C
:1026880000018B6501D012D000018B51020D520E52
:10269800F324D96E000EF420DA6EDE500001922782
:1026A800DD500001932300018B2BE9D792C080F005
:1026B80093C081F0000E0001836F050E826F95ECC8
:1026C8001BF00001805100018111D8B406D0000E22
:1026D8000001876F000E866F1200000E00018C6FDC
:1026E800040E00018C6501D019D000018C51020D37
:1026F8002A0EF324D96E010EF420DA6E6B50DE5CDC
:102708006C50DE58D8B002D0010E01D0000E000186
:102718009227000E932300018C2BE2D792C080F001
:1027280093C081F0000E0001836F050E826F95EC57
:102738001BF00001805100018111D8B406D0000EB1
:102748000001876F000E866F1200000E00018D6F6A
:10275800040E00018D6501D019D000018D51020DC4
:102768002A0EF324D96E010EF420DA6E6950DE5C6D
:102778006A50DE58D8B002D0010E01D0000E000118
:102788009227000E932300018D2BE2D792C080F090
:1027980093C081F0000E0001836F050E826F95ECE7
:1027A8001BF00001805100018111D8B406D0000E41
:1027B8000001876F000E866F1200000E00018E6FF9
:1027C800040E00018E6501D01BD000018E51020D50
:1027D8003E0EF324D96E000EF420DA6E0001DA51B1
:1027E800DE5C0001DB51DE58D8B002D0010E01D00A
:1027F800000E00019227000E932300018E2BE0D7D4
:1028080092C080F093C081F0000E0001836F050E26
:10281800826F95EC1BF00001805100018111D8B442
:1028280006D0000E0001876F000E866F1200000EA2
:1028380000018F6F040E00018F6501D01BD00001CD
:102848008F51020D3E0EF324D96E000EF420DA6E7D
:102858000001D851DE5C0001D951DE58D8B002D051
:10286800010E01D0000E00019227000E93230001F3
:102878008F2BE0D792C080F093C081F0000E00014A
:10288800836F050E826F95EC1BF0000180510001EB
:102898008111D8B406D0000E0001876F000E866F34
:1028A8001200000E0001906F040E0001906501D027
:1028B8001BD000019051020D340EF324D96E010E85
:1028C800F420DA6E0001DA51DE5C0001DB51DE58DB
:1028D800D8B002D0010E01D0000E00019227000EE0
:1028E80093230001902BE0D792C080F093C081F031
:1028F800000E0001836F050E826F95EC1BF000013E
:10290800805100018111D8B406D0000E0001876FF4
:10291800000E866F1200000E0001916F040E000178
:10292800916501D01BD000019151020D3E0EF32498
:10293800D96E000EF420DA6E0001D851DE5C000179
:10294800D951DE58D8B002D0010E01D0000E0001D6
:102958009227000E93230001912BE0D792C080F0BC
:1029680093C081F0000E0001836F050E826F95EC15
:102978001BF00001805100018111D8B406D0000E6F
:102988000001876F000E866F1200000E0001936F22
:10299800020E926F01012A51695C01012B516A589C
:1029A800D8B006D0000E0001876F000E866F1200A7
:1029B80001012A516B5C01012B516C58D8B005D02C
:1029C80052500001925F535004D048500001925F6A
:1029D80049500001935B3E500001D85D3F50000113
:1029E800D959D8A028D0010134510001D85D01017E
:1029F80035510001D959D8A01ED00001DA513E5CEA
:102A08000001DB513F58D8B010D00001DA51010164
:102A1800345D0001DB5101013559D8B006D0020EF2
:102A280000019227000E932306D0000E0001876F45
:102A3800000E866F120092C086F093C087F01200D5
:102A4800730E0001DE19D8A405D0730E0001DF193A
:102A5800D8A40AD06D0E0001DE19D8A44BD06D0E93
:102A68000001DF19D8B446D0000E0001C06F060E71
:102A78000001C06501D03ED00001C051020D1C0EFE
:102A8800F324D96E010EF420DA6E0001C051020D54
:102A98000E0EF324E16E010EF420E26EDECFE6FFA7
:102AA800DDCFE5FF0001C051020D1C0EF324D96EE5
:102AB800010EF420DA6E0001C051020D000EF3245D
:102AC800E16E010EF420E26EDECFE6FFDDCFE5FF1A
:102AD800000E0001F16F4B0EF06F000E0001F76F52
:102AE800000EF66F000E0001F96F000EF86F00017E
:102AF800C02BBDD70001F4510001F2250001BE6FC3
:102B08000001F5510001F3210001BF6F0001FC51E4
:102B18000001BE270001FD510001BF230001FE5145
:102B28000001BE25656E0001FF510001BF21666EE0
:102B380065C080F066C081F0000E0001836F640EEE
:102B4800826F95EC1BF080C065F081C066F0730E53
:102B58000001DF19D8A40ED00001FBBF0BD0000183
:102B6800FB5105E1B40E0001FA5DD8A003D0650E53
:102B78000001DE6F650E0001DE19D8A473D0650E62
:102B88000001DF19D8B46ED0FAC063F0FBC064F05E
:102B9800A60E0001A26F030E0001A36FFE0E000136
:102BA800A46FFE0E0001A56F65C0A6F066C0A7F071
:102BB8008EEC1DF0B80E0001A26F030E0001A36F8A
:102BC800C00E0001A46FFE0E0001A56F63C080F067
:102BD80064C081F0000E0001836F3C0E826F85ECAB
:102BE8001AF080C0A6F081C0A7F0FAC080F0FBC040
:102BF80081F0000E0001836F3C0E826F95EC1BF094
:102C080080C0A8F081C0A9F08EEC1DF0CA0E0001AA
:102C1800A26F030E0001A36FD60E0001A46FFE0E73
:102C28000001A56FF2C0A6F0F3C0A7F0F4C0A8F0A9
:102C3800F5C0A9F08EEC1DF0DC0E0001A26F030EAA
:102C48000001A36FEA0E0001A46FFE0E0001A56F3C
:102C5800FCC0A6F0FDC0A7F0FEC0A8F0FFC0A9F018
:102C68008EEC1DF06D0E0001DF19D8B40AD06C0E81
:102C78000001DF19D8B405D0630E0001DF19D8A40C
:102C88000ED00001FBBF0BD00001FB5105E10A0E7D
:102C98000001FA5DD8A003D0720E0001DE6F6D0E40
:102CA8000001DE19D8B419D06C0E0001DE19D8B4B1
:102CB80014D0630E0001DE19D8B40FD0000E000145
:102CC800EB6F010EEA6F000E0001E96F010EE86F6D
:102CD800000E0001E16F010EE06F730E0001DE19B6
:102CE800D8B405D0000E0001DD6F010EDC6F650E53
:102CF8000001DE19D8B405D0000E0001E56F010E01
:102D0800E46FDEC0DFF0720E0001DF19D8A41200F4
:102D1800000E0001F36F000EF26F000E0001F56F58
:102D2800000EF46F000E0001FD6F000EFC6F000E28
:102D38000001FF6F000EFE6F1200312E20536F72DC
:102D4800742020202020202020000000322E205037
:102D5800204C6F6773202020202020000000332E95
:102D680020437265646974732020202020000000CD
:102D7800000000000000000000000000000000004B
:102D8800000000000000000000000000000000003B
:102D9800000000000000000000000000000000002B
:102DA800000000000000000000000000000000001B
:102DB800000000000000000000000000000000000B
:102DC80000000000000000000000000000000000FB
:102DD80000000000000000000000000000000000EB
:102DE8000000000000000000000000000000657600
:102DF800656E743120202020202020202000000033
:102E08006576656E74322020202020202020200046
:102E180000006576656E7433202020202020202055
:102E2800200000000000000000000000000000007A
:102E3800000000000000000000000000000000008A
:102E4800000000000000000000000000000000007A
:102E5800000000000000000000000000000000006A
:102E6800000000000000000000000000000000005A
:102E7800000000000000000000000000000000004A
:102E8800000000000000000000000000000000003A
:102E9800000000000000000000000000000000002A
:102EA80000004D6963726F636F6E74726F6C3A20C5
:102EB80020000000436C656D656E742057616E20BC
:102EC80020202000000043697263756974733A20FA
:102ED80020202020200000004A757374696E20515C
:102EE80075202020202020000000456C6563747246
:102EF8006F6D6563683A2020200000005065746596
:102F0800722046656E672020202020000000000007
:102F180000000000000000000000000000000000A9
:102F28000000000000000000000000000000000099
:102F38000000000000000000000000000000000089
:102F48000000000000000000000000000000000079
:102F58000000000000000000000000000000000069
:102F68000000000000000000000000000000000059
:102F78000000000000000000000000000000000049
:102F88000000000000000000000000000000000039
:102F98000000000000000000000000000000000029
:102FA8000000000000000000000000000000000019
:102FB8000000000000000000000000000000000009
:102FC80000000000000000000000000000000000F9
:102FD80000000000000000000000000000000000E9
:102FE80000000000000000000000000000000000D9
:102FF80000000000000000000000000000000000C9
:1030080000000000000000000000730E0001DF193E
:10301800D8A41200040E0001866F00018651000139
:10302800D8B4DFD0FE0E0001826FFF0E0001836F5F
:10303800000186510001846F856BD89000018437A8
:103048008537000182510001842700018351000166
:103058008523480E00018425D96E000E00018521C4
:10306800DA6E00018651020D480EF324E16E000E5F
:10307800F420E26EDECFE6FFDDCFE5FFFE0E0001B5
:10308800826FFF0E0001836F000186510001846F7B
:10309800856BD89000018437853700018251000183
:1030A80084270001835100018523520E00018425E5
:1030B800D96E000E00018521DA6E00018651020DDD
:1030C800520EF324E16E000EF420E26EDECFE6FF2E
:1030D800DDCFE5FFFE0E0001826FFF0E0001836F5A
:1030E800000186510001846F856BD89000018437F8
:1030F80085370001825100018427000183510001B6
:1031080085232A0E00018425D96E010E0001852130
:10311800DA6E00018651020D2A0EF324E16E010ECB
:10312800F420E26EDECFE6FFDDCFE5FFFE0E000104
:10313800826FFF0E0001836F000186510001846FCA
:10314800856BD890000184378537000182510001D2
:10315800842700018351000185233E0E0001842548
:10316800D96E000E00018521DA6E00018651020D2C
:103178003E0EF324E16E000EF420E26EDECFE6FF91
:10318800DDCFE5FFFE0E0001826FFF0E0001836FA9
:10319800000186510001846F856BD8900001843747
:1031A8008537000182510001842700018351000105
:1031B8008523340E00018425D96E010E0001852176
:1031C800DA6E00018651020D340EF324E16E010E11
:1031D800F420E26EDECFE6FFDDCFE5FF00018607D3
:1031E8001CD76750B1EC1EF0C4500001836F826B8E
:1031F800C3500001822501012A6F000E00018321BE
:1032080001012B6F7050B1EC1EF0C4500001836FA8
:10321800826BC350000182253E6E000E000183219F
:103228003F6E7150B1EC1EF0C4500001836F826B89
:10323800C350000182250101346F000E0001832173
:103248000101356F68C082F081CF83F00001822BC5
:1032580003D00001D89083330001822FFAD7010EE2
:103268000001831700018351486E496A72C082F0D9
:1032780081CF83F00001822B03D00001D8908333E3
:103288000001822FFAD7010E000183170001835134
:10329800526E536A120041EC1FF0000E0001826F5B
:1032A800D00E816F38EC1FF0000E0001826F000E07
:1032B800816F38EC1FF03DEC1FF041EC1FF0000E61
:1032C8000001826FD10E816F38EC1FF0000E0001F3
:1032D8008A6F050E00018A6501D047D000018A5126
:1032E800010D5C0EF324D96E000EF420DA6E010E87
:1032F8009AEC1EF0DF6E00018A51010D5C0EF3247A
:10330800D96E000EF420DA6EDF500F0B0001866FC5
:10331800876B00018A51010D5C0EF324D96E000EF3
:10332800F420DA6EDF500001886F0001883B0F0E31
:1033380088170F0E00018817000188510A0DF350F5
:1033480000018627F4500001872300018A51020DED
:103358001C0EF324D96E010EF420DA6E86C0DEFF4F
:1033680087C0DDFF00018A2BB4D70EC186F00FC1DC
:1033780087F00001861F871F864B872B1EC180F0B0
:103388001FC181F0000E0001836F3C0E826F4BEC71
:103398001EF080C088F081C089F010C180F011C192
:1033A80081F0000E0001836F3C0E826F4BEC1EF023
:1033B8000001801F0001811F0001804B812B00014B
:1033C80080510001882700018151000189230001F3
:1033D80086510001882700018751000189230101D6
:1033E8001C51000188250001FA6F01011D510001DF
:1033F80089210001FB6F000E9AEC1EF0626E3DEC15
:103408001FF01200000E0001AC6F000EAB6F3E0EF5
:103418000001806F010E0001816F620E0001826F52
:10342800010E0001836F38EC1DF00001805100018E
:103438008111D8B413D03E0E0001806F010E000137
:10344800816F620E0001826F010E0001836F81ECB3
:103458001EF0000E0001AC6F010EAB6F500E0001A4
:10346800806F010E0001816F740E0001826F010EE2
:103478000001836F38EC1DF00001805100018111BB
:10348800D8B413D0500E0001806F010E0001816F77
:10349800740E0001826F010E0001836F81EC1EF033
:1034A800000E0001AC6F010EAB6F0001AB510001C3
:1034B800AC11D8B41200010E1EEC1FF0210E000151
:1034C800AA6F760EE82EFED7AA2FFCD700F0800E42
:1034D8001EEC1FF03E0E0001A26F010E0001A36F4B
:1034E800E0EC1DF0C00E1EEC1FF0500E0001A26FA4
:1034F800010E0001A36FE0EC1DF0900E1EEC1FF012
:103508001200000E0001856F000183AF08D0000192
:10351800826D831FD8B0832B010E0001856F0001D7
:1035280081AF08D00001806D811FD8B0812B010EBA
:103538000001851B000E0001876F000E866F0001D9
:10354800825100018311D8B42CD0010E0001846F80
:1035580006D00001D890823783370001842B000100
:1035680083AFF7D70001D89086378737000182519B
:103578000001805D0001835100018159D8A00AD063
:10358800000182510001805F000183510001815BCD
:10359800000186810001D890833382330001842F93
:1035A800E1D7000185510001D8B405D00001866D2E
:1035B800871FD8B0872B86C080F087C081F01200A3
:1035C800000E0001886F000E896F000E8A6F000ED2
:1035D8008B6F0001845100018511000186110001E3
:1035E8008711D8B442D0010E00018C6F08D00001B9
:1035F800D890843785378637873700018C2B0001B0
:1036080087AFF5D70001D890883789378A378B3745
:10361800000184510001805D00018551000181593C
:103628000001865100018259000187510001835928
:10363800D8A012D0000184510001805F000185519B
:103648000001815B000186510001825B0001875106
:103658000001835B000188810001D890873386339D
:103668008533843300018C2FCDD788C080F089C082
:1036780081F08AC082F08BC083F01200000E766E53
:103688004B0E756E000E7A6E640E796E000E786EB3
:10369800110E776EE70E926E000E946E000E956E08
:1036A80093689668000E8A6E000E8D6E000EC26ECC
:1036B8000B0EC16E000EB56EB496C08E05EC1EF0F2
:1036C800F086F19E100E00018D6F270E8E6F000E92
:1036D8008F6F000E906F08EC1DF021D0F29E4FEC1A
:1036E80019F0730E0001DF19D8A404D009EC18F002
:1036F800EFEC10F024EC15F01BEC0CF006EC1AF0D3
:10370800780E0001DF19D8B4FBD7F28E620E0101E2
:10371800896F650EE82EFED7892FFCD700D0F29E60
:10372800DDD7000E0001856F000181AF08D00001D0
:10373800806D811FD8B0812B010E0001856F0001BB
:1037480083AF05D00001826D831FD8B0832B0001A1
:10375800825100018311D8B426D0010E0001846F74
:1037680006D00001D890823783370001842B0001EE
:1037780083AFF7D7000182510001805D00018351BA
:1037880000018159D8A008D0000182510001805F52
:10379800000183510001815B0001D890833382339B
:1037A8000001842FE7D7000185510001D8B405D066
:1037B8000001806D811FD8B0812B80C080F081C04E
:1037C80081F01200420EF66E2D0EF76E000EF86EA6
:1037D80001EE8AF012EED0F00900F5CFEEFFE550C9
:1037E800E150FAE1E250F8E1FC0EF66E3D0EF76E9C
:1037F800000EF86E00EED8F010EE16F00900F5CFC6
:10380800EEFFE550E150FAE14C0EF66E3E0EF76E13
:10381800000EF86E00EE69F010EE0CF00900F5CF1E
:10382800EEFFE550E150FAE101EE00F0860EEE6A97
:10383800E806FDE100EEEEF0120EEE6AE806FDE1A4
:1038480000EE3EF02B0EEE6AE806FDE17B907B92DF
:10385800000142EF1BF0000E0001866F000E856F1D
:103868000001825100018311D8B42CD0010E00014F
:10387800846F06D00001D890823783370001842BEB
:10388800000183AFF7D70001D8908537863700014C
:1038980082510001805D0001835100018159D8A047
:1038A8000AD0000182510001805F000183510001AC
:1038B800815B000185810001D89083338233000148
:1038C800842FE1D785C080F086C081F01200000EF9
:1038D800066E02AE06D0016C021ED8B0022A010E96
:1038E800066E04AE04D0036C041ED8B0042A03503C
:1038F8000410D8B418D0010E056E04D0D890033641
:103908000436052A04AEFAD70350015C0450025865
:10391800D8A004D00350015E0450025AD890043253
:103928000332052EF1D70650D8B404D0016C021E1C
:10393800D8B0022A01C001F002C002F01200000152
:10394800816F00018151F00B0001806F8C500F0BCB
:103958008C6E000180518C108C6E8C96140EE82EA3
:10396800FED700D08C86140EE82EFED700D00001BA
:103978008139F00B0001816F00018151F00B0001CA
:10398800806F8C500F0B8C6E000180518C108C6EE8
:103998008C96140EE82EFED700D08C86140EE82ED6
:1039A800FED700D012000001895100018A11D8B455
:1039B80026D0010E00018B6F06D00001D890893700
:1039C8008A3700018B2B00018AAFF7D70001895194
:1039D8000001875D00018A5100018859D8A008D0EC
:1039E800000189510001875F00018A510001885B4D
:1039F8000001D8908A33893300018B2FE7D787C01D
:103A080087F088C088F01200000EC76E280EC66EB8
:103A1800000EC56E800E0001806F960E816F980EA5
:103A2800826F000E836F8DC091F08EC092F08FC0B0
:103A380093F090C094F0020ED8900001913792371D
:103A480093379437E82EF8D791C084F092C085F068
:103A580093C086F094C087F0E4EC1AF0000180056A
:103A6800C86E94869488120006D00001804B812B82
:103A78000001824B832B80C0D9FF81C0DAFFDF5061
:103A88000001846F82C0D9FF83C0DAFFDF500008CD
:103A9800000184250001856F00018551D8A407D055
:103AA80080C0D9FF81C0DAFFDF50D8A4DED700017B
:103AB80085510001806F816B80BF81071200026E03
:103AC8000250F00B016E8C500F0B8C6E01508C1055
:103AD8008C6E8C96140EE82EFED700D08C86140EB1
:103AE800E82EFED700D00238F00B026E0250F00B21
:103AF800016E8C500F0B8C6E01508C108C6E8C9656
:103B0800140EE82EFED700D08C86140EE82EFED7B1
:103B180000D01200A2C0BAF0A3C0BBF0000E000192
:103B2800BC6F000E0001BD6FA60E0001B86F000E3D
:103B38000001B96FBA0E00018C6F000E00018D6F85
:103B4800A4C08EF0A5C08FF0B80E0001906F000ED3
:103B58000001916F09EC00F0BAC0D9FFBBC0DAFFD1
:103B6800000EDF6E1200000E066E000E056E03508A
:103B78000410D8B41CD0010E076E04D0D8900336B8
:103B88000436072A04AEFAD7D8900536063603500D
:103B9800015C04500258D8A005D00350015E0450BF
:103BA800025A0580D89004320332072EEDD705C09B
:103BB80001F006C002F01200000E0001A66F000E10
:103BC8000001A76F120E0001A86F3E0E0001A96F39
:103BD800A40E0001A46F000E0001A56FA60E00013F
:103BE8008C6F000E00018D6FA2C08EF0A3C08FF005
:103BF800A40E0001906F000E0001916F09EC00F017
:103C08001200310E0001836FB20EE82EFED7832F0B
:103C1800FCD700F0330E1EEC1FF0320E1EEC1FF026
:103C2800280E1EEC1FF00F0E1EEC1FF0060E1EECE9
:103C38001FF0010E1EEC1FF0310E0001836FB20E53
:103C4800E82EFED7832FFCD700F012000A500B1085
:103C5800D8B418D0010E0C6E04D0D8900A360B36A2
:103C68000C2A0BAEFAD70A50085C0B500958D8A09A
:103C780004D00A50085E0B50095AD8900B320A3209
:103C88000C2EF1D708C008F009C009F01200000195
:103C9800805100018203F3CF84F0F4CF85F0000156
:103CA800805100018303F3500001852700018151F1
:103CB80000018203F3500001852784C080F085C08D
:103CC80081F01200000E276E000E286E580E296E25
:103CD8003E0E2A6E250E256E000E266E270E0D6EE0
:103CE800000E0E6E23C00FF024C010F0250E116ECA
:103CF800000E126ECBEC04F0120080C084F081C07C
:103D080085F006D00001844B852B0001824B832B64
:103D180082C0D9FF83C0DAFF84C0E1FF85C0E2FF1B
:103D2800DFCFE7FFE750D8B41200ECD70001816F6E
:103D380014EC1FF0C58614EC1FF0C9CF82F014EC08
:103D48001FF0000181510001D8A402D0C58A01D01A
:103D5800C59AC5880001825112000001816F0001D7
:103D68008145E846FC0BC26EC280C28209D0110EA2
:103D78000001806F3A0EE82EFED7802FFCD700F0A6
:103D8800C2A21200F4D70001826F000E0001816FF9
:103D98003A0E0001826107D02F0E0001826503D020
:103DA800010E0001816F81C080F000018031120096
:103DB80001500302F3CF05F0F4CF06F001500402DE
:103DC800F350062602500302F350062605C001F000
:103DD80006C002F01200036E000E026E3A0E036077
:103DE80005D02F0E036402D0010E026E02C001F04E
:103DF80001301200FF02FF0001007272010005008D
:103E0800010002000100010003007BB22CEF1FF04B
:103E18000001826F8C8400018251A3EC1CF0120017
:103E2800C7B4FED7C5CF80F01F0E00018017D8B4E5
:103E38001200F6D70001826F8C9400018251A3EC26
:103E48001CF01200FF02FF00060005010202030039
:103E5800036E8C84035063EC1DF01200036E8C9487
:103E6800035063EC1DF0120014EC1FF081C0C9FF71
:103E7800120014EC1FF0C584120014EC1FF0C5806A
:023E8800120026
:10FE3600003132334134353642373839432A30239C
:10FE4600440001000A006400E803102701001000C6
:10FE5600000100100033140328021725643A2530E8
:10FE6600326420656E3A253032642065633A253067
:10FE760032642000423A256425642564256425649D
:10FE8600256425642564204D3A25640025303278A2
:10FE96002F253032782F2530327820505553482080
:10FEA600544F00253032783A253032783A253032B0
:10FEB6007820202053544152540072756E20746984
:10FEC6006D653A20253031643A25303264200000D1
:10FED600656E3A253032642065633A2530326420F7
:10FEE60020202000796E3A253032642079633A2545
:10FEF6003032642020202000626F74746C65733A7F
:10FF0600202530326420202020000050325B302D26
:10FF1600315D3A25642C2564204D3A25640050490C
:10FF2600523A256425642C253034642C25303464FB
:10FF360000444953545B305D3A25303464204D3AD1
:10FF460025640030313233343536373839616263EF
:10FF56006465660050315B302D325D3A25642C2590
:10FF6600642C2564004952325B305D3A2530346496
:10FF76004D3A256400796E3A253032642079633A29
:10FF86002530326400454D455247454E435920536E
:10FF9600544F50006D656E752073656C65637469AA
:10FFA6006F6E0044433A2564204D4541533A25641B
:10FFB600006E6F207061676520666F756E64005213
:10FFC600433A2564204D433A2564004952315B305B
:10FFD6005D3A2530346400696E76616C6964002888
:10FFE6006E756C6C2900413A2530376400455252D3
:09FFF6004F520025732563000041
:020000040020DA
:08000000FFFFFFFFFFFFFFFF00
:020000040030CA
:0E000000FF021F1EFF8381FF0FC00FE00F40A5
:00000001FF
