:0400000007EF00F016
:100008007B82F7ED08F00AEF1BF0A2EF04F0250E53
:100018000001A119D8B43CD0000120EE02F08C51A7
:10002800D9268D51DA22DE50DE10D8B41AD000015C
:1000380020EE02F08C51D9268D51DA22DECF92F0D3
:10004800DDCF93F002D8A2EF04F00500FA6E0001AC
:100058009251FD6E9351FE6EFF6AFA500001A15154
:1000680012008CC0D9FF8DC0DAFFDECF92F0DDCF51
:1000780093F092C0D9FF93C0DAFFA1C0DFFF8CC014
:10008800D9FF8DC0DAFFDE2A000EDD22A2EF04F0D0
:10009800000E0001A06F000E9F6F000E00019E6F02
:1000A80005D000019E8500018E4B8F2B8EC0F6FF78
:1000B8008FC0F7FF000EF86E0F0EF76403D008002C
:1000C800F55005D0F6CFE9FFF7CFEAFFEF50300A39
:1000D800D8B4E7D78EC0F6FF8FC0F7FF000EF86ED2
:1000E8000F0EF76403D00800F55005D0F6CFE9FFEE
:1000F800F7CFEAFFEF501CEC1EF0D8A08AD1000E13
:100108000001A06F000E9F6F9FC080F0A0C081F01B
:10011800000E0001836F0A0E826FA0EC1DF080C0F4
:100128009FF081C0A0F0D00E0001926FFF0E000179
:10013800936F8EC0F6FF8FC0F7FF000EF86E0F0E9C
:10014800F76403D00800F55005D0F6CFE9FFF7CFE4
:10015800EAFFEF500001946F956B00019251000186
:100168009427000193510001952300019451000147
:100178009F27000195510001A02300018E4B8F2B72
:100188008EC0F6FF8FC0F7FF000EF86E0F0EF764F3
:1001980003D00800F55005D0F6CFE9FFF7CFEAFF06
:1001A800EF501CEC1EF0D8A034D1AED700019E8FC2
:1001B80063D190C0D9FF91C0DAFFDFCF92F0020E71
:1001C800DE26DFCF93F0000EDD2292C0D9FF93C068
:1001D800DAFFDECF9AF0DDCF9BF000019A510001E3
:1001E8009B11D8A406D0ED0E00019A6FFF0E0001F6
:1001F8009B6F000E0001996F000E986F03D00001ED
:10020800984B992B0001985100019A250001926F93
:100218000001995100019B210001936F92C0F6FFE4
:1002280093C0F7FF000EF86E0F0EF76403D00800B6
:10023800F55005D0F6CFE9FFF7CFEAFFEF500009F8
:10024800D8A4DDD700019F510001985D0001A0519D
:1002580000019959D8B009D00001985100019F5F59
:10026800000199510001A05B3ED0000E0001A06F73
:10027800000E9F6F38D0000120EE02F08C51D92675
:100288008D51DA22DE50DE10D8B418D0000120EEED
:1002980002F08C51D9268D51DA22DECF92F0DDCFD3
:1002A80093F001D820D00500FA6E00019251FD6E3E
:1002B8009351FE6EFF6AFA50200E12008CC0D9FFCF
:1002C8008DC0DAFFDECF92F0DDCF93F092C0D9FF78
:1002D80093C0DAFF200EDF6E8CC0D9FF8DC0DAFF25
:1002E800DE2A000EDD2200019F07D8A0A00700012A
:1002F8009F29C1E10001A029D8B460D0BCD7000172
:1003080020EE02F08C51D9268D51DA22DE50DE1013
:10031800D8B42CD0000120EE02F08C51D9268D5192
:10032800DA22DECF92F0DDCF93F001D81BD00500A2
:10033800FA6E00019251FD6E9351FE6EFF6AFA50FB
:100348009AC0F6FF9BC0F7FF000EF86E0F0EF76419
:1003580003D00800F55005D0F6CFE9FFF7CFEAFF44
:10036800EF50120000019A4B9B2B28D09AC0F6FF41
:100378009BC0F7FF000EF86E8CC0D9FF8DC0DAFF66
:10038800DECF92F0DDCF93F092C0D9FF93C0DAFFB1
:100398000F0EF76403D00800F55005D0F6CFE9FF3B
:1003A800F7CFEAFFEF50DF6E00019A4B9B2B8CC012
:1003B800D9FF8DC0DAFFDE2A000EDD220001980782
:1003C800D8A09907000198299AE100019929D8B481
:1003D800B5D295D790C0D9FF91C0DAFFDFCF92F0A0
:1003E800020EDE26DFCF93F0000EDD2292C0D9FF89
:1003F80093C0DAFFDF500001A16FA10E00019A6FD0
:10040800000E00019B6F000E0001996F010E986F9E
:1004180019D700018E510001926F00018F51000120
:10042800936F00018E4B8F2B92C0F6FF93C0F7FF9E
:10043800000EF86E0F0EF76403D00800F55005D0D3
:10044800F6CFE9FFF7CFEAFFEF500001A16F0001F7
:10045800A151000AD8B495D2630AD8B4BBD7070A09
:10046800D8B40AD00D0AD8B407D01A0AD8B4A1D67D
:100478000B0AD8B49BD6C1D700019EBF20D090C02C
:10048800D9FF91C0DAFFDFCF92F0020EDE26DFCF70
:1004980093F0000EDD2292C0D9FF93C0DAFFDECFC1
:1004A8009CF0DDCF9DF000019DAF60D0030E0001F0
:1004B8009E1300019C6D9D1FD8B09D2B57D090C0F6
:1004C800D9FF91C0DAFFDFCF92F0020EDE26DFCF30
:1004D80093F0000EDD2292C0D9FF93C0DAFFDECF81
:1004E8009CF0DDCF9DF042D0010E0001A16F050EFA
:1004F8000001A119D8B443D00001A151020D680E22
:10050800F324F66EFE0EF420F76EF86A000EF82259
:100518000900F55000019C5D0900F55000019D5946
:10052800D8A02DD00001A12BE2D7010E0001A16FA8
:10053800040E0001A119D8B422D00001A151020D66
:10054800720EF324F66EFE0EF420F76EF86A000EB3
:10055800F8220900F55000019C5D0900F5500001E2
:100568009D59D8A00CD00001A12BE2D700019E51C3
:10057800800B000AD8B4B8D7800AD8B4D6D70001FF
:100588009F510001A011D8B40BD09EC092F0030E69
:1005980000019217D8B404D000019F07D8A0A00783
:1005A800800E0001A1BF7F0E0001926F00019F51D4
:1005B8000001A15D0001A051800A00019259D8B044
:1005C8000BD00001A15100019F5F000E0001A1BFE7
:1005D800FF0E0001A05B05D0000E0001A06F000E09
:1005E8009F6F00019EA582D09EC092F0030E00016D
:1005F8009217D8B438D0000120EE02F08C51D926D9
:100608008D51DA22DE50DE10D8B418D0000120EE69
:1006180002F08C51D9268D51DA22DECF92F0DDCF4F
:1006280093F001D820D00500FA6E00019251FD6EBA
:100638009351FE6EFF6AFA502D0E12008CC0D9FF3E
:100648008DC0DAFFDECF92F0DDCF93F092C0D9FFF4
:1006580093C0DAFF2D0EDF6E8CC0D9FF8DC0DAFF94
:10066800DE2A000EDD2200019F510001A011D8B43E
:10067800C4D0000120EE02F08C51D9268D51DA2227
:10068800DE50DE10D8B418D0000120EE02F08C51F4
:10069800D9268D51DA22DECF92F0DDCF93F001D842
:1006A80020D00500FA6E00019251FD6E9351FE6E46
:1006B800FF6AFA50300E12008CC0D9FF8DC0DAFFE5
:1006C800DECF92F0DDCF93F092C0D9FF93C0DAFF6E
:1006D800300EDF6E8CC0D9FF8DC0DAFFDE2A000E27
:1006E800DD2200019F07D8A0A007BDD700019F51B8
:1006F8000001A011D8B442D0000120EE02F08C51C4
:10070800D9268D51DA22DE50DE10D8B418D0000177
:1007180020EE02F08C51D9268D51DA22DECF92F0EC
:10072800DDCF93F001D820D00500FA6E0001925178
:10073800FD6E9351FE6EFF6AFA50200E12008CC0B7
:10074800D9FF8DC0DAFFDECF92F0DDCF93F092C0F3
:10075800D9FF93C0DAFF200EDF6E8CC0D9FF8DC0A1
:10076800DAFFDE2A000EDD2200019F07D8A0A007CD
:1007780000019F510001A011D8A4BED79EC092F0DD
:10078800030E00019217D8B438D0000120EE02F011
:100798008C51D9268D51DA22DE50DE10D8B418D00B
:1007A800000120EE02F08C51D9268D51DA22DECFDD
:1007B80092F0DDCF93F001D820D00500FA6E000149
:1007C8009251FD6E9351FE6EFF6AFA502D0E120083
:1007D8008CC0D9FF8DC0DAFFDECF92F0DDCF93F069
:1007E80092C0D9FF93C0DAFF2D0EDF6E8CC0D9FFFF
:1007F8008DC0DAFFDE2A000EDD22A1C097F098D066
:1008080000019751020D680EF324F66EFE0EF420D7
:10081800F76EF86A000EF8220900F5CF82F00A0098
:10082800F5CF83F09CC080F09DC081F053EC1BF0A5
:1008380080C087F081C088F0000E00018A6F0A0E20
:10084800896FFBEC1BF000018751300F0001A16F8D
:1008580036D09CC080F09DC081F000019751020DF8
:10086800720EF324F66EFE0EF420F76EF86A000E90
:10087800F8220900F5CF82F00A00F5CF83F053EC97
:100888001BF0000180510F0B0001966F000196517B
:10089800010D510EF324F66EFF0EF420F76EF86A80
:1008A800000EF8220800F5CFA1F009D000019E51F2
:1008B800800B000AD8B4A4D7800AD8B4CAD70001DC
:1008C80020EE02F08C51D9268D51DA22DE50DE104E
:1008D800D8B419D0000120EE02F08C51D9268D51E0
:1008E800DA22DECF92F0DDCF93F001D821D00500D7
:1008F800FA6E00019251FD6E9351FE6EFF6AFA5036
:100908000001A15112008CC0D9FF8DC0DAFFDECFE3
:1009180092F0DDCF93F092C0D9FF93C0DAFFA1C067
:10092800DFFF8CC0D9FF8DC0DAFFDE2A000EDD2282
:100938000001970700019729D8A4B8D700018E5164
:100948000001926F00018F510001936F00018E4BDF
:100958008F2B92C0F6FF93C0F7FF000EF86E0F0EB4
:10096800F76403D00800F55005D0F6CFE9FFF7CFBC
:10097800EAFFEF500001A16F0001A151D8A40BEFCD
:1009880000F0000E00018D6F000E8C6F1200D6EF84
:1009980008F0250E2218D8B436D020EE02F00D50FB
:1009A800D9260E50DA22DE50DE10D8B416D020EE4A
:1009B80002F00D50D9260E50DA22DECF13F0DDCF2B
:1009C80014F001D8EFD30500FA6E1350FD6E1450E1
:1009D800FE6EFF6AFA50225012000DC0D9FF0EC0F9
:1009E800DAFFDECF13F0DDCF14F013C0D9FF14C047
:1009F800DAFF22C0DFFF0DC0D9FF0EC0DAFFDE2A02
:100A0800000EDD22CFD3000E216E000E206E000EE8
:100A18001F6E03D01F840F4A102A0FC0F6FF10C0A4
:100A2800F7FF000EF86E0F0EF76403D00800F550BC
:100A380005D0F6CFE9FFF7CFEAFFEF50300AD8B478
:100A4800E9D70FC0F6FF10C0F7FF000EF86E0F0EC3
:100A5800F76403D00800F55005D0F6CFE9FFF7CFCB
:100A6800EAFFEF5044EC1EF0D8A054D1000E216EDE
:100A7800000E206E20C001F021C002F0000E046EAE
:100A88000A0E036E31EC1EF001C020F002C021F006
:100A9800D00E136EFF0E146E0FC0F6FF10C0F7FFD6
:100AA800000EF86E0F0EF76403D00800F55005D05D
:100AB800F6CFE9FFF7CFEAFFEF50156E166A13502D
:100AC80015261450162215502026165021220F4A9A
:100AD800102A0FC0F6FF10C0F7FF000EF86E0F0EB9
:100AE800F76403D00800F55005D0F6CFE9FFF7CF3B
:100AF800EAFFEF5044EC1EF0D8A00CD1BBD71F8EF4
:100B080035D111C0D9FF12C0DAFFDFCF13F0020EC2
:100B1800DE26DFCF14F0000EDD2213C0D9FF14C08B
:100B2800DAFFDECF1BF0DDCF1CF01B501C10D8A461
:100B380004D0ED0E1B6EFF0E1C6E000E1A6E000E1A
:100B4800196E02D0194A1A2A19501B24136E1A500A
:100B58001C20146E13C0F6FF14C0F7FF000EF86EC9
:100B68000F0EF76403D00800F55005D0F6CFE9FF63
:100B7800F7CFEAFFEF500009D8A4E4D72050195C5A
:100B880021501A58D8B005D01950205E1A50215A51
:100B98003AD0000E216E000E206E35D020EE02F005
:100BA8000D50D9260E50DA22DE50DE10D8B416D0F9
:100BB80020EE02F00D50D9260E50DA22DECF13F0C7
:100BC800DDCF14F001D81FD00500FA6E1350FD6E6A
:100BD8001450FE6EFF6AFA50200E12000DC0D9FFA5
:100BE8000EC0DAFFDECF13F0DDCF14F013C0D9FF4B
:100BF80014C0DAFF200EDF6E0DC0D9FF0EC0DAFF79
:100C0800DE2A000EDD222006D8A021062028C6E113
:100C18002128D8B45BD0C2D720EE02F00D50D926D7
:100C28000E50DA22DE50DE10D8B429D020EE02F0C1
:100C38000D50D9260E50DA22DECF13F0DDCF14F096
:100C480001D81AD00500FA6E1350FD6E1450FE6ECE
:100C5800FF6AFA501BC0F6FF1CC0F7FF000EF86EC3
:100C68000F0EF76403D00800F55005D0F6CFE9FF62
:100C7800F7CFEAFFEF5012001B4A1C2A27D01BC0EF
:100C8800F6FF1CC0F7FF000EF86E0DC0D9FF0EC0AE
:100C9800DAFFDECF13F0DDCF14F013C0D9FF14C094
:100CA800DAFF0F0EF76403D00800F55005D0F6CF31
:100CB800E9FFF7CFEAFFEF50DF6E1B4A1C2A0DC091
:100CC800D9FF0EC0DAFFDE2A000EDD221906D8A0F1
:100CD8001A061928A1E11A28D8B464D29DD711C0E0
:100CE800D9FF12C0DAFFDFCF13F0020EDE26DFCF06
:100CF80014F0000EDD2213C0D9FF14C0DAFFDF5054
:100D0800226E220E1B6E000E1C6E000E1A6E010E55
:100D1800196E34D70F50136E1050146E0F4A102AE4
:100D280013C0F6FF14C0F7FF000EF86E0F0EF7643D
:100D380003D00800F55005D0F6CFE9FFF7CFEAFF5A
:100D4800EF50226E2250000AD8B448D2630AD8B4B1
:100D5800C6D7070AD8B40AD00D0AD8B407D01A0AD9
:100D6800D8B4CFD60B0AD8B4CAD6CBD71FBE1DD09D
:100D780011C0D9FF12C0DAFFDFCF13F0020EDE2652
:100D8800DFCF14F0000EDD2213C0D9FF14C0DAFF44
:100D9800DECF1DF0DDCF1EF01EAE52D0030E1F12A7
:100DA8001D6C1E1ED8B01E2A4BD011C0D9FF12C010
:100DB800DAFFDFCF13F0020EDE26DFCF14F0000ECD
:100DC800DD2213C0D9FF14C0DAFFDECF1DF0DDCF5E
:100DD8001EF036D0010E226E050E2218D8B438D077
:100DE8002250020D680EF324F66EFE0EF420F76E04
:100DF800F86A000EF8220900F5501D5C0900F5504C
:100E08001E58D8A025D0222AE7D7010E226E040E3C
:100E18002218D8B41DD02250020D720EF324F66E9B
:100E2800FE0EF420F76EF86A000EF8220900F5505D
:100E38001D5C0900F5501E58D8A00AD0222AE7D711
:100E48001F50800B000AD8B4C5D7800AD8B4DDD7A4
:100E580020502110D8B409D01FC013F0030E131668
:100E6800D8B403D02006D8A02106800E22BE7F0E5B
:100E7800136E2050225C2150800A1358D8B007D036
:100E88002250205E000E22BEFF0E215A04D0000E12
:100E9800216E000E206E1FA478D01FC013F0030E21
:100EA8001316D8B435D020EE02F00D50D9260E50C6
:100EB800DA22DE50DE10D8B416D020EE02F00D5043
:100EC800D9260E50DA22DECF13F0DDCF14F001D888
:100ED8001FD00500FA6E1350FD6E1450FE6EFF6AA7
:100EE800FA502D0E12000DC0D9FF0EC0DAFFDECF6A
:100EF80013F0DDCF14F013C0D9FF14C0DAFF2D0EA4
:100F0800DF6E0DC0D9FF0EC0DAFFDE2A000EDD222B
:100F180020502110D8B4B4D020EE02F00D50D926BC
:100F28000E50DA22DE50DE10D8B416D020EE02F0D1
:100F38000D50D9260E50DA22DECF13F0DDCF14F093
:100F480001D81FD00500FA6E1350FD6E1450FE6EC6
:100F5800FF6AFA50300E12000DC0D9FF0EC0DAFF3A
:100F6800DECF13F0DDCF14F013C0D9FF14C0DAFFC1
:100F7800300EDF6E0DC0D9FF0EC0DAFFDE2A000E7C
:100F8800DD222006D8A02106C3D720502110D8B4CE
:100F98003CD020EE02F00D50D9260E50DA22DE5059
:100FA800DE10D8B416D020EE02F00D50D9260E501F
:100FB800DA22DECF13F0DDCF14F001D81FD0050000
:100FC800FA6E1350FD6E1450FE6EFF6AFA50200E32
:100FD80012000DC0D9FF0EC0DAFFDECF13F0DDCF4F
:100FE80014F013C0D9FF14C0DAFF200EDF6E0DC055
:100FF800D9FF0EC0DAFFDE2A000EDD222006D8A0B7
:10100800210620502110D8A4C4D71FC013F0030E06
:101018001316D8B435D020EE02F00D50D9260E5054
:10102800DA22DE50DE10D8B416D020EE02F00D50D1
:10103800D9260E50DA22DECF13F0DDCF14F001D816
:101048001FD00500FA6E1350FD6E1450FE6EFF6A35
:10105800FA502D0E12000DC0D9FF0EC0DAFFDECFF8
:1010680013F0DDCF14F013C0D9FF14C0DAFF2D0E32
:10107800DF6E0DC0D9FF0EC0DAFFDE2A000EDD22BA
:1010880022C018F08BD01850020D680EF324F66EAB
:10109800FE0EF420F76EF86A000EF8220900F5CF6C
:1010A80003F00A00F5CF04F01DC001F01EC002F0E5
:1010B8000CEC1DF001C008F002C009F0000E0B6E28
:1010C8000A0E0A6E7FEC1DF00850300F226E31D0E8
:1010D8001DC001F01EC002F01850020D720EF3245C
:1010E800F66EFE0EF420F76EF86A000EF82209007C
:1010F800F5CF03F00A00F5CF04F00CEC1DF0015019
:101108000F0B176E1750010D510EF324F66EFF0EDC
:10111800F420F76EF86A000EF8220800F5CF22F0E6
:1011280008D01F50800B000AD8B4ADD7800AD8B4B5
:10113800CFD720EE02F00D50D9260E50DA22DE501D
:10114800DE10D8B416D020EE02F00D50D9260E507D
:10115800DA22DECF13F0DDCF14F001D81FD005005E
:10116800FA6E1350FD6E1450FE6EFF6AFA5022504C
:1011780012000DC0D9FF0EC0DAFFDECF13F0DDCFAD
:1011880014F013C0D9FF14C0DAFF22C0DFFF0DC06E
:10119800D9FF0EC0DAFFDE2A000EDD221806182855
:1011A800D8A4BFD70F50136E1050146E0F4A102AD0
:1011B80013C0F6FF14C0F7FF000EF86E0F0EF764A9
:1011C80003D00800F55005D0F6CFE9FFF7CFEAFFC6
:1011D800EF50226E2250D8A4CDEF04F0000E0E6E10
:1011E800000E0D6E12000600FACF2DF0FBCF2EF088
:1011F800E9CF2FF0EACF30F0E1CF31F0E2CF32F093
:10120800D9CF33F0DACF34F0F3CF35F0F4CF36F06E
:10121800F6CF37F0F7CF38F0F8CF39F0F5CF3AF00E
:10122800F0A0E9D281380F0B0F0B3D6ECED2000E25
:101238003C6E000E3B6E3CBE06D03C501DE1070ED6
:101248003B5CD8B019D0D8903B34D96E3C34DA6EB8
:101258003E0ED926000EDA22D8903B34E16E3C349B
:10126800E26E0E0EE126010EE222DECFE6FFDDCFB2
:10127800E5FF3B4A3C2ADFD73D50010D570EF324CA
:10128800F66EFE0EF420F76EF86A000EF8220800DB
:10129800F550420AD8A412D00001F4510001F25DC1
:1012A8000001F351800A2B6E0001F551800A2B587A
:1012B800D8B004D00001F24BF32B9CD23D50010D65
:1012C800570EF324F66EFE0EF420F76EF86A000E41
:1012D800F8220800F550410AD8A410D00001F3BF45
:1012E8000DD00001F35105E1020E0001F25DD8A016
:1012F80005D00001F207D8A0F3077CD23D50010DBC
:10130800570EF324F66EFE0EF420F76EF86A000E00
:10131800F8220800F550430AD8B41DD06BD2730EDA
:101328004AD26C0E48D2630E46D2800E84EC1EF070
:10133800E50E236EFF0E246EBBEC1DF0C00E84EC90
:101348001EF0A20E236EFF0E246EBBEC1DF0900E55
:1013580084EC1EF04FD2F2C02BF0F3C02CF02C50CE
:10136800000AD8A4E2D72B50010AD8B4D8D7030A68
:10137800D8B4D7D7010AD8B4D6D7D7D7000E3C6E81
:10138800000E3B6E3CBE06D03C501DE1070E3B5C98
:10139800D8B019D0D8903B34D96E3C34DA6E3E0EB2
:1013A800D926000EDA22D8903B34E16E3C34E26E46
:1013B8000E0EE126010EE222DECFE6FFDDCFE5FFCD
:1013C8003B4A3C2ADFD73D50010D570EF324F66EF9
:1013D800FE0EF420F76EF86A000EF8220800F550A9
:1013E800420AD8A412D00001EE510001F05D0001BC
:1013F800F151800A2B6E0001EF51800A2B58D8B0AA
:1014080004D00001F04BF12BF5D13D50010D570EE2
:10141800F324F66EFE0EF420F76EF86A000EF8223A
:101428000800F550410AD8A477D00001F1BF74D064
:101438000001F15105E1020E0001F05DD8A06CD069
:101448000001F007D8A0F107D5D1000E3C6E000EC0
:101458003B6E3CBE06D03C501DE1070E3B5CD8B04D
:1014680019D0D8903B34D96E3C34DA6E3E0ED9266A
:10147800000EDA22D8903B34E16E3C34E26E0E0E58
:10148800E126010EE222DECFE6FFDDCFE5FF3B4A93
:101498003C2ADFD73D50010D570EF324F66EFE0EA1
:1014A800F420F76EF86A000EF8220800F550420A98
:1014B800D8A412D00001E8510001E65D0001E7510F
:1014C800800A2B6E0001E951800A2B58D8B004D04D
:1014D8000001E64BE72B8ED13D50010D570EF3244A
:1014E800F66EFE0EF420F76EF86A000EF822080079
:1014F800F550410AD8A410D00001E7BF0DD0000173
:10150800E75105E1020E0001E65DD8A005D0000113
:10151800E607D8A0E7076ED13D50010D570EF3241A
:10152800F66EFE0EF420F76EF86A000EF822080038
:10153800F550440AD8A45ED16D0E3DD13D50010D41
:10154800570EF324F66EFE0EF420F76EF86A000EBE
:10155800F8220800F550310AD8A412D00001C84B6F
:10156800C92BC8C001F0C9C002F0000E046E640E99
:10157800036E8FEC1BF001C0C8F002C0C9F03AD16D
:101588003D50010D570EF324F66EFE0EF420F76E53
:10159800F86A000EF8220800F550320AD8A412D0D2
:1015A8000001CA4BCB2BCAC001F0CBC002F0000E21
:1015B800046E640E036E8FEC1BF001C0CAF002C00B
:1015C800CBF018D13D50010D570EF324F66EFE0EE8
:1015D800F420F76EF86A000EF8220800F550340A75
:1015E800D8A412D00001D64BD72BD6C001F0D7C053
:1015F80002F0000E046E640E036E8FEC1BF001C047
:10160800D6F002C0D7F0F6D03D50010D570EF324A6
:10161800F66EFE0EF420F76EF86A000EF822080047
:10162800F550350AD8A412D00001D84BD92BD8C010
:1016380001F0D9C002F0000E046E640E036E8FEC48
:101648001BF001C0D8F002C0D9F0D4D03D50010D34
:10165800570EF324F66EFE0EF420F76EF86A000EAD
:10166800F8220800F550370AD8B410D03D50010DC3
:10167800570EF324F66EFE0EF420F76EF86A000E8D
:10168800F8220800F550380AD8A402D0650E93D085
:101698003D50010D570EF324F66EFE0EF420F76E42
:1016A800F86A000EF8220800F550420AD8A410D0B3
:1016B80073500001E25D0001E351800A2B6E745003
:1016C800800A2B58D8B004D00001E24BE32B92D00B
:1016D8003D50010D570EF324F66EFE0EF420F76E02
:1016E800F86A000EF8220800F550410AD8A482D002
:1016F8000001E3BF7FD00001E35105E1020E0001C4
:10170800E25DD8A077D00001E207D8A0E30772D045
:101718003D50010D570EF324F66EFE0EF420F76EC1
:10172800F86A000EF8220800F550420AD8A412D030
:101738000001EC510001EA5D0001EB51800A2B6EBB
:101748000001ED51800A2B58D8B004D00001EA4BB3
:10175800EB2B50D03D50010D570EF324F66EFE0EC4
:10176800F420F76EF86A000EF8220800F550410AD6
:10177800D8A410D00001EBBF0DD00001EB5105E15A
:10178800020E0001EA5DD8A005D00001EA07D8A042
:10179800EB0730D03D50010D570EF324F66EFE0EC8
:1017A800F420F76EF86A000EF8220800F550430A94
:1017B800D8A420D0720E0001E46F1CD0BF0E236E97
:1017C800FF0E246EBBEC1DF015D00001E551630A35
:1017D800D8B43BD6060AD8B49BD7090AD8B4CED514
:1017E800010AD8B424D51F0AD8B4A6D6010AD8B499
:1017F800A5D6E4D7F0903AC0F5FF39C0F8FF38C055
:10180800F7FF37C0F6FF36C0F4FF35C0F3FF34C02A
:10181800DAFF33C0D9FF32C0E2FF31C0E1FF30C088
:10182800EAFF2FC0E9FF2EC0FBFF2DC0FAFF7B9215
:101838001100000E01016F6F000E6E6F49D0000E8F
:101848000101736F010E726FF00E0101766F000EC9
:101858000101776FEE0E0101706F000E36D0000E99
:101868000101736F020E726FE60E0101766F000EB2
:101878000101776FE80E0101706F000E26D0000E8F
:101888000101736F000E726FF20E0101766F000E88
:101898000101776FF40E0101706F000E0101716F85
:1018A800000E01016F6F010E6E6F1FD0000E010157
:1018B800736F030E726FEA0E0101766F000E01015D
:1018C800776FEC0E0101706F000E0101716F0DD082
:1018D8000001E551630AD8B4C2D7060AD8B4E6D7DE
:1018E800090AD8B4ACD7010ACAD701016E5101015F
:1018F8006F11D8B44AD170C1D9FF71C1DAFF76C16E
:10190800E1FF77C1E2FFDE50E65CE650800A0001A5
:10191800B86FDE50800A0001B859D8B096D072C1AD
:1019280080F073C181F0000E0001836FB40E826FE6
:10193800A0EC1DF0780E0001B46F010E0001B56F28
:10194800000180510001B427000181510001B52335
:1019580076C1D9FF77C1DAFFDECFB6F0DDCFB7F0B9
:10196800FF0E0001B6250001806FFF0E0001B721B0
:101978000001816F000E0001836F120E826FA0ECD0
:101988001DF0000180510001B4250101746F0001B0
:1019980081510001B5210101756F4A0E0001A26F46
:1019A800010E0001A36FFA0E0001A46FFF0E0001E3
:1019B800A56F74C1A6F075C1A7F0000E0001A96F4C
:1019C8003C0EA86FE3EC1CF072C180F073C181F08B
:1019D800000E0001836FB40E826FA0EC1DF0780E2C
:1019E8000001B46F010E0001B56F000180510001C4
:1019F800B427000181510001B52376C1D9FF77C111
:101A0800DAFFDECF80F0DDCF81F0000E0001836FBA
:101A1800120E826FA0EC1DF0000180510001B42568
:101A28000101746F000181510001B5210101756F39
:101A38005C0E0001A26F010E0001A36F74C1A4F037
:101A480075C1A5F0E3EC1CF0120072C180F073C1FF
:101A580081F0000E0001836FB40E826FA0EC1DF0C0
:101A6800780E0001B46F010E0001B56F00018051BE
:101A78000001B427000181510001B52376C1D9FFC7
:101A880077C1DAFFDECFB6F0DDCFB7F0FE0E00018A
:101A9800B6250001806FFF0E0001B7210001816F9C
:101AA800000E0001836F120E826FA0EC1DF0000182
:101AB80080510001B4250101746F000181510001BA
:101AC800B5210101756F4A0E0001A26F010E0001D8
:101AD800A36F74C1A4F075C1A5F0E3EC1CF072C14A
:101AE80080F073C181F0000E0001836FB40E826F25
:101AF800A0EC1DF0780E0001B46F010E0001B56F67
:101B0800000180510001B427000181510001B52373
:101B180076C1D9FF77C1DAFFDECFB6F0DDCFB7F0F7
:101B2800FF0E0001B6250001806FFF0E0001B721EE
:101B38000001816F000E0001836F120E826FA0EC0E
:101B48001DF0000180510001B4250101746F0001EE
:101B580081510001B5210101756F5C0E0001A26F72
:101B6800010E0001A36FFA0E0001A46FFF0E000121
:101B7800A56F74C1A6F075C1A7F0000E0001A96F8A
:101B88003C0EA86FE3EC1CF0120072C180F073C128
:101B980081F0000E0001836FB40E826FA0EC1DF07F
:101BA800780E0001B46F010E0001B56F000180517D
:101BB8000001B427000181510001B52376C1D9FF86
:101BC80077C1DAFFDECFB6F0DDCFB7F0FF0E000148
:101BD800B6250001806FFF0E0001B7210001816F5B
:101BE800000E0001836F120E826FA0EC1DF0000141
:101BF80080510001B4250101746F00018151000179
:101C0800B5210101756F4A0E0001A26F010E000196
:101C1800A36FFA0E0001A46FFF0E0001A56F74C137
:101C2800A6F075C1A7F0000E0001A96F5E0EA86F9F
:101C3800E3EC1CF072C180F073C181F0000E00016A
:101C4800836FB40E826FA0EC1DF0780E0001B46FA4
:101C5800010E0001B56F000180510001B427000199
:101C680081510001B52376C1D9FF77C1DAFFDECFF4
:101C780080F0DDCF81F0000E0001836F120E826FBD
:101C8800A0EC1DF0000180510001B4250101746F22
:101C9800000181510001B5210101756F5C0E000141
:101CA800A26F010E0001A36FFA0E0001A46FFF0ED0
:101CB8000001A56F74C1A6F075C1A7F0000E000160
:101CC800A96F5E0EA86FE3EC1CF01200000E000175
:101CD800936F000E926F000E00018A6F040E0001D0
:101CE8008A6501D012D000018A51020DBA0EF32480
:101CF800D96E000EF420DA6EDE5000019227DD5016
:101D08000001932300018A2BE9D792C080F093C089
:101D180081F0000E0001836F050E826FB9EC1AF096
:101D28000001805100018111D8B406D0000E0001D5
:101D3800876F000E866F1200000E00018B6F040E75
:101D480000018B6501D012D000018B51020D600E8D
:101D5800F324D96E000EF420DA6EDE5000019227CB
:101D6800DD500001932300018B2BE9D792C080F04E
:101D780093C081F0000E0001836F050E826FB9ECED
:101D88001AF00001805100018111D8B406D0000E6C
:101D98000001876F000E866F1200000E00018C6F25
:101DA800040E00018C6501D01BD000018C51020D7E
:101DB8004C0EF324D96E000EF420DA6E0001DC51CB
:101DC800DE5C0001DD51DE58D8B002D0010E01D032
:101DD800000E00019227000E932300018C2BE0D700
:101DE80092C080F093C081F0000E0001836F050E51
:101DF800826FB9EC1AF00001805100018111D8B44A
:101E080006D0000E0001876F000E866F1200000ECC
:101E180000018D6F040E00018D6501D01BD00001FB
:101E28008D51020D4C0EF324D96E000EF420DA6E9B
:101E38000001DA51DE5C0001DB51DE58D8B002D077
:101E4800010E01D0000E00019227000E932300011D
:101E58008D2BE0D792C080F093C081F0000E000176
:101E6800836F050E826FB9EC1AF0000180510001F2
:101E78008111D8B406D0000E0001876F000E866F5E
:101E88001200000E00018E6F040E00018E6501D055
:101E98001BD000018E51020D560EF324D96E000E90
:101EA800F420DA6E0001E051DE5C0001E151DE58F9
:101EB800D8B002D0010E01D0000E00019227000E0A
:101EC800932300018E2BE0D792C080F093C081F05D
:101ED800000E0001836F050E826FB9EC1AF0000145
:101EE800805100018111D8B406D0000E0001876F1F
:101EF800000E866F1200000E00018F6F040E0001A5
:101F08008F6501D01BD000018F51020D560EF324AE
:101F1800D96E000EF420DA6E0001DE51DE5C00019D
:101F2800DF51DE58D8B002D0010E01D0000E0001FA
:101F38009227000E932300018F2BE0D792C080F0E8
:101F480093C081F0000E0001836F050E826FB9EC1B
:101F58001AF00001805100018111D8B406D0000E9A
:101F68000001876F000E866F1200000E0001906F4F
:101F7800040E0001906501D01BD000019051020DA4
:101F88001C0EF324D96E010EF420DA6E0001E05124
:101F9800DE5C0001E151DE58D8B002D0010E01D05C
:101FA800000E00019227000E93230001902BE0D72A
:101FB80092C080F093C081F0000E0001836F050E7F
:101FC800826FB9EC1AF00001805100018111D8B478
:101FD80006D0000E0001876F000E866F1200000EFB
:101FE8000001916F040E0001916501D01BD0000122
:101FF8009151020D560EF324D96E000EF420DA6EBC
:102008000001DE51DE5C0001DF51DE58D8B002D09D
:10201800010E01D0000E00019227000E932300014B
:10202800912BE0D792C080F093C081F0000E0001A0
:10203800836F050E826FB9EC1AF000018051000120
:102048008111D8B406D0000E0001876F000E866F8C
:102058001200000E0001936F020E926F4C500001A7
:10206800DA5D4D500001DB59D8B006D0000E0001F2
:10207800876F000E866F12004C500001DC5D4D50DA
:102088000001DD59D8B005D060500001925F615061
:1020980006D00001BA510001925F0001BB51000156
:1020A800935B56500001DE5D57500001DF59D8A000
:1020B80028D001011C510001DE5D01011D51000104
:1020C800DF59D8A01ED00001E051565C0001E15153
:1020D8005758D8B010D00001E05101011C5D000133
:1020E800E15101011D59D8B006D0020E0001922716
:1020F800000E932306D0000E0001876F000E866F36
:10210800120092C086F093C087F012000001C7BF8A
:102118000AD00001C75105E1330E0001C65DD8A001
:1021280002D089861ED00001C7BF0AD00001C7515E
:1021380005E11A0E0001C65DD8A002D0899611D01B
:102148000001C7BF0ED00001C75104E10001C60558
:10215800D8A007D089880001C6050001C711D8B4E6
:10216800899860500001BA250001946F6150000100
:10217800BB210001956F0001945100019511D8B45D
:1021880043D00001CC510001CD11D8A43DD00001AD
:10219800CFBF08D00001CF5137E11A0E0001CE5D44
:1021A800D8B032D079C0CCF07AC0CDF0000E0001A2
:1021B800996F000E986F000199BF08D000019951DE
:1021C80023E1070E0001985DD8B01ED0D890000119
:1021D8009835D96E00019935DA6E3E0ED926000E73
:1021E800DA22D89000019835E16E00019935E26E47
:1021F800000EE126010EE222DECFE6FFDDCFE5FF8D
:102208000001984B992BD7D70001CC050001CD11BF
:10221800D8A441D06AEC0EF086C0C4F087C0C5F0DF
:102228000001C4510001C511D8B432D00001CE510B
:102238000001CF11D8A42CD0F8C0CEF0F9C0CFF04F
:102248000001C4050001C511D8A403D00001C84B82
:10225800C92B020E0001C4190001C511D8A403D06E
:102268000001CA4BCB2B030E0001C4190001C51194
:10227800D8A403D00001D64BD72B040E0001C419F3
:102288000001C511D8A407D00001D84BD92B03D021
:102298000001CC4BCD2B190E0001CE190001CF1136
:1022A800D8A405D0F6C0C6F0F7C0C7F0D1D0000159
:1022B800CFBF29D00001CF5105E1580E0001CE5DF6
:1022C800D8A021D0FF0E0001C4250001806FFF0EA9
:1022D8000001C5210001816F000E0001836F030E0C
:1022E800826FB9EC1AF0010E0001946F0001802B87
:1022F80003D00001D89094370001802FFAD700014D
:1023080094518B12A5D00001CFBF2BD00001CF5123
:1023180005E14C0E0001CE5DD8A023D0FF0E0001D0
:10232800C4250001806FFF0E0001C5210001816FE7
:10233800000E0001836F030E826FB9EC1AF0010ED4
:102348000001946F0001802B03D00001D8909437CE
:102358000001802FFAD700019451FF0A8B168C8058
:1023680077D00001CFBF0BD00001CF5105E13F0E60
:102378000001CE5DD8A003D08C908B8A69D0000173
:10238800CFBF0AD00001CF5105E1330E0001CE5D69
:10239800D8A002D08B9A5CD00001CFBF08D0000132
:1023A800CF5156E11A0E0001CE5DD8B051D00001D0
:1023B800CFBF4ED00001CF5104E10001CE05D8A017
:1023C80047D0FF0E0001C4250001806FFF0E0001F9
:1023D800C5210001816F000E0001836F030E826F1B
:1023E800B9EC1AF0010E0001946F0001802B03D0A4
:1023F8000001D89094370001802FFAD7000194513A
:102408008D120001CE050001CF11D8A421D0FF0EF6
:102418000001C4250001806FFF0E0001C5210001E5
:10242800816F000E0001836F030E826FB9EC1AF002
:10243800010E0001946F0001802B03D00001D89099
:1024480094370001802FFAD700019451FF0A8D16A6
:102458000001C7BF0BD00001C75104E10001C60548
:10246800D8A004D00001C607D8A0C7070001CDBF77
:102478000BD00001CD5104E10001CC05D8A004D057
:102488000001CC07D8A0CD070001CFBF0BD00001B9
:10249800CF5104E10001CE05D8A004D00001CE0739
:1024A800D8A0CF0700C194F001C195F00001941F96
:1024B800951F944B952B40C080F041C081F0000ED1
:1024C8000001836F3C0E826FA0EC1DF080C096F077
:1024D80081C097F002C180F003C181F0000E0001B5
:1024E800836F3C0E826FA0EC1DF00001801F00017D
:1024F800811F0001804B812B00018051000196272C
:102508000001815100019723000194510001962791
:1025180000019551000197233E50000196273F5036
:1025280000019723000197BF12000001975105E1B0
:102538000F0E0001965DD8A01200650E0001E46F31
:1025480012008AD14A0E0001A26F010E0001A36F8A
:102558009A0E0001A46FFE0E0001A56F70C0A6F0D0
:102568000001A76B6FC0A8F00001A96B6EC0AAF0AC
:102578000001AB6BE3EC1CF05C0E0001A26F010ED6
:102588000001A36FB10E0001A46FFE0E0001A56F3C
:102598006CC0A6F00001A76B6BC0A8F00001A96B86
:1025A8006AC0AAF00001AB6BE3EC1CF012001DEC52
:1025B8000CF012000001E2050001E311D8A44BD091
:1025C8004A0E0001A26F010E0001A36F810E0001E7
:1025D800A46FFE0E0001A56FD4C080F0D5C081F0B5
:1025E800000E0001836F3C0E826FA5EC19F080C0CD
:1025F800A6F081C0A7F0D4C080F0D5C081F0000E4D
:102608000001836F3C0E826FB9EC1AF080C0A8F00D
:1026180081C0A9F0C8C0AAF0C9C0ABF0CAC0ACF06C
:10262800CBC0ADF0E3EC1CF05C0E0001A26F010E14
:102638000001A36F830E0001A46FFF0E0001A56FB8
:10264800D6C0A6F0D7C0A7F0D8C0A8F0D9C0A9F0C6
:10265800E3EC1CF01200020E0001E2190001E31184
:10266800D8A42FD04A0E0001A26F010E0001A36F5B
:10267800CD0E0001A46FFF0E0001A56FCEC0A6F01D
:10268800CFC0A7F0CCC0A8F0CDC0A9F0E3EC1CF0F7
:102698005C0E0001A26F010E0001A36FB10E0001D4
:1026A800A46FFF0E0001A56FC6C0A6F0C7C0A7F0B3
:1026B8006AEC0EF086C0A8F087C0A9F0E3EC1CF025
:1026C8001200030E0001E2190001E311D8A437D06B
:1026D8004A0E0001A26F010E0001A36F620E0001F5
:1026E800A46FFF0E0001A56FBAC0A6F0BBC0A7F08B
:1026F800BCC0A8F0BDC0A9F0BEC0AAF0BFC0ABF076
:10270800E3EC1CF05C0E0001A26F010E0001A36F48
:10271800190E0001A46FFF0E0001A56F60C0A6F09E
:1027280061C0A7F062C0A8F063C0A9F06AEC0EF01F
:1027380086C0AAF087C0ABF0E3EC1CF01200040ED0
:102748000001E2190001E311D8A42BD04A0E0001C0
:10275800A26F010E0001A36FD90E0001A46FFF0E36
:102768000001A56F56C0A6F057C0A7F0E3EC1CF017
:102778005C0E0001A26F010E0001A36F730E000131
:10278800A46FFF0E0001A56F1CC1A6F01DC1A7F024
:102798006AEC0EF086C0A8F087C0A9F0E3EC1CF044
:1027A8001200050E0001E2190001E311D8A412007D
:1027B8004A0E0001A26F010E0001A36F2C0E00014A
:1027C800A46FFF0E0001A56FBAC0A6F0BBC0A7F0AA
:1027D80060C0A8F061C0A9F056C0AAF057C0ABF01D
:1027E8001CC1ACF01DC1ADF0E3EC1CF05C0E0001A7
:1027F800A26F010E0001A36F3F0E0001A46FFF0E30
:102808000001A56F4CC0A6F04DC0A7F06AEC0EF011
:1028180086C0A8F087C0A9F0E3EC1CF012004A0EAD
:102828000001A26F010E0001A36FF40E0001A46F56
:10283800FF0E0001A56FE3EC1CF05C0E0001A26F17
:10284800010E0001A36F930E0001A46FFF0E00019B
:10285800A56FE3EC1CF012000001E551630AD8B43F
:10286800A6D6060AD8B4A3D6090AD8B4A0D6010AAF
:10287800D8B49DD61F0AD8B465D6010AD8B49AD65A
:10288800CED7730E0001E419D8A405D0730E000149
:10289800E519D8A40AD06D0E0001E419D8A44BD0CC
:1028A8006D0E0001E519D8B446D0000E0001B66FD0
:1028B800060E0001B66501D03ED00001B651020DEA
:1028C8003E0EF324D96E000EF420DA6E0001B651E4
:1028D800020D0E0EF324E16E010EF420E26EDECF3F
:1028E800E6FFDDCFE5FF0001B651020D3E0EF324F1
:1028F800D96E000EF420DA6E0001B651020D000EFA
:10290800F324E16E010EF420E26EDECFE6FFDDCFA8
:10291800E5FF000E0001C76F4B0EC66F000E0001E9
:10292800CD6F000ECC6F000E0001CF6F000ECE6F82
:102938000001B62BBDD70001CA510001C82500010E
:10294800B46F0001CB510001C9210001B56F00012E
:10295800D6510001B4270001D7510001B523000169
:10296800D8510001B4250001D26F0001D9510001EE
:10297800B5210001D36FD2C080F0D3C081F0000E22
:102988000001836F640E826FB9EC1AF080C0D2F038
:1029980081C0D3F0730E0001E519D8A40ED0000150
:1029A800D5BF0BD00001D55105E1B40E0001D45DAF
:1029B800D8A003D0650E0001E46F650E0001E4198C
:1029C800D8A473D0650E0001E519D8B46ED0D4C070
:1029D800D0F0D5C0D1F0940E0001A26F030E000113
:1029E800A36F060E0001A46FFF0E0001A56FD2C0F1
:1029F800A6F0D3C0A7F0E3EC1CF0A60E0001A26F6E
:102A0800030E0001A36FC80E0001A46FFE0E0001A3
:102A1800A56FD0C080F0D1C081F0000E0001836F97
:102A28003C0E826FA5EC19F080C0A6F081C0A7F01B
:102A3800D4C080F0D5C081F0000E0001836F3C0E39
:102A4800826FB9EC1AF080C0A8F081C0A9F0E3EC5D
:102A58001CF0B80E0001A26F030E0001A36FDE0E7A
:102A68000001A46FFE0E0001A56FC8C0A6F0C9C082
:102A7800A7F0CAC0A8F0CBC0A9F0E3EC1CF0CA0EBE
:102A88000001A26F030E0001A36FF20E0001A46FF4
:102A9800FE0E0001A56FD6C0A6F0D7C0A7F0D8C01B
:102AA800A8F0D9C0A9F0E3EC1CF06D0E0001E519FF
:102AB800D8B40AD06C0E0001E519D8B405D0630E5D
:102AC8000001E519D8A40ED00001D5BF0BD0000134
:102AD800D55105E10A0E0001D45DD8A003D0720ECD
:102AE8000001E46F6D0E0001E419D8B419D06C0E22
:102AF8000001E419D8B414D0630E0001E419D8B465
:102B08000FD0000E0001F36F010EF26F000E0001EE
:102B1800F16F010EF06F000E0001E76F010EE66F16
:102B2800730E0001E419D8B405D0000E0001E36F5C
:102B3800010EE26F650E0001E419D8B405D0000E4D
:102B48000001EB6F010EEA6FE4C0E5F0720E0001C0
:102B5800E519D8A41200000E0001C96F000EC86F55
:102B6800000E0001CB6F000ECA6F000E0001D76F78
:102B7800000ED66F000E0001D96F000ED86F12003C
:102B8800312E20536F727420202020202020200016
:102B98000000322E2050204C6F6773202020202008
:102BA80020000000332E204372656469747320206E
:102BB80020202000000000000000000000000000AD
:102BC80000000000000000000000000000000000FD
:102BD80000000000000000000000000000000000ED
:102BE80000000000000000000000000000000000DD
:102BF80000000000000000000000000000000000CD
:102C080000000000000000000000000000000000BC
:102C180000000000000000000000000000000000AC
:102C2800000000000000000000000000000000009C
:102C3800000000006576656E743120202020202079
:102C48002020200000006576656E74322020202048
:102C580020202020200000006576656E7433202037
:102C6800202020202020200000000000000000007C
:102C7800000000000000000000000000000000004C
:102C8800000000000000000000000000000000003C
:102C9800000000000000000000000000000000002C
:102CA800000000000000000000000000000000001C
:102CB800000000000000000000000000000000000C
:102CC80000000000000000000000000000000000FC
:102CD80000000000000000000000000000000000EC
:102CE80000000000000000004D6963726F636F6EA2
:102CF80074726F6C3A2020000000436C656D656E3D
:102D0800742057616E202020200000004369726300
:102D1800756974733A2020202020200000004A752D
:102D28007374696E20517520202020202000000037
:102D3800456C656374726F6D6563683A2020200086
:102D4800000050657465722046656E67202020205B
:102D5800200000000000000000000000000000004B
:102D6800000000000000000000000000000000005B
:102D7800000000000000000000000000000000004B
:102D8800000000000000000000000000000000003B
:102D9800000000000000000000000000000000002B
:102DA800000000000000000000000000000000001B
:102DB800000000000000000000000000000000000B
:102DC80000000000000000000000000000000000FB
:102DD80000000000000000000000000000000000EB
:102DE80000000000000000000000000000000000DB
:102DF80000000000000000000000000000000000CB
:102E080000000000000000000000000000000000BA
:102E180000000000000000000000000000000000AA
:102E2800000000000000000000000000000000009A
:102E3800000000000000000000000000000000008A
:102E4800000000000000000000000000000000007A
:102E5800730E0001E519D8A41200040E0001866F54
:102E6800000186510001D8B4DFD0FE0E0001826F48
:102E7800FF0E0001836F000186510001846F856B8E
:102E8800D8900001843785370001825100018427DA
:102E98000001835100018523BA0E00018425D96EF3
:102EA800000E00018521DA6E00018651020DBA0E6E
:102EB800F324E16E000EF420E26EDECFE6FFDDCFF4
:102EC800E5FFFE0E0001826FFF0E0001836F000117
:102ED80086510001846F856BD8900001843785374F
:102EE80000018251000184270001835100018523DC
:102EF800600E00018425D96E000E00018521DA6E6E
:102F080000018651020D600EF324E16E000EF420DC
:102F1800E26EDECFE6FFDDCFE5FFFE0E0001826F39
:102F2800FF0E0001836F000186510001846F856BDD
:102F3800D890000184378537000182510001842729
:102F480000018351000185234C0E00018425D96EB0
:102F5800000E00018521DA6E00018651020D4C0E2B
:102F6800F324E16E000EF420E26EDECFE6FFDDCF43
:102F7800E5FFFE0E0001826FFF0E0001836F000166
:102F880086510001846F856BD8900001843785379E
:102F9800000182510001842700018351000185232B
:102FA800560E00018425D96E000E00018521DA6EC7
:102FB80000018651020D560EF324E16E000EF42036
:102FC800E26EDECFE6FFDDCFE5FFFE0E0001826F89
:102FD800FF0E0001836F000186510001846F856B2D
:102FE800D890000184378537000182510001842779
:102FF80000018351000185231C0E00018425D96E30
:10300800010E00018521DA6E00018651020D1C0EA9
:10301800F324E16E010EF420E26EDECFE6FFDDCF91
:10302800E5FF000186071CD7715006EC1EF0C4505E
:103038000001836F826BC350000182254C6E000E25
:10304800000183214D6E765006EC1EF0C45000013D
:10305800836F826BC35000018225566E000E0001FB
:103068008321576E775006EC1EF0C4500001836F21
:10307800826BC3500001822501011C6F000E000104
:10308800832101011D6F72C082F081CF83F000019E
:10309800822B03D00001D89083330001822FFAD706
:1030A800010E00018317000183510001BA6FBB6B49
:1030B80078C082F081CF83F00001822B03D0000119
:1030C800D89083330001822FFAD7010E00018317AD
:1030D80000018351606E616A120093EC1EF0000ECD
:1030E8000001826FD00E816F8AEC1EF0000E000185
:1030F800826F000E816F8AEC1EF08FEC1EF093EC4D
:103108001EF0000E0001826FD10E816F8AEC1EF056
:10311800000E00018A6F050E00018A6501D047D0B4
:1031280000018A51010D6A0EF324D96E000EF420B5
:10313800DA6E010EEFEC1DF0DF6E00018A51010D11
:103148006A0EF324D96E000EF420DA6EDF500F0BEE
:103158000001866F876B00018A51010D6A0EF32406
:10316800D96E000EF420DA6EDF500001886F00017E
:10317800883B0F0E88170F0E000188170001885131
:103188000A0DF35000018627F4500001872300013F
:103198008A51020D3E0EF324D96E000EF420DA6E29
:1031A80086C0DEFF87C0DDFF00018A2BB4D70EC1C1
:1031B80086F00FC187F00001861F871F864B872B7B
:1031C80040C080F041C081F0000E0001836F3C0ECA
:1031D800826FA0EC1DF080C088F081C089F010C11A
:1031E80080F011C181F0000E0001836F3C0E826FE8
:1031F800A0EC1DF00001801F0001811F0001804B21
:10320800812B0001805100018827000181510001B4
:103218008923000186510001882700018751000198
:1032280089233E50000188250001D46F3F500001DA
:1032380089210001D56F000EEFEC1DF0706E8FEC48
:103248001EF01200000E0001AC6F000EAB6F260ED0
:103258000001806F010E0001816F4A0E0001826F2C
:10326800010E0001836F8DEC1CF0000180510001FC
:103278008111D8B413D0260E0001806F010E000111
:10328800816F4A0E0001826F010E0001836FD6EC38
:103298001DF0000E0001AC6F010EAB6F380E00017F
:1032A800806F010E0001816F5C0E0001826F010EBC
:1032B8000001836F8DEC1CF0000180510001811129
:1032C800D8B413D0380E0001806F010E0001816F51
:1032D8005C0E0001826F010E0001836FD6EC1DF0B9
:1032E800000E0001AC6F010EAB6F0001AB51000185
:1032F800AC11D8B41200010E76EC1EF0210E0001BC
:10330800AA6F760EE82EFED7AA2FFCD700F0800E03
:1033180076EC1EF0260E0001A26F010E0001A36FCD
:1033280035EC1DF0C00E76EC1EF0380E0001A26FD1
:10333800010E0001A36F35EC1DF0900E76EC1EF027
:103348001200000E0001856F000183AF08D0000154
:10335800826D831FD8B0832B010E0001856F000199
:1033680081AF08D00001806D811FD8B0812B010E7C
:103378000001851B000E0001876F000E866F00019B
:10338800825100018311D8B42CD0010E0001846F42
:1033980006D00001D890823783370001842B0001C2
:1033A80083AFF7D70001D89086378737000182515D
:1033B8000001805D0001835100018159D8A00AD025
:1033C800000182510001805F000183510001815B8F
:1033D800000186810001D890833382330001842F55
:1033E800E1D7000185510001D8B405D00001866DF0
:1033F800871FD8B0872B86C080F087C081F0120065
:10340800000E0001886F000E896F000E8A6F000E93
:103418008B6F0001845100018511000186110001A4
:103428008711D8B442D0010E00018C6F08D000017A
:10343800D890843785378637873700018C2B000171
:1034480087AFF5D70001D890883789378A378B3707
:10345800000184510001805D0001855100018159FE
:1034680000018651000182590001875100018359EA
:10347800D8A012D0000184510001805F000185515D
:103488000001815B000186510001825B00018751C8
:103498000001835B000188810001D890873386335F
:1034A8008533843300018C2FCDD788C080F089C044
:1034B80081F08AC082F08BC083F01200000E0001F8
:1034C800F76F4B0EF66F000E0001F96F640EF86F80
:1034D800000E7A6E110E796EE70E926E000E946EE3
:1034E800000E956E93689668000E8A6E000E8D6EBB
:1034F800000EC26E0B0EC16E000EB56EB496C08E75
:103508005AEC1DF0F086F19E100E00018D6F270E0B
:103518008E6F000E8F6F000E906F5DEC1CF0F29EA8
:103528002CEC1CF0F29E71EC18F0730E0001E519FA
:10353800D8A404D02CEC17F08AEC10F045EC14F069
:10354800A5EC12F026EC19F0780E0001E519D8B4B4
:10355800FBD7F28E620E0001B96F650EE82EFED71A
:10356800B92FFCD700D0F29EDDD7000E0001856F81
:10357800000181AF08D00001806D811FD8B0812B78
:10358800010E0001856F000183AF05D00001826D37
:10359800831FD8B0832B0001825100018311D8B456
:1035A80026D0010E0001846F06D00001D890823722
:1035B80083370001842B000183AFF7D700018251C4
:1035C8000001805D0001835100018159D8A008D015
:1035D800000182510001805F000183510001815B7D
:1035E8000001D890833382330001842FE7D700018C
:1035F80085510001D8B405D00001806D811FD8B075
:10360800812B80C080F081C081F01200880EF66E98
:103618002B0EF76E000EF86E01EE78F012EED0F079
:103628000900F5CFEEFFE550E150FAE1E250F8E18C
:10363800A60EF66E3C0EF76E000EF86E00EEDAF08F
:1036480010EE1CF00900F5CFEEFFE550E150FAE16D
:103658002E0EF66E3D0EF76E000EF86E00EE73F04D
:1036680010EE06F00900F5CFEEFFE550E150FAE163
:1036780001EE00F06E0EEE6AE806FDE100EEBAF02B
:10368800200EEE6AE806FDE100EE3EF0350EEE6A29
:10369800E806FDE17B907B92000162EF1AF0000ED4
:1036A8000001866F000E856F0001825100018311B1
:1036B800D8B42CD0010E0001846F06D00001D89038
:1036C800823783370001842B000183AFF7D70001CD
:1036D800D89085378637000182510001805D00014E
:1036E800835100018159D8A00AD0000182510001FC
:1036F800805F000183510001815B00018581000129
:10370800D890833382330001842FE1D785C080F0BD
:1037180086C081F01200000E066E02AE06D0016C63
:10372800021ED8B0022A010E066E04AE04D0036C45
:10373800041ED8B0042A03500410D8B418D0010EBF
:10374800056E04D0D89003360436052A04AEFAD79D
:103758000350015C04500258D8A004D00350015E05
:103768000450025AD89004320332052EF1D706507D
:10377800D8B404D0016C021ED8B0022A01C001F0EE
:1037880002C002F012000001816F00018151F00BAC
:103798000001806F8C500F0B8C6E000180518C10D3
:1037A8008C6E8C96140EE82EFED700D08C86140EE4
:1037B800E82EFED700D000018139F00B0001816F9F
:1037C80000018151F00B0001806F8C500F0B8C6E43
:1037D800000180518C108C6E8C96140EE82EFED74A
:1037E80000D08C86140EE82EFED700D012000001FF
:1037F800895100018A11D8B426D0010E00018B6FBF
:1038080006D00001D89089378A3700018B2B000138
:103818008AAFF7D7000189510001875D00018A51FD
:1038280000018859D8A008D0000189510001875F9C
:1038380000018A510001885B0001D8908A338933DE
:1038480000018B2FE7D787C087F088C088F0120067
:1038580093EC1EF0000E0001826FD00E816F8AEC8F
:103868001EF0000E0001826F000E816F8AEC1EF0C0
:10387800000E0001836F060E0001836501D016D08B
:1038880000018351010D7A0EF324F66EFE0EF4202A
:10389800F76EF86A000EF8220800F5500001816FF3
:1038A800826B8AEC1EF00001832BE5D78FEC1EF0AB
:1038B8001200000EC76E280EC66E000EC56E800E72
:1038C8000001806F960E816F980E826F000E836FD5
:1038D8008DC091F08EC092F08FC093F090C094F09C
:1038E800020ED89000019137923793379437E82E1B
:1038F800F8D791C084F092C085F093C086F094C048
:1039080087F004EC1AF000018005C86E948694884C
:10391800120006D00001804B812B0001824B832BC3
:1039280080C0D9FF81C0DAFFDF500001846F82C0F8
:10393800D9FF83C0DAFFDF500008000184250001A9
:10394800856F00018551D8A407D080C0D9FF81C0F8
:10395800DAFFDF50D8A4DED7000185510001806F5F
:10396800816B80BF81071200026E0250F00B016E5E
:103978008C500F0B8C6E01508C108C6E8C96140E24
:10398800E82EFED700D08C86140EE82EFED700D085
:103998000238F00B026E0250F00B016E8C500F0BC8
:1039A8008C6E01508C108C6E8C96140EE82EFED7FF
:1039B80000D08C86140EE82EFED700D01200A2C0CC
:1039C800B0F0A3C0B1F0000E0001B26F000E00010C
:1039D800B36FA60E0001AE6F000E0001AF6FB00E00
:1039E80000018C6F000E00018D6FA4C08EF0A5C081
:1039F8008FF0AE0E0001906F000E0001916F09EC80
:103A080000F0B0C0D9FFB1C0DAFF000EDF6E1200BF
:103A1800000E066E000E056E03500410D8B41CD0BC
:103A2800010E076E04D0D89003360436072A04AE78
:103A3800FAD7D890053606360350015C0450025870
:103A4800D8A005D00350015E0450025A0580D890D2
:103A580004320332072EEDD705C001F006C002F08C
:103A68001200000E0001A66F000E0001A76FC20E23
:103A78000001A86F3C0E0001A96FA40E0001A46FFD
:103A8800000E0001A56FA60E00018C6F000E00014C
:103A98008D6FA2C08EF0A3C08FF0A40E0001906FAE
:103AA800000E0001916F09EC00F01200310E0001C8
:103AB800836FB20EE82EFED7832FFCD700F0330EAB
:103AC80076EC1EF0320E76EC1EF0280E76EC1EF028
:103AD8000F0E76EC1EF0060E76EC1EF0010E76EC5C
:103AE8001EF0310E0001836FB20EE82EFED7832F31
:103AF800FCD700F012000A500B10D8B418D0010EF1
:103B08000C6E04D0D8900A360B360C2A0BAEFAD7B6
:103B18000A50085C0B500958D8A004D00A50085E17
:103B28000B50095AD8900B320A320C2EF1D708C024
:103B380008F009C009F01200000180510001820359
:103B4800F3CF84F0F4CF85F00001805100018303A6
:103B5800F350000185270001815100018203F350D1
:103B68000001852784C080F085C081F01200000E16
:103B7800276E000E286EFC0E296E3C0E2A6E250E4E
:103B8800256E000E266E270E0D6E000E0E6E23C0DB
:103B98000FF024C010F0250E116E000E126ECBEC43
:103BA80004F0120080C084F081C085F006D00001C6
:103BB800844B852B0001824B832B82C0D9FF83C0A5
:103BC800DAFF84C0E1FF85C0E2FFDFCFE7FFE750FF
:103BD800D8B41200ECD70001816F6CEC1EF0C586DA
:103BE8006CEC1EF0C9CF82F06CEC1EF00001815124
:103BF8000001D8A402D0C58A01D0C59AC5880001A1
:103C0800825112000001816F00018145E846FC0BDA
:103C1800C26EC280C28209D0110E0001806F3A0EB6
:103C2800E82EFED7802FFCD700F0C2A21200F4D7EE
:103C38000001826F000E0001816F3A0E000182615F
:103C480007D02F0E0001826503D0010E0001816F9D
:103C580081C080F000018031120001500302F3CFCF
:103C680005F0F4CF06F001500402F3500626025086
:103C78000302F350062605C001F006C002F0120048
:103C8800036E000E026E3A0E036005D02F0E036419
:103C980002D0010E026E02C001F001301200FF02D4
:103CA800FF00FF02FF000100727201000500010021
:103CB800030002000100010003007BB27EEF1EF04A
:103CC8000001826F8C8400018251C7EC1BF0120046
:103CD800C7B4FED7C5CF80F01F0E00018017D8B437
:103CE8001200F6D70001826F8C9400018251C7EC54
:103CF8001BF01200036E8C840350B8EC1CF0120009
:103D0800036E8C940350B8EC1CF012006CEC1EF09F
:103D180081C0C9FF12006CEC1EF0C58412006CEC67
:0C3D28001EF0C58012000500050102021B
:10FE5600003132334134353642373839432A30237C
:10FE6600440001000A006400E803102701001000A6
:10FE7600000100100000000001001725643A25303B
:10FE8600326420656E3A253032642065633A253047
:10FE960032642000253032782F253032782F2530F5
:10FEA6003278205055534820544F00253032783A46
:10FEB600253032783A25303278202020535441526A
:10FEC600540072756E2074696D653A202530316470
:10FED6003A25303264200000656E3A2530326420BF
:10FEE60065633A253032642020202000796E3A2559
:10FEF6003032642079633A25303264202020200095
:10FF0600626F74746C65733A202530326420202049
:10FF160020000050325B302D315D3A25642C25647B
:10FF2600204D3A2564005049523A256425642C2513
:10FF36003034642C2530346400444953545B305DBE
:10FF46003A25303464204D3A25640030313233345A
:10FF560035363738396162636465660050315B3027
:10FF66002D325D3A25642C25642C256400495232D5
:10FF76005B305D3A253034644D3A256400796E3A3B
:10FF8600253032642079633A2530326400454D4588
:10FF96005247454E43592053544F50006D656E7578
:10FFA6002073656C656374696F6E0044433A25641B
:10FFB600204D4541533A2564006E6F207061676598
:10FFC60020666F756E640052433A2564204D433AAD
:10FFD6002564004952315B305D3A2530346400694E
:10FFE6006E76616C696400286E756C6C29004552EA
:0AFFF600524F5200257325630000EE
:020000040020DA
:08000000FFFFFFFFFFFFFFFF00
:020000040030CA
:0E000000FF021F1EFF8381FF0FC00FE00F40A5
:00000001FF
